:020000040800F2
:10000000D0110024AD030008673000087F2E0008DF
:100010006530000817050008654E00080000000064
:10002000000000000000000000000000154C000867
:10003000E506000800000000D1490008174C000840
:10004000C7030008C7030008C7030008C703000868
:10005000C7030008C7030008C7030008C703000858
:10006000C7030008C7030008C7030008C703000848
:10007000C7030008C7030008C7030008C703000838
:10008000C7030008C7030008C7030008ED060008FF
:10009000F9060008C7030008C7030008C7030008E3
:1000A000C7030008C7030008C7030008C703000808
:1000B000C7030008C7030008C7030008C7030008F8
:1000C000C7030008C7030008C7030008C7030008E8
:1000D000C7030008C7030008C7030008C7030008D8
:1000E000C7030008C703000800000000C70300089A
:1000F000C7030008C7030008C7030008C7030008B8
:10010000C7030008C7030008C7030008C7030008A7
:10011000C7030008C7030008754D0008C70300089F
:10012000C7030008C7030008C7030008C703000887
:10013000C7030008C7030008C70300080507000835
:1001400000000000000000000000000000000000AF
:10015000C7030008C7030008C7030008C703000857
:10016000C7030008C7030008C7030008C703000847
:10017000C7030008C7030008C70300080000000009
:10018000C7030008C7030008C7030008C703000827
:10019000C7030008C7030008C7030008C703000817
:1001A000C7030008C7030008C703000800000000D9
:1001B000C7030008C7030008C7030008C7030008F7
:1001C000C7030008C703000800000000000000008B
:1001D0000000000000000000C7030008000000004D
:1001E000000000000000000000000000000000000F
:1001F0000000000000000000C7030008C70300085B
:10020000C7030008C703000800000000C703000878
:10021000C7030008C7030008C7030008C703000896
:10022000C703000800000000C7030008000000002A
:10023000C7030008C703000800000000C703000848
:10024000C7030008C7030008C7030008C703000866
:10025000C7030008C7030008C7030008C703000856
:10026000C7030008C7030008C7030008C703000846
:10027000C7030008C7030008C70300080000000008
:10028000C7030008C7030008C7030008C703000826
:1002900000000000C7030008C703000800000000BA
:1002A00000000000C7030008C7030008C7030008D8
:1002B000C7030008C7030008C7030008C7030008F6
:1002C000C7030008C7030008C703000800F002F8CE
:1002D00000F05CF80AA090E8000C82448344AAF184
:1002E0000107DA4501D100F051F8AFF2090EBAE882
:1002F0000F0013F0010F18BFFB1A43F0010318475A
:1003000094540000B45400000A444FF0000C10F85C
:10031000013B13F0070408BF10F8014B1D1108BF83
:1003200010F8015B641E05D010F8016B641E01F823
:10033000016BF9D113F0080F1EBF10F8014BAD1C73
:100340000C1B09D16D1E58BF01F801CBFAD505E091
:1003500014F8016B01F8016B6D1EF9D59142D6D3EB
:10036000704700000023002400250026103A28BF13
:1003700078C1FBD8520728BF30C148BF0B60704717
:100380001FB505F0CBF91FBD10B510BD00F08AF800
:100390001146FFF7F5FF05F09FF800F0A8F803B449
:1003A000FFF7F2FF03BC00F0AFF8000009488047F8
:1003B00009480047FEE7FEE7FEE7FEE7FEE7FEE747
:1003C000FEE7FEE7FEE7FEE704480549054A064B5F
:1003D00070470000B54C0008CD020008D00B002487
:1003E000D0110024D00D0024D00D002410B5203AE7
:1003F000C0F00B80B1E81850203AA0E81850B1E8DE
:100400001850A0E81850BFF4F5AF5FEA027C24BF93
:10041000B1E81850A0E8185044BF18C918C0BDE88A
:1004200010405FEA827C24BF51F8043B40F8043B53
:1004300008BF7047D20728BF31F8023B48BF11F808
:10044000012B28BF20F8023B48BF00F8012B704762
:100450004FF0000200B5134694469646203922BF5D
:10046000A0E80C50A0E80C50B1F12001BFF4F7AFA8
:10047000090728BFA0E80C5048BF0CC05DF804EB8A
:10048000890028BF40F8042B08BF704748BF20F8F8
:10049000022B11F0804F18BF00F8012B70477047F6
:1004A00070477047754600F02BF8AE460500694668
:1004B000534620F00700854618B020B5FFF784FFAB
:1004C000BDE820404FF000064FF000074FF0000855
:1004D0004FF0000B21F00701AC46ACE8C009ACE8D6
:1004E000C009ACE8C009ACE8C0098D46704710B53A
:1004F0000446AFF300802046BDE81040FFF74FBF31
:10050000004870476C0B002401491820ABBEFEE781
:10051000260002007047FEE72DE9F05F244F00251A
:10052000244C0826DDF834904FF40078DDE90ABA4F
:10053000C7E90085C7E902564FEA102C84F800C0CD
:1005400060704FEA112884F80280170AE170180AD7
:10055000277162712246A07115491748E37100F0B6
:1005600045FA134904F1080040F2FF1224314FEA22
:100570001B234FEA1A24C1E90025C1E90256037082
:1005800080F801B084700C9A80F803A00C99120ACC
:10059000027141714FEA19218171024680F807907A
:1005A000BDE8F05F02490448243100F01FBA0000A2
:1005B000C00500241A000024CC0200242DE9F05FBD
:1005C000244F0025244C0826DDF834904FF40078A1
:1005D000DDE90ABAC7E90085C7E902564FEA102CDF
:1005E00084F800C060704FEA112884F80280170A6E
:1005F000E170180A277162712246A07115491748E7
:10060000E37100F0F3F9134904F1080040F2FF121E
:1006100024314FEA1B234FEA1A24C1E90025C1E91E
:100620000256037080F801B084700C9A80F803A021
:100630000C99120A027141714FEA19218171024627
:1006400080F80790BDE8F05F02490448243100F0CB
:10065000CDB90000080600242A0000246C03002401
:10066000F0B50B78012402229BB14F7803261A4D76
:100670001A4B012FFFEE000A0DD0022FB7EE001A21
:100680000ED010EE106A9E421BDB4C7080ED001AFB
:10069000F0BD0C701DE010EE104AAC4208D210E024
:1006A00010EE102A9A42F0DA10EE102AAA4203D372
:1006B0004E70C0ED000AF0BD9FED090A80ED000A02
:1006C000F0BD10EE100A9842FADA10EE100AA842B5
:1006D000F6D24A70F0BD000000409CC500409C4529
:1006E00000000000704772B6FEE70000014800F00D
:1006F000BBBA0000CC020024014800F0B5BA0000EB
:100700006C030024044810B500F0AEFABDE81040B8
:10071000024800F0A9BA0000CC0200246C030024B7
:10072000F0B503684FF6FC716D4C426BD3F8845002
:100730008D4345EA8205C3F88450036853F8845F0B
:10074000068F25F47F0545EA06451D60836B654DE0
:100750009F180268D2F888308B4343EA8703C2F8B7
:100760008830026852F8883F868F23F4FE0343EAFC
:1007700006431360066856F8A03FC26B8B4307EB35
:10078000420243EA82033360076857F8A03FB0F89B
:10079000406023F4FE0343EA06433B60D0E9103691
:1007A00003FB06220368D3F8B0608E4346EA820654
:1007B000C3F8B0600368B0F84860D3F8B07027F4AD
:1007C000FE0747EA0646C3F8B060D0E9126703683F
:1007D00006FB0722D3F8AC608E4346EA8206C3F8D4
:1007E000AC60D0E91467036806FB0722D3F8F06019
:1007F0008E4346EA8206C3F8F0600368B0F858609A
:10080000D3F8F07027F47C1747EA0646C3F8F06087
:100810000368876D53F8C06F02EB47028E4346EAC8
:10082000820119600168B0F85C20D1F8C03023F46F
:100830007C1343EA0242C1F8C020016890F86020AE
:10084000D1F8C03023F07C5343EA0262C1F8C020E3
:10085000416B04EB8101C166826B01EB820202678E
:10086000C36B02EBC3024267D0E91034634302EB6F
:1008700083028267D0E91234634302EB8302C267CA
:10088000D0E91434634302EB8302C0F88020836D07
:1008900002EBC303C0F88430C46D826E544303EB93
:1008A0008403C0F88830046E544303EB8402C0F81C
:1008B0009020AA420AD9D0F89C20032142F02002BD
:1008C000C0F89C2080F898100120F0BD002200E0C4
:1008D00004C1D0F890308B42FAD80020F0BD00005F
:1008E00000AC0040FCD30040F0B58E680C69D1E943
:1008F000005744EA0604DFB145F080452C43866E7C
:10090000D1E906C54F695E4391F8203045EA0C05F0
:10091000B1F80CC0D0F884E0002047EA0363104F20
:100920001D430EEB860345EA0C45E3E8024511E062
:1009300044EA8544E3E71418155CA67894F803C0EC
:1009400094F801E0360445EA0C6446EA0E252C438F
:10095000001D10C3CC683C5D8442ECD8F0BD0000A3
:100960002857000810B590F89830012B09D0022BB9
:1009700007D0D0F89C1041F00201C0F89C10012073
:1009800010BD03689C6D0C4203D1DC6D44F0010482
:1009900004E09C6D31EA04041FD00324DC658B0560
:1009A00005D50368D3F8E0401443C3F8E0404B0595
:1009B00005D50368D3F8E4401443C3F8E440006865
:1009C000084A01EA0203446D074A1C434465106863
:1009D00040EA91701060002010BDDC6D44F002040C
:1009E000DCE70000FFFFCF3F14A8004070B50446CD
:1009F00090F89800022804D0D4F89C0040F0080039
:100A00000DE02068D0F8C03013F07C5F0BD0D0F838
:100A1000C4309B020CD5D4F89C0040F40070C4F89C
:100A20009C00012070BDD4F89C0040F02000F6E747
:100A3000D0F8C400C0F3044520462B46FFF754FF0E
:100A400021680120A840C1F8D000C4F8940000201B
:100A500070BD704770B590F89820012A09D0022A1D
:100A600007D0D0F89C1041F00201C0F89C10012082
:100A700070BD0B68CA6883B10B69072A43EA4273E9
:100A800025D00C7A4A6942EA84724968006F00EB0B
:100A9000C100C0E90032002070BD072A0DD00C7AD9
:100AA000D6060D8A4B6943EA847246EA0543C06E56
:100AB00049681A4340F82120EDE70B8A4FF0605552
:100AC000D1E9062442EA034245EA0423EFE78A69B2
:100AD000DBE7704770470000F0B590F898500024AD
:100AE000022D04D0D0F89C1041F0080129E04029E3
:100AF00005D0412929D0056D8D4219D942E00568FC
:100B0000D5F8A06016F4FE0F12D0D5F8A4607606D2
:100B100013D0D5F8A460F60105D5D5F8A06016F07D
:100B2000004F00D50124D5F8A470466F456C24E031
:100B3000D0F89C1041F0200103E0D0F89C1041F463
:100B40008071C0F89C100120F0BD0568D5F8B06038
:100B500016F4FE0FECD0D5F8B4607606EDD0D5F8DB
:100B6000B460F60105D5D5F8B06016F0004F00D599
:100B70000124D5F8B470866FC56CC7F305273C44D3
:100B8000654302E0456DC66F4D4306EB85052E6853
:100B900016F0804656602E6836D026F06046166005
:100BA000D5F800C000262E4F0CF0005CC2F808C03B
:100BB000D5F800C00CF0004CC2F810C0B5F804C065
:100BC0001FFA8CFCC2F81CC0D5F804C0CCF3034C4F
:100BD000C2F80CC0D5F804C00CF4801CC2F814C0D4
:100BE000D5F804C00CF4001CC2F818C0D5F804C035
:100BF000CCF3066CC2F820C0D5F804C008354FEA23
:100C0000DC7CC2F824C008E0C6F38A46C7E700BF10
:100C100015F806C003F806C0761CD2F80CC017F809
:100C20000CC0B445F4D840290AD041290CD0202961
:100C30004FF001020CD200688A40C0F898200DE005
:100C40000068C0F8A84009E00068C0F8B84005E0B6
:100C5000006801F01F018A40C0F89C200020F0BD10
:100C600028570008704700002DE9FF5FDFF80CB33C
:100C700004460BF10401DBF8000025680F68AA4662
:100C80008007D5F85090696DD5F850806E6D2A6D4B
:100C9000D5F854C02B6D00EA8770009009F47049B4
:100CA0006F6D286D01EA09010191DAF85410DAF844
:100CB0005490DAF8505008F00F0806EA0806029639
:100CC00002F0F00203F071536FEA09061F4000F0D2
:100CD00060700CEA020CCDF80CC0F20501EA0009C4
:100CE0000CD4E843C00509D400214FF48073CAF83E
:100CF0005030CBF800102046FFF7B4FF700512D437
:100D0000E84340050FD4206800234FF48068D0F8F2
:100D1000DC20D0F8E410C0F85080CBF8003011404F
:100D2000204600F081FBDFF858A2009850B12268FD
:100D3000830F00EA0A001065CBF8003020460099C6
:100D4000FFF787FE019850B12268830F00EA0A007E
:100D50001065CBF800302046019900F067FB02983F
:100D600050B12268830F00EA0A001065CBF800300A
:100D70002046029900F0C6FA039850B12268830F0A
:100D800000EA0A001065CBF800302046039900F015
:100D90002BFB30050CD4E843000509D42368002060
:100DA0004FF400621A65CBF80000204600F03FFBCC
:100DB000B00512D4E84380050FD4206800234FF417
:100DC0000078D0F8D820D0F8E010C0F85080CBF8E8
:100DD00000301140204600F028FB30030CD4E843DB
:100DE000000309D4236800204FF400221A65CBF8D1
:100DF0000000204600F084FAF0030CD4E843C0035E
:100E000009D4236800204FF480321A65CBF8000023
:100E1000204600F008FB70030CD4E843400309D4DB
:100E2000226800204FF480231365CBF80000204691
:100E300000F0F8FAB0030FD4E84380030CD4236821
:100E400000204FF400321A65CBF80000D4F89C0063
:100E500040F08000C4F89C00B9F1000F0BD022686C
:100E60004FEA997309EA0A001065CBF80030494649
:100E70002046FFF72FFE5FB12268BB0F07EA0A008A
:100E80001065CBF80030D4F89C003843C4F89C00BF
:100E90003C492068884268D1606881468068800744
:100EA00063D0D9F82060D9F82410D9F82080D9F877
:100EB0002400D9F820C0D9F82470D9F82030D9F806
:100EC0002450D9F8202003F4FC4306F00F0AD9F887
:100ED00024601D40D9F824B008F030080CF4C07C20
:100EE00002F4F02211EA0A0100EA080807EA0C07F6
:100EF00006EA0206D9F820A004D0C9F8201020463E
:100F000000F08DFAB8F1000005D061680862414632
:100F1000204600F086FA6FEA0B0040060ED46FEA16
:100F20000A0040060AD460684021C36BC26B0162AC
:100F30002046190C02F03F0200F072FA2FB16068EF
:100F400007623946204600F069FA35B160680562EB
:100F5000D4F89C002843C4F89C0036B1606806624F
:100F6000D4F89C003043C4F89C00D4F89C000028BE
:100F700002D02046FFF7ADFDBDE8FF9F10A800405E
:100F8000FFFFCF3F00A000402DE9F04194B08D4914
:100F90004C2204466846FFF729FA64B18A4D20685E
:100FA000A84202D100F58070606094F898004FF07C
:100FB000000820B108E0012014B0BDE8F08120460F
:100FC00084F8998000F002F92068816921F010010D
:100FD000816100F041FB0327064604E000F03CFB82
:100FE000801B0A2811D8206880690007F6D4206881
:100FF000816941F00101816100F02EFB06460DE0A0
:1010000000F02AFB801B0A2808D9D4F89C0040F085
:101010000100C4F89C0084F89870CCE720688069CF
:10102000C007EDD02068816941F002018161207C18
:1010300001282068816937D041F040018161607CDE
:1010400001282068816932D021F480418161A07C2F
:101050000128206881692DD041F480518161206888
:10106000A268816921F4407111438161206881691E
:1010700021F0A40181612068016921F01001016162
:10108000E068012819D010B302281BD020688169BC
:1010900041F0800181612068016941F01001016126
:1010A000E06803280ED012E021F04001C6E741F4C9
:1010B0008041CBE721F48051D0E72068816941F07D
:1010C000040103E02068816941F020018161207EF4
:1010D0006FF0FF02D4E90773A68A1102400602EB03
:1010E0000727A0F10070384327685B1E184301EB07
:1010F00006463043F861A068B0F5407F11D104F195
:101100002800A68C6FF00F0C89C801EB0641401E29
:1011100002EB0322104322680CEB07131843084329
:10112000D060206E30B12068626ED0F8C0101143DC
:10113000C0F8C010D4E917126846D14209D021681E
:10114000A36E51F8C82F50F8233022F007021A433B
:101150000A60216C49B12168626C51F8BC3F50F8BB
:10116000226023F0070232430A60A16C51B121686A
:10117000E36C51F8BC2F50F8233022F0700242EAA1
:1011800003120A60216D51B12168626D51F8BC3FB4
:1011900050F8220023F4E06242EA00200860206850
:1011A000A84204D16068816821F003018160C4F81D
:1011B00094800121C4F89C8084F898102046FFF7A1
:1011C000AFFAF9E63857000800A000402DE9F043D7
:1011D000B5B0804614212EA8FFF73AF9B821684629
:1011E000FFF736F9414D0026D8F800004FF0805146
:1011F0003F4A0C3D3C4F4FF002083C4C90424FF0B0
:10120000090930D100201B914A13CDE9002068461E
:1012100000F044FB08B1FFF766FA3868401C3860FC
:10122000012807D1206840F480702060206800F415
:1012300080703390286840F00800286028680322F6
:101240002E922EA900F00800CDE92F863196CDE927
:101250003290284800F0ECF800220121132000F021
:10126000C1FA132033E0244A90423AD100201B9166
:101270004FF40042CDE90020684600F00FFB08B1B2
:10128000FFF731FA3868401C3860012807D1206820
:1012900040F480702060206800F4807033902868EB
:1012A00040F002002860286860222E922EA900F0EB
:1012B0000200CDE92F863196CDE932900F4800F03B
:1012C000B7F800221420114600F08CFA142000F028
:1012D0007BFA00223F20114600F084FA3F2000F004
:1012E00073FA35B0BDE8F08300000024EC440258E6
:1012F00000A00040000C025800A400400004025866
:101300007047000030B505463248334C8DB08542F9
:101310002CD140216A460AAB2846FFF7DDFB2F4857
:1013200028226946FFF762F80098A0F201200728FA
:1013300017D82B49C0B2207001EB00100188018141
:10134000BDF8281049BA0180BDF82A1049BA418079
:10135000BDF82C1049BA81809DF82E10817103F0E0
:10136000F7FE1C4800220121FFF7FCFA1D488542C8
:101370002DD140216A460AAB2846FFF7ADFB17483E
:1013800028226946FFF732F80098A0F201200728CA
:1013900018D81249C0B26070803901EB0010018882
:1013A0000181BDF8281049BA0180BDF82A1049BA58
:1013B0004180BDF82C1049BA81809DF82E108171B2
:1013C00003F0C6FE074800220121FFF7CBFA0DB05B
:1013D00030BD0000CC020024180000245805002471
:1013E000580400246C030024704790F898100129D9
:1013F00007D0D0F89C1041F00401C0F89C100120E7
:101400007047022180F89810002201688B6923F050
:1014100001038B61C0F89C201046704770477047ED
:101420007047704770477047704770477047704704
:101430002DE9F84F03247A4D00234FF001094FF0B6
:10144000B04B4FF00F0AE4E009FA03F6324078D0CF
:101450000F7907F00307012F01D0022F1AD18768F7
:101460004FEA430ED1F80CC004FA0EF827EA080739
:101470000CFA0EFC4CEA070CC0F808C0476891F85B
:1014800004C0B743CCF3001C0CFA03FC4CEA070C75
:10149000C0F804C00E79F643B6070BD0C6684FEA11
:1014A00043088F6804FA08FC26EA0C0607FA08F7D6
:1014B0003743C7600E7906F00306022E12D1DE080C
:1014C0000F694FEA437C00EB8606B646366A4FEA60
:1014D000DC6C0AFA0CF807FA0CF726EA0806374320
:1014E000CEF820700F7906684FEA430807F003072B
:1014F00004FA08FC07FA08F726EA0C0637430760E7
:101500004E6816F4403F1CD0464E376847F002073D
:10151000376036689F0706F00206009623F0030640
:1015200006F1B046B6463F0FD6F80864DFF8F880FB
:101530000AFA07FC404526EA0C0603D14FF0000CDE
:101540003AE065E0DFF8E4C0604502D14FF0010CFD
:1015500032E0DFF8DCC0604502D14FF0020C2BE036
:10156000DFF8D0C0604502D14FF0030C24E0DFF873
:10157000C8C0604502D14FF0040C1DE0DFF8BCC0CC
:10158000604502D14FF0050C16E0DFF8B4C06045AD
:1015900002D14FF0060C0FE0DFF8A8C0604502D181
:1015A0004FF0070C08E0DFF8A0C0604502D14FF013
:1015B000090C01E04FF00A0C0CFA07FC4CEA060C8F
:1015C000CEF808C44F68DBF80060FF0226EA020686
:1015D00000D516435F46CBF80060D1F804C0DBF8B5
:1015E00004605FEA8C2C26EA020600D516437E6072
:1015F0006E684F6826EA0206BF0300D516436E6088
:101600002E684F6826EA0206FF0300D516432E60B7
:101610005B1C0A6832FA03F67FF416AFBDE8F88F58
:1016200080000058F4440258000002580004025898
:1016300000080258000C025800100258001402580A
:1016400000180258001C0258002402580AB1816197
:1016500070470904FBE700000148806870470000FC
:1016600004000024024881680278114481607047B8
:1016700004000024032010B500F0D4F800F0DAFED6
:101680000F4A104914681368C4F3032203F00F03D0
:101690008A5CC95C02F01F0201F01F01D0400A4AB7
:1016A00020FA01F11160094908600F2000F010F8DC
:1016B00008B1012010BD00F079F8002010BD000035
:1016C0001844025884570008140000241000002415
:1016D00070B50D4D04462878A0B14FF47A71B1FB76
:1016E000F0F00A490968B1FBF0F001F0D2F948B90D
:1016F000102C07D200222146501E00F073F8002063
:101700006C6070BD012070BD040000241000002436
:10171000154BF0B5083B427813491A600B680A1F55
:1017200023F001030B6043681360057BC67A827A5D
:10173000437B2D07847B45EA0665C77B90F809C08B
:10174000067A90F800E045EAC24040EA834040EA69
:10175000444040EA074040EA0C2040EA460040EAA4
:101760000E000860F0BD0000A0ED00E0BFF35F8F49
:10177000044800210368034A23F480330360703275
:101780001160704724ED00E0074A40F0010006496F
:1017900070321060086840F480300860BFF34F8FEB
:1017A000BFF36F8F7047000024ED00E0054808B5D7
:1017B000016841F002010160006800F00200009041
:1017C00008BD0000F4440258002809DB410900F07C
:1017D0001F028900012001F1E0219040C1F80001C1
:1017E000704700000E4BF0B41B680D46C3F3022394
:1017F000C3F10706042E00D90426191D072901D2BA
:10180000002300E0DB1E012404FA06F19C40491E7F
:101810002940641E994014402143F0BC03F023BBCF
:101820000CED00E0064900F0070210B54FF6FF048A
:101830000868044B204040EA02201843086010BDAD
:101840000CED00E00000FA05134970B50A68D243B8
:10185000520705D5096801F00701814213D118E04C
:101860000A6822F0070202430A60FFF7F5FE0A4DFC
:101870004FF47A760446083D07E000BFFFF7ECFE20
:10188000001BB04201D9012070BD2868C04380040C
:10189000F4D4002070BD00000C4802582DE9FE4F22
:1018A0000546DFF800A450F8081B0024FD4FC9438B
:1018B000019005F1280026460AF1240A009008014B
:1018C0001DD4686E50B1B0F5801F0CD0B0F5001F6C
:1018D0000ED0B0F5401F1ED001240FE0386840F450
:1018E0000030386017E00198022103F073F803E03C
:1018F0000098022103F0FEF804000CD02646288848
:10190000C043C00523D4A86D05281ED2DFE800F02F
:101910000C11161B1B006A6EDAF8001021F440113E
:101920001143CAF80010EAE7386840F40030386024
:1019300009E00198002103F04DF803E00098002130
:1019400003F0D8F80446C4B100E0012426462888F4
:10195000DFF85083C04308F12C0840052FD4D5F898
:10196000A400B0F5C00F28D010DCB8B1B0F5001F4E
:1019700019D0B0F5800F0FD11AE0AA6DDAF8001077
:1019800021F007011143CAF80010E0E7B0F5000F9D
:1019900013D0B0F5200F10D001240FE0386840F4C8
:1019A0000030386009E00198002103F013F803E0EB
:1019B0000098002103F09EF8044694B1264628883A
:1019C000C043000530D4D5F8A800B0F1407F29D03D
:1019D00011DCC0B1B0F1807F1AD0B0F1007F10D11E
:1019E0001BE0D5F8A420D8F8001021F460011143C1
:1019F000C8F80010E3E7B0F1806F13D0B0F1A06F2A
:101A000010D001240FE0386840F40030386009E05D
:101A10000198002102F0DEFF03E00098002103F0AE
:101A200069F8044694B126462868DFF878B2C043C6
:101A30000BF1200B80011FD4E86CD8B110280FD017
:101A4000202812D0302815D0012414E0D5F8A82081
:101A5000D8F8001021F0E0611143C8F80010E3E766
:101A6000386840F40030386004E00198022102F048
:101A7000B1FF044674B126462888C043C0042BD465
:101A8000E86DB0F5005F20D00DDCA0B1B0F5805F4F
:101A90000FD115E0EA6CDBF8001021F030011143A2
:101AA000CBF80010E8E7B0F5405F13D0B0F5804FF9
:101AB00010D001240FE0386840F40030386009E0AD
:101AC0000198002102F086FF03E00098002103F056
:101AD00011F804468CB126462888C043800429D4D6
:101AE000286EB0F5403F23D010DC08B3B0F5803F3E
:101AF00014D0B0F5003F0FD115E0EA6DDAF8001010
:101B000021F4E0411143CAF80010E5E7B0F5802F59
:101B10000ED0B0F5A02F0BD001240AE001980121CE
:101B200002F058FF03E00098012102F0E3FF0446B1
:101B300094B126462888C04340042AD4D5F8AC0086
:101B4000B0F1405F23D010DC08B3B0F1805F14D057
:101B5000B0F1005F0FD115E02A6EDAF8001021F421
:101B6000E0211143CAF80010E4E7B0F1804F0ED035
:101B7000B0F1A04F0BD001240AE00198012102F03E
:101B800029FF03E00098012102F0B4FF044674B17C
:101B900026462888C04300041FD4E86ED8B1B0F1AF
:101BA000805F0ED0B0F1005F10D0012414E0D5F8B2
:101BB000AC20D8F8001021F0E0411143C8F8001023
:101BC000E7E7386840F40030386004E0019801210C
:101BD00002F000FF044674B126462868C043C001E5
:101BE0001ED4A86CD0B101280ED0022811D0032831
:101BF00014D0012413E0EA6EDAF8001021F040510D
:101C00001143CAF80010E8E7386840F40030386043
:101C100004E00198022102F0DDFE04466CB1264684
:101C20002868C043400255D41F48016841F48071C0
:101C30000160FFF711FD81460EE0AA6CDBF8001091
:101C400021F003011143CBF80010E9E7FFF704FD91
:101C5000A0EB090064283BD813480068C005F5D5FF
:101C6000BCBBDFF84090B5F8B01009F14409D9F8D1
:101C7000000001F4407100F44070884211D0D9F89E
:101C80000010D9F8002021F4407142F48032C9F8E4
:101C90000020D9F8002022F48032C9F80020C9F8C9
:101CA000001003E02C44025800480258D5F8B00058
:101CB000B0F5807F19D1FFF7CFFC029011E000BF93
:101CC000FFF7CAFC0299411A41F28830814208D9D3
:101CD000032426462878DFF81494C043C00721D097
:101CE0003CE0D9F800008007EAD5D5F8B010C1F380
:101CF00001200328FE480DD0016821F47C510160C9
:101D0000B5F8B020D9F80010C2F30B021143C9F89E
:101D10000010DFE7F74A036802EA111223F47C514E
:101D20001143ECE7A86F182816D005DCA0B10828ED
:101D300008D0102804D10AE020280DD028280BD084
:101D400001240AE00198012102F044FE03E000981A
:101D5000012102F0CFFE044664B126462878C04334
:101D600080071ED4686F062819D2DFE800F0160C31
:101D700011161616AA6FD9F8001021F03801114378
:101D8000C9F80010EAE70198012102F023FE03E000
:101D90000098012102F0AEFE04467CB100E001246F
:101DA00026462878C04340071FD4D5F8900006285F
:101DB00019D2DFE800F0160C111616166A6FD9F862
:101DC000001021F007011143C9F80010E9E701985C
:101DD000012102F0FFFD03E00098012102F08AFEDC
:101DE0000446A4B100E0012426462878C0438006BA
:101DF0002BD4D5F88C00B0F1405F24D011DC10B3A7
:101E0000B0F1805F15D0B0F1005F10D116E0D5F8C9
:101E10009020D8F8001021F007011143C8F80010F5
:101E2000E3E7B0F1804F0ED0B0F1A04F0BD001240A
:101E30000AE00198002102F0CDFD03E000980221A4
:101E400002F058FE044694B126462878C043400666
:101E50002BD4D5F89800B0F5406F24D011DC10B326
:101E6000B0F5806F15D0B0F5006F10D116E0D5F841
:101E70008C20D9F8001021F0E0411143C9F800107E
:101E8000E3E7B0F5805F0ED0B0F5A05F0BD0012482
:101E90000AE00198002102F09DFD03E00098022174
:101EA00002F028FE044694B126462878C043000676
:101EB0002BD4D5F89C00B0F5C04F24D011DC10B362
:101EC000B0F5005F15D0B0F5804F10D116E0D5F811
:101ED0009820D8F8001021F4E0511143C8F8001000
:101EE000E3E7B0F5004F0ED0B0F5204F0BD0012442
:101EF0000AE00198002102F06DFD03E00098022144
:101F000002F0F8FD044654B126462878C043000785
:101F10001ED4D5F88000B0F5805F0AD00FE0D5F868
:101F20009C20D8F8001021F460411143C8F800103B
:101F3000EBE70098022102F0DDFD00B10126D5F8A3
:101F40008020D9F8001021F440511143C9F8001045
:101F50002878C043C00613D4D5F89400B0F5807F2C
:101F600005D10098022102F0C5FD00B10126D5F887
:101F70009420D8F8001021F440711143C8F80010E3
:101F80002868C043000316D4D5F8A00038B1B0F5D6
:101F9000803F09D0B0F5003F0BD001240AE0019842
:101FA000002102F017FD03E00098022102F0A2FDDB
:101FB00004468CB126462868C043400322D4D5F895
:101FC0008400B0F5801F11D0B0F5001F13D0B0F51C
:101FD000401F15D0012414E0D5F8A020D8F8001037
:101FE00021F440311143C8F80010E4E7386840F4A8
:101FF0000030386004E00098012102F07BFD0446C7
:102000005CB126462868C043C0031CD4286D70B15B
:10201000B0F5803F10D0012414E0D5F88420D9F821
:10202000001021F440111143C9F80010EAE73868A4
:1020300040F40030386004E00198022102F0CAFC4C
:102040000446DCB126462868C043800005D40098C9
:10205000022102F04FFD00B101262868C043800331
:102060001BD4E86FB8B1B0F5807F10D0B0F5007F19
:1020700011D0B0F5407F0ED001240DE02A6DDBF8C1
:10208000001021F480311143CBF80010DBE73868F1
:1020900040F4003038607CB326462868C043C00254
:1020A00007D42A6FDAF8001021F000411143CAF872
:1020B00000102868C043800207D4AA6EDAF8001026
:1020C00021F080711143CAF800102868C043400015
:1020D00009D40748016821F4004101600168D5F87E
:1020E000B420114301602868C04306E054440258FC
:1020F00010440258CFFFFF001DE007D46A6DDBF8E3
:10210000001021F040511143CBF800102868C04363
:10211000000208D4D5F88820D9F8001021F4400135
:102120001143C9F8001028790024C04300F00100D1
:10213000204309D00EE0EA6FD9F8001021F4407175
:102140001143C9F80010A8E70198002102F042FCF1
:1021500000B106462879C04300F00200204305D1B3
:102160000198012102F036FC00B106462879C043EF
:1021700000F00400204305D10198022102F02AFC5E
:1021800000B106462879C04300F00800204305D17D
:102190000098002102F0AEFC00B106462879C04349
:1021A00000F01000204305D10098012102F0A2FCAC
:1021B00000B106462879C04300F02000044304D152
:1021C0000098022102F096FC00B916B10120BDE88A
:1021D000FE8F0020FBE700002DE9F05F04000F46B2
:1021E0007ED0DFF83882D8F8000000F00F00B84247
:1021F0000CD2D8F8001021F00F013943C8F80010B4
:10220000D8F8000000F00F00B84269D12078844D62
:1022100040070AD52069296801F07001884204D975
:10222000296821F070010143296020787C4E361D19
:1022300000070AD56069316801F07001884204D94D
:10224000316821F07001014331602078C0060AD561
:10225000A069316801F4E061884204D9316821F451
:10226000E061014331602078DFF8B4B180060BF102
:10227000080B0CD5E1695846DBF8002002F070022B
:10228000914204D9026822F070020A430260207869
:1022900080070AD5E068296801F00F01884204D957
:1022A000296821F00F01014329602078C0073ED042
:1022B0005B49A2682868183920F4706010432860D0
:1022C0006068022818D0032819D00968012819D09D
:1022D000490700294ADADFF848A1AAF1080A00E014
:1022E00044E0DAF8002022F007020243CAF8002096
:1022F000FFF7B2F9814612E009688903E9E7096846
:102300008901E6E7C905E4E7FFF7A6F9A0EB0901B3
:1023100041F28830814202D90320BDE8F09F616814
:10232000DAF8000000F03800B0EBC10FECD12078F3
:1023300080070AD5E068296801F00F01884204D2BD
:10234000296821F00F0101432960D8F800104046A8
:1023500001F00F01B9420BD9016821F00F01394397
:102360000160006800F00F00B84201D00120D4E7FE
:10237000207840070AD52069296801F07001884259
:1023800004D2296821F070010143296020780007F8
:102390000AD56069316801F07001884204D2316861
:1023A00021F07001014331602078C0060AD5A06990
:1023B000316801F4E061884204D2316821F4E061BF
:1023C00001433160207880060CD5E1695846DBF87E
:1023D000002002F07002914204D2026822F07002E2
:1023E0000A43026000F026F80E492A682B68C2F3FF
:1023F000032203F00F038A5CC95C02F01F0201F0A4
:102400001F01D040084A20FA01F111600749086015
:1024100007480068BDE8F05FFFF75AB90020005296
:1024200018440258845700081400002410000024A7
:1024300008000024454970B545480968434B103BE6
:1024400011F0380208D00111082A03D0102A0BD04D
:10245000182A0BD0084670BD19688906FBD5196883
:10246000C1F3C101C84070BD3A4870BD3749374D0E
:1024700018310C1D24350A68096826682D6802F099
:10248000030406F00102C1F30511C5F3CC0515FBE9
:1024900002F200EE102AB8EE400AE9B32F4ADFED4F
:1024A0002E0AB7EE001A6CB1DFED2D1A012C01D007
:1024B000022C43D002EE101A1068F8EE422A81EE88
:1024C000A22A1EE01C68A40611D51B6801EE901A12
:1024D0001168C3F3C103F8EE612AD84001EE900AF7
:1024E000C1F30800F8EE611A81EEA22A0BE001EEBA
:1024F000901ADFED1C2A00BFF8EE611A106882EE18
:10250000A12AC0F3080001EE900AF8EE611A40EE2D
:10251000201A31EE810A00E015E022EE000A106870
:10252000C0F34620401C00EE900AF8EE600A80EEF0
:10253000201ABCEEC10A10EE100A70BD01EE901A0E
:10254000DFED092AD8E7002070BD000010440258D2
:102550000090D00300366E0100000039304402586C
:102560000024744A0024744C001BB74B2DE9F05F23
:1025700004007DD0FF4F2078FE4D1837DFF8F4833C
:10258000103DC00748D0D8F80000396800F0380086
:10259000102815D0182803D101F0030002280FD00D
:1025A0006068B0F5803F12D010B1B0F5A02F18D000
:1025B000286820F480302860286820F4802009E012
:1025C0002868800328D560680028D2D024E02868D5
:1025D00040F480302860606888B1FFF73DF8064617
:1025E00009E0286840F480202860F0E7FFF734F81D
:1025F000801B64287ED828688003F7D50CE0FFF79D
:102600002BF8064605E000BFFFF726F8801B64287C
:10261000F0D828688003F7D42078800756D5D8F8FA
:102620000000DFF85093396810F03800A9F10C0968
:102630000ED0182801D188070AD0E068A8B329680D
:1026400021F0190101432960FFF706F8064628E04A
:102650002868400702D5E06800288AD0E168286829
:1026600020F0190008432860FEF7F6FF064606E052
:10267000D2E000BFFEF7F0FF801B0228BAD828681E
:102680004007F7D5217CD9F8002022F0FE4242EA2B
:102690000161C9F8001019E0FEF7DEFF801B022877
:1026A000A8D828684007F7D5ECE7FFE7286820F0AE
:1026B00001002860FEF7D0FF064604E0FEF7CCFFDD
:1026C000801B022896D828684007F7D42078C006D7
:1026D00046D5D8F80000DFF89C92396800F0380041
:1026E000A9F10409082812D0182805D101F0030027
:1026F000012800E0CEE00AD0E0690028286820D058
:1027000040F080002860FEF7A7FF064615E0286825
:10271000C00502D5E06980287ED194F82010D9F850
:10272000002022F07C5242EA0161C9F8001017E053
:10273000FEF792FF801B0228A0D82868C005F7D5B5
:10274000EBE720F080002860FEF786FF064604E0F5
:10275000FEF782FF801B022890D82868C005F7D4B6
:102760002078000729D583486169643000298146B3
:10277000016811D041F001010160FEF76DFF0646CE
:1027800005E000BFFEF768FF801B022888D8D9F853
:1027900000008007F6D510E021F001010160FEF78E
:1027A0005BFF064605E000BFFEF756FF801B0228D0
:1027B00070D8D9F800008007F6D42078800623D599
:1027C000A0690028286810D040F480502860FEF7E7
:1027D00043FF064605E000BFFEF73EFF801B0228D0
:1027E00058D828688004F7D50EE020F4805028607F
:1027F000FEF732FF064604E0FEF72EFF801B02289C
:1028000048D828688004F7D42078400751D5DFF8ED
:102810006891D9F8001000E015E141F48071C9F821
:102820000010FEF719FF064605E000BFFEF714FF93
:10283000801B64282ED8D9F80000C005F6D54D4E6F
:10284000A068603601280AD008B1052813D0306886
:1028500020F001003060306820F0040002E03068B1
:1028600040F001003060A06841F2883A98B1FEF76C
:10287000F3FE81460AE0306840F004003060EEE785
:10288000FEF7EAFEA0EB0901514503D83068800746
:10289000F6D50EE072E0FEF7DFFE814606E000BFEF
:1028A000FEF7DAFEA0EB0901514567D830688007D2
:1028B000F6D4606A00287CD0DFF8B8A0D8F8001001
:1028C0000AF1200A4FF6F87B0AF10408C1F3C201AD
:1028D0000329AAF104096DD00228286820F080702D
:1028E000286003D0FEF7B8FE044681E0FEF7B4FE90
:1028F000064604E0FEF7B0FE801B022875D8286863
:102900008001F7D4E26A40F2F331386854F8283F86
:10291000884340EA021018433860217B4FF4FE0CD4
:1029200022894FF0FE47208A4902267D521E401E12
:10293000A1F5007189B2C2F308021143761E0CEAB8
:1029400000400143484607EA06621143CAF80010F6
:10295000D9F8001021F00101C9F80010D8F80030B2
:10296000266A23EA0B0343EAC601C8F80010D9F827
:10297000001004E0104402580048025835E0A269F3
:1029800021F00C011143C9F800100168E26921F03F
:10299000020111430160016841F480310160016866
:1029A00041F400310160016841F480210160016857
:1029B00001E06CE020E041F001010160286840F096
:1029C00080702860FEF748FE044604E0FEF744FEEF
:1029D000001B022809D828688001F7D557E000BFFE
:1029E000FEF73AFE001B022802D90320BDE8F09F43
:1029F00028688001F4D44AE039680128DAF8000038
:102A000021D0A26A01F0030393421CD1E26AC1F310
:102A100005118A4217D1216BC0F30802491E8A4270
:102A200011D1616BC0F34622491E91420BD1A16BBB
:102A3000C0F30642491E914205D1E16BC0F3066026
:102A4000491E814201D00120D0E7A16C4646D8F84A
:102A50000000C0F3CC00814219D0D9F800004D46E7
:102A600020F00100C9F80000FEF7F6FD4FEA00076C
:102A7000FEF7F2FDB842FBD0A26C306820EA0B00F2
:102A800040EAC2003060286840F001002860002061
:102A9000ACE7401EB0F1807F10B501D3012010BD1E
:102AA0004FF0E02460610F21601702F0DCF9002094
:102AB000A0610721216110BD704770477047000079
:102AC000F0B590F83C20012A41D0224E012480F834
:102AD0003C40022280F83D2002681F4D5368B242FC
:102AE000D2F808C001D0AA4203D14F6823F4700382
:102AF0003B430F6823F070031F4357600268B242E4
:102B000019D0B2F1804F16D0144B9A4213D0144B07
:102B10009A4210D0134B9A420DD0AA420BD0124BBE
:102B20009A4208D0114B9A4205D0114B9A4202D0DA
:102B3000104B9A4204D189682CF0800319439160AC
:102B4000002180F83D4080F83C100846F0BD02208E
:102B5000F0BD0000000001400004014000040040FE
:102B600000080040000C00400018004000400140F8
:102B700000E0004000E4004010B5040003D094F8E9
:102B80003D0010B107E0012010BD002084F83C009A
:102B9000204600F023F8022084F83D002068211D23
:102BA00002F0EEF8012084F8480084F83E0084F832
:102BB0003F0084F8400084F8410084F8420084F823
:102BC000430084F8440084F8450084F8460084F803
:102BD000470084F83D00002010BD000008B50068E3
:102BE0000B49884212D10B48016841F01001016085
:102BF00000680022114600F0100000903620FEF719
:102C0000F1FDBDE808403620FEF7DEBD08BD00003E
:102C100000100040E844025890F83D10012901D00E
:102C2000012070471A4A022180F83D100168CB68E4
:102C300043F00103CB60006890421AD0B0F1804F9E
:102C400017D01449884214D01349884211D013492F
:102C500088420ED0124988420BD01249884208D0CF
:102C60001149884205D01149884202D01049884252
:102C700007D181680F4A1140062906D0B1F5803F7F
:102C800003D0016841F0010101600020704700009D
:102C9000000001400004004000080040000C00401B
:102CA00000040140001800400040014000E00040E6
:102CB00000E400400700010070472DE9F0410446A0
:102CC00000680027C6680569A90713D5B10711D5A3
:102CD000FA1E026101212177206880698007204661
:102CE00002D0FFF7E9FF04E000F08BF8204600F087
:102CF00089F82777680716D5700714D5226802204F
:102D00006FF00401116120772068806910F4407F22
:102D1000204602D0FFF7D0FF04E000F072F8204612
:102D200000F070F82777280715D5300713D52268EB
:102D300004206FF00801116120772068C0698007C6
:102D4000204602D0FFF7B8FF04E000F05AF8204612
:102D500000F058F82777E80616D5F00614D5226853
:102D600008206FF01001116120772068C06910F40D
:102D7000407F204602D0FFF79FFF04E000F041F8BB
:102D8000204600F03FF82777E80708D0F00706D084
:102D900021686FF001000861204600F035F8280630
:102DA00001D4A80408D5300606D521686FF4025076
:102DB00008612046FFF781FEE80508D5300606D5F4
:102DC00021686FF4807008612046FFF775FE680681
:102DD00008D5700606D521686FF0400008612046CE
:102DE00000F04CF8A8060AD5B00608D521686FF0A7
:102DF000200008612046BDE8F041FFF75FBEBDE856
:102E0000F08170477047000010B500681349884290
:102E100022D113480068807920B913489FED110A28
:102E200080ED3E0A114813499FED110A0268521CB9
:102E3000026081ED070A81ED010A02F09DF902F0BE
:102E400023F802F0EDFB00F033F901220A48BDE857
:102E50001040D103FEF7FABB10BD00000010004087
:102E6000A005002400000000D0070024A4020024D4
:102E700000007A4474090024000C02587047FEE7F1
:102E8000184800212DE9F041154F1D2581600124CE
:102E900007600326C1600A2301740422417484740C
:102EA0004661C0E90635C0E90836C0E90A358463E1
:102EB000C0E90C31C0E90F12C0E91121C0E91321AA
:102EC000C0E91521C0E91712C0E91912FEF75CF834
:102ED000002803D0BDE8F041FDF705BCBDE8F08156
:102EE00000A00040CC020024194800212DE9F04147
:102EF000164C1D268160012304600327C1600A254A
:102F000001740422417440F2064483744761C0E9AD
:102F10000656C0E90857C0E90A560563C0E90F1212
:102F200042648264C0E91321C0E91521C0E9171287
:102F3000C0E91912C0E90D43FEF726F8002803D0B6
:102F4000BDE8F041FDF7CFBBBDE8F08100A4004033
:102F50006C0300242DE9F04186B014216846FDF78A
:102F600077FA2B48016841F004010160016801F023
:102F700004010591016841F080010160016801F0E0
:102F800080010591016841F008010160016801F0CC
:102F900008010591016841F040010160016801F0FC
:102FA00040010591016841F001010160016801F0F3
:102FB00001010591016841F00201016000684FF4D0
:102FC0000046144F002200F00200314605903846BA
:102FD000FEF73CFBDFF84080002280214046FEF7F0
:102FE00035FB00250096012469463846CDE90145A8
:102FF0000395FEF71DFA80206946CDE90004CDE96E
:1030000002454046FEF714FA06B0BDE8F081000024
:10301000E0440258000C0258001802583EB510480F
:1030200000244FF47A710D4BF02200940194029425
:10303000C0E902418461C0E90032FFF79DFD08B19B
:10304000FDF751FB0648694600940294FFF738FDEE
:10305000002801D0FDF747FB3EBD000000100040F6
:103060000C040024FEE7FEE710489FED0F0A80EDF8
:103070000D0A80ED140A80ED130A80ED120A80ED2E
:10308000110A80ED100A80ED0F0A80ED0E0A80ED26
:103090000C0A80ED0B0A80ED0A0A80ED090A80ED2A
:1030A000080A80ED070A704700000000D0070024DE
:1030B0002DE9F047DFF8E08340462DED0A8B9FEDC8
:1030C000F7BADFEDF79A9FEDF78A9FEDF7AA4FF079
:1030D0008D46DFEDF68AF64F414698ED020A9FEDE8
:1030E000F59AD0ED00AAFDEEC00A90ED010AA0F518
:1030F000D274DFF8C49300F5A87510EE900A012889
:1031000002D0022832D132E0D4ED3E0A30EE6A1A03
:1031100099ED852AD4ED3D1AB0EE600AD9ED692A01
:1031200002EE010AB0EE612A12EE812A22EE0A2A8C
:1031300030EE020A10EE101AB14202DDC5ED008A2F
:1031400008E010EE101AB94202D985ED009A01E0AC
:1031500085ED000A42EE291AC4ED3D1A99ED770A71
:1031600020EE010A40EE290AC4ED3E0A8FE0D1EDBF
:10317000030A91ED052A99ED5B1AF0EE601A4846B4
:1031800042EE0B1A70EE61BAB0EEEB0AB4EEC01A62
:10319000F1EE10FA01DBF0EE48BAB4EEC01AF1EE2F
:1031A00010FA94ED3A0A90ED071A11EE2B0A20EE70
:1031B0000ACA19D294ED390A90ED231A01EE2B0AAE
:1031C00030EE0C0A10EE102AB24202DDB0EE680AB0
:1031D00005E010EE102ABA4201D9B0EE490A90ED8E
:1031E000931A51EE00AA01E0F0EE48AA94ED3B1AC2
:1031F000D9ED311A94ED3C0A90ED4D2A11EEAA1A40
:1032000002EE2A0A61EE0ACA30EE2C0A10EE100A0B
:10321000B04202DDC5ED018A08E010EE100AB842A6
:1032200002D985ED019A01E085ED010A98ED040AC5
:10323000A24930EEC00A01F12800FDF711FAD8EDDD
:10324000050A94ED0D0A30EE200A85ED020AD9ED4B
:10325000150A94ED390A60EEAB0A00EEA90A84ED76
:10326000390A94ED3A0A0CEE290A84ED3A0A94EDF3
:103270003B0A0CEEA90A84ED3B0AD9ED3F0A94ED16
:103280003C0A60EEAA0A00EEA90A84ED3C0A98ED19
:10329000080ABDEEC00A10EE100A012802D002286A
:1032A00036D136E0D8ED070A98ED061AD4ED681A43
:1032B00099ED7E2A30EEC11A94ED670AF0EE610AAC
:1032C000D9ED622A42EE010AB0EE402A12EE812ABE
:1032D00022EE0A2A70EE820A10EE901AB14202DD46
:1032E000C5ED038A08E010EE901AB94202D985EDC7
:1032F000039A01E0C5ED030A02EE290A84ED670A8C
:1033000099ED700A20EE010A40EE291AC4ED681A00
:1033100095E0D8ED090AD8ED0B1A98ED072AB0EE22
:10332000600A99ED541A01EE8B0A4146484672EE46
:1033300040BAB0EEEB0AB4EEC01AF1EE10FA01DBBF
:10334000F0EE48BAB4EEC01AF1EE10FA94ED640A49
:1033500090ED001A11EE2B0A20EE0ACA1BD294ED52
:10336000630A90ED1C1A01EE2B0A30EE0C0A10EEE7
:10337000102AB24202DDB0EE680A05E010EE102A13
:10338000BA4201D9B0EE490AD1ED06AA90ED8C1AE5
:1033900051EE00AA01E0F0EE48AA94ED651AD9EDCD
:1033A0002A1A94ED660A90ED462A11EEAA1A02EE48
:1033B0002A0A61EE0ACA30EE2C0A10EE100AB04258
:1033C00002DDC5ED048A08E010EE100AB84202D909
:1033D00085ED049A01E085ED040A384998ED0A0A62
:1033E0000E3101F1360030EEC00AFDF739F9D8EDA3
:1033F0000B0A94ED140A30EE200A85ED050AD9ED8A
:103400000E0A94ED630A60EEAB0A00EEA90A84EDA1
:10341000630A94ED640A0CEE290A84ED640A94EDC3
:10342000650A0CEEA90A84ED650AD9ED380A94ED17
:10343000660A60EEAA0A00EEA90A84ED660A98ED13
:103440000E0ABDEEC00A10EE100A012802D00228B2
:103450004BD14BE098ED0D0AD8ED0C0A94ED622AA1
:10346000D9ED7F1A70EE600A94ED611AB0EE420A4F
:10347000D9ED632A01EEA00AF0EE411A52EEA01A2D
:1034800061EE8A1A30EE210A10EE101AB14217DDF1
:10349000C5ED068A1DE000007409002400F8FF4510
:1034A0006F12833A000000000000C842000080460E
:1034B000000080C6000080C63C000024DC07002419
:1034C00010EE101AB94202D985ED069A01E085ED99
:1034D000060A01EEA91A84ED611A99ED710A20EE2F
:1034E000200A00EE292A84ED622A94E0D8ED0F0A22
:1034F000D8ED111A98ED0D2AB0EE600A99ED551A23
:1035000001EE8B0A4146484672EE40AAB0EEEA0A46
:10351000B4EEC01AF1EE10FA01DBF0EE48AAB4EEF8
:10352000C01AF1EE10FA94ED5E0A90ED011A11EE58
:103530002A0A20EE0ACA1BD294ED5D0A90ED1D1AEC
:1035400001EE2A0A30EE0C0A10EE102AB24202DD19
:10355000B0EE680A05E010EE102ABA4201D9B0EECA
:10356000490AD1ED0CBA90ED8D1A51EE00BA01E086
:10357000F0EE48BA94ED5F1AD9ED2B1A94ED600A7B
:1035800090ED472A11EEAB1A02EE2B0A61EE0ACA41
:1035900030EE2C0A10EE100AB04202DDC5ED078AAB
:1035A00008E010EE100AB84202D985ED079A01E052
:1035B00085ED070A98ED100AFF4930EEC00A01F1C7
:1035C0003400FDF74DF8D8ED110A94ED130A30EEF2
:1035D000200A85ED080AD9ED0F0A94ED5D0A60EE28
:1035E000AA0A00EEA90A84ED5D0A94ED5E0A0CEECB
:1035F000290A84ED5E0A94ED5F0A0CEEA90A84EDB7
:103600005F0AD9ED390A94ED600A60EEAB0A00EE6C
:10361000A90A84ED600A98ED140ABDEEC00A10EE06
:10362000100A012802D0022836D136E0D8ED130A5C
:10363000D8ED121A94ED5C1A99ED802A70EEE11A19
:1036400094ED5B0AF0EE410AD9ED642A42EE210ABC
:10365000B0EE402A12EEA12A22EE0A2A70EE820A69
:1036600010EE901AB14202DDC5ED098A08E010EEB5
:10367000901AB94202D985ED099A01E0C5ED090A0F
:1036800002EE290A84ED5B0A99ED720A20EE210A06
:1036900000EE291A84ED5C1A95E0D8ED150AD8EDF4
:1036A000171A98ED132AB0EE600A99ED561A01EE3A
:1036B0008B0A4146484672EE40AAB0EEEA0AB4EEE2
:1036C000C01AF1EE10FA01DBF0EE48AAB4EEC01A0F
:1036D000F1EE10FA94ED580A90ED021A11EE2A0A52
:1036E00020EE0ACA1BD294ED570A90ED1E1A01EE85
:1036F0002A0A30EE0C0A10EE102AB24202DDB0EEB9
:10370000680A05E010EE102ABA4201D9B0EE490A63
:10371000D1ED12BA90ED8E1A51EE00BA01E0F0EE42
:1037200048BA94ED591AD9ED2C1A94ED5A0A90ED35
:10373000482A11EEAB1A02EE2B0A61EE0ACA30EEED
:103740002C0A10EE100AB04202DDC5ED0A8A08E02C
:1037500010EE100AB84202D985ED0A9A01E085ED13
:103760000A0A954998ED160A891E01F1320030EED9
:10377000C00AFCF775FFD8ED170A94ED120A30EE77
:10378000200A85ED0B0AD9ED100A94ED570A60EE78
:10379000AA0A00EEA90A84ED570A94ED580A0CEE25
:1037A000290A84ED580A94ED590A0CEEA90A84ED11
:1037B000590AD9ED3A0A94ED5A0A60EEAB0A00EEC6
:1037C000A90A84ED5A0A98ED1A0ABDEEC00A10EE55
:1037D000100A012802D0022836D136E0D8ED190AA5
:1037E000D8ED181A94ED561A99ED810A70EEE11A87
:1037F00094ED552AF0EE410AD9ED652A40EE210AF2
:10380000B0EE420A12EEA10A20EE0A0A70EE800A19
:1038100010EE901AB14202DDC5ED0C8A08E010EE00
:10382000901AB94202D985ED0C9A01E0C5ED0C0A57
:1038300000EE292A84ED552A99ED730A20EE210A1B
:1038400000EE291A84ED561A95E0D8ED1B0AD8ED42
:103850001D1A98ED192AB0EE600A99ED571A01EE7B
:103860008B0A4146484672EE40AAB0EEEA0AB4EE30
:10387000C01AF1EE10FA01DBF0EE48AAB4EEC01A5D
:10388000F1EE10FA94ED520A90ED031A11EE2A0AA5
:1038900020EE0ACA1BD294ED510A90ED1F1A01EED8
:1038A0002A0A30EE0C0A10EE102AB24202DDB0EE07
:1038B000680A05E010EE102ABA4201D9B0EE490AB2
:1038C000D1ED18BA90ED8F1A51EE00BA01E0F0EE8A
:1038D00048BA94ED531AD9ED2D1A94ED540A90ED8F
:1038E000492A11EEAB1A02EE2B0A61EE0ACA30EE3B
:1038F0002C0A10EE100AB04202DDC5ED0D8A08E078
:1039000010EE100AB84202D985ED0D9A01E085ED5E
:103910000D0A294998ED1C0A091F01F1300030EE0B
:10392000C00AFCF79DFED8ED1D0A94ED110A30EE99
:10393000200A85ED0E0AD9ED110A94ED510A60EEC8
:10394000AA0A00EEA90A84ED510A94ED520A0CEE7F
:10395000290A84ED520A94ED530A0CEEA90A84ED6B
:10396000530AD9ED3B0A94ED540A60EEAB0A00EE1F
:10397000A90A84ED540A98ED200ABDEEC00A10EEA3
:10398000100A012802D002283AD13AE098ED1F0A25
:10399000D8ED1E0A94ED501A99ED822A70EE600A55
:1039A000B0EE410AD4ED4F1AD9ED662A02EE200A94
:1039B000B0EE612A02E00000E807002412EEA02A1F
:1039C00022EE0A2A30EE020A10EE101AB14202DD8F
:1039D000C5ED0F8A08E010EE101AB94202D985ED44
:1039E0000F9A01E085ED0F0A42EE291AC4ED4F1A35
:1039F00099ED740A20EE200A00EE291A84ED501A7F
:103A000094E0D8ED210AD8ED231A98ED1F2AB0EEE4
:103A1000600A99ED581A01EE8B0A4146484672EE4B
:103A200040BAB0EEEB0AB4EEC01AF1EE10FA01DBC8
:103A3000F0EE48BAB4EEC01AF1EE10FA94ED4C0A6A
:103A400090ED041A11EE2B0A20EE0ACA1BD294ED57
:103A50004B0A90ED201A01EE2B0A30EE0C0A10EE04
:103A6000102AB24202DDB0EE680A05E010EE102A1C
:103A7000BA4201D9B0EE490AD1ED1EAA90ED901AD2
:103A800051EE00AA01E0F0EE48AA94ED4D1AD9EDEE
:103A90002E1A94ED4E0A90ED4A2A11EEAA1A02EE61
:103AA0002A0A61EE0ACA30EE2C0A10EE100AB04261
:103AB00002DDC5ED108A08E010EE100AB84202D906
:103AC00085ED109A01E085ED100A98ED220AF8497B
:103AD00030EEC00A01F12E00FCF7C2FDD8ED230A3A
:103AE00094ED100A30EE200A85ED110AD9ED120A84
:103AF00094ED4B0A60EEAB0A00EEA90A84ED4B0A86
:103B000094ED4C0A0CEE290A84ED4C0A94ED4D0A12
:103B10000CEEA90A84ED4D0AD9ED3C0A94ED4E0A4B
:103B200060EEAA0A00EEA90A84ED4E0A98ED260A74
:103B3000BDEEC00A10EE100A012802D0022836D1CC
:103B400036E0D8ED250A98ED241AD4ED4A1A99EDFD
:103B5000832A30EEC11A94ED490AF0EE610AD9EDDC
:103B6000672A42EE010AB0EE402A12EE812A22EEC6
:103B70000A2A70EE820A10EE901AB14202DDC5EDFB
:103B8000128A08E010EE901AB94202D985ED129A15
:103B900001E0C5ED120A02EE290A84ED490A99ED09
:103BA000750A20EE010A40EE291AC4ED4A1A95E082
:103BB000D8ED270AD8ED291A98ED252AB0EE600A2B
:103BC00099ED591A01EE8B0A4146484672EE40AA19
:103BD000B0EEEA0AB4EEC01AF1EE10FA01DBF0EE34
:103BE00048AAB4EEC01AF1EE10FA94ED460A90ED30
:103BF000051A11EE2A0A20EE0ACA1BD294ED450AD4
:103C000090ED211A01EE2A0A30EE0C0A10EE102A6D
:103C1000B24202DDB0EE680A05E010EE102ABA42A8
:103C200001D9B0EE490AD1ED24BA90ED911A51EEC6
:103C300000BA01E0F0EE48BA94ED471AD9ED2F1A18
:103C400094ED480A90ED4B2A11EEAB1A02EE2B0AC6
:103C500061EE0ACA30EE2C0A10EE100AB04202DD04
:103C6000C5ED138A08E010EE100AB84202D985EDBE
:103C7000139A01E085ED130A8D4998ED280A891EF3
:103C800001F12C0030EEC00AFCF7EAFCD8ED290A5D
:103C900094ED0F0A30EE200A85ED140AD9ED130ACF
:103CA00094ED450A60EEAA0A00EEA90A84ED450AE1
:103CB00094ED460A0CEE290A84ED460A94ED470A73
:103CC0000CEEA90A84ED470AD9ED3D0A94ED480AA5
:103CD00060EEAB0A00EEA90A84ED480A754BDFEDF1
:103CE000761A98ED2C0ADFF8D4C19FED752ABDEE47
:103CF000C00A10EE100A012802D0022836D136E0A0
:103D000098ED2B0A98ED2A1AD4ED442A99ED843ABD
:103D100030EE410AD4ED430AB0EE621AD9ED683AAA
:103D200003EE001AB0EE603A13EE803A23EE0A3A40
:103D300031EE031A11EE101A994202DDC5ED151A83
:103D400008E011EE101A614502D985ED152A01E04F
:103D500085ED151A43EE290AC4ED430AD9ED760A1A
:103D600020EE800A40EE292AC4ED442A95E098ED21
:103D70002D1AD8ED2F2A98ED2B3AB0EE410AD9ED45
:103D80005A0A02EE8B0A4246494673EE40AAB0EE4A
:103D9000EA0AF4EEC00AF1EE10FA01DBF0EE48AAEE
:103DA000F4EEC00AF1EE10FA94ED400AD1ED060AE5
:103DB00010EEAA0A20EE0ACA1BD294ED3F0AD1EDFA
:103DC000220A00EEAA0A30EE0C0A10EE100A9842FF
:103DD00002DDB0EE610A05E010EE100A604501D97F
:103DE000B0EE420AD2ED2ABAD1ED920A50EE80BA74
:103DF00001E0F0EE48BAD4ED410AD9ED302A94ED55
:103E0000420A91ED4C3A52EEAB0A03EE2B0A60EEF9
:103E10008ACA70EE2C0A10EE900A984202DDC5EDB7
:103E2000161A08E010EE900A604502D985ED162AB0
:103E300001E0C5ED160A1E4998ED2E0A091F01F191
:103E40002A0031EE400AFCF70BFCD8ED2F0A94ED66
:103E50000E0A30EE200A85ED170AD9ED140A94ED0A
:103E60003F0A60EEAA0A00EEA90A84ED3F0A94ED2B
:103E7000400A0CEE290A84ED400A94ED410A0CEE4A
:103E8000A90A84ED410AD9ED3E0A94ED420A60EE9A
:103E9000AB0A00EEA90A84ED420A98ED320ABDEEA3
:103EA000C00A10EE100A01280CD0022840D140E0D0
:103EB000E207002400803B4500803B4500803BC575
:103EC00000803BC598ED310AD8ED300A94ED381AE0
:103ED00099ED862A70EE600AD4ED371AB0EE410AE9
:103EE000D9ED6A2A02EE200AB0EE612A12EEA02A6B
:103EF00022EE0A2A30EE020A10EE101AB14202DD5A
:103F0000C5ED188A08E010EE101AB94202D985ED05
:103F1000189A01E085ED180A42EE291AC4ED371A05
:103F200099ED780A20EE200A00EE291A84ED381A5D
:103F300094E0D8ED330AD8ED351A98ED312AB0EE79
:103F4000600A99ED5C1A01EE8B0A4146484672EE12
:103F500040BAB0EEEB0AB4EEC01AF1EE10FA01DB93
:103F6000F0EE48BAB4EEC01AF1EE10FA94ED340A4D
:103F700090ED081A11EE2B0A20EE0ACA1BD294ED1E
:103F8000330A90ED241A01EE2B0A30EE0C0A10EEE3
:103F9000102AB24202DDB0EE680A05E010EE102AE7
:103FA000BA4201D9B0EE490AD1ED30AA90ED941A87
:103FB00051EE00AA01E0F0EE48AA94ED351AD9EDD1
:103FC000321A94ED360A90ED4E2A11EEAA1A02EE3C
:103FD0002A0A61EE0ACA30EE2C0A10EE100AB0422C
:103FE00002DDC5ED198A08E010EE100AB84202D9C8
:103FF00085ED199A01E085ED190A98ED340AFF491B
:1040000030EEC00A01F12600FCF72AFBD8ED350A94
:1040100094ED0C0A30EE200A85ED1A0AD9ED160A45
:1040200094ED330A60EEAB0A00EEA90A84ED330A80
:1040300094ED340A0CEE290A84ED340A94ED350A25
:104040000CEEA90A84ED350AD9ED400A94ED360A42
:1040500060EEAA0A00EEA90A84ED360A98ED380A45
:10406000BDEEC00A10EE100A012802D0022836D197
:1040700036E098ED370A98ED361AD4ED321AD9EDBC
:10408000870A30EE411A94ED312AB0EE610AD9ED7B
:104090006B2A00EE810AF0EE420A52EE810A60EECF
:1040A0008A0A30EE200A10EE101AB14202DDC5ED88
:1040B0001B8A08E010EE101AB94202D985ED1B9A4E
:1040C00001E085ED1B0A00EEA92A84ED312A99ED65
:1040D000790A20EE010A40EE291AC4ED321A95E061
:1040E000D8ED390AD8ED3B1A98ED372AB0EE600AC0
:1040F00099ED5D1A01EE8B0A4146484672EE40BAD0
:10410000B0EEEB0AB4EEC01AF1EE10FA01DBF0EEFD
:1041100048BAB4EEC01AF1EE10FA94ED2E0A90ED02
:10412000091A11EE2B0A20EE0ACA1BD294ED2D0AB1
:1041300090ED251A01EE2B0A30EE0C0A10EE102A33
:10414000B24202DDB0EE680A05E010EE102ABA4273
:1041500001D9B0EE490AD1ED36AA90ED951A51EE8B
:1041600000AA01E0F0EE48AA94ED2F1AD9ED331A17
:1041700094ED300A90ED4F2A11EEAA1A02EE2A0AA7
:1041800061EE0ACA30EE2C0A10EE100AB04202DDCF
:10419000C5ED1C8A08E010EE100AB84202D985ED80
:1041A0001C9A01E085ED1C0A944998ED3A0A891E93
:1041B00001F1240030EEC00AFCF752FAD8ED3B0AB8
:1041C00094ED0B0A30EE200A85ED1D0AD9ED170A91
:1041D00094ED2D0A60EEAB0A00EEA90A84ED2D0ADB
:1041E00094ED2E0A0CEE290A84ED2E0A94ED2F0A86
:1041F0000CEEA90A84ED2F0AD9ED410A94ED300A9C
:1042000060EEAA0A00EEA90A84ED300A98ED3E0A93
:10421000BDEEC00A10EE100A012802D0022836D1E5
:1042200036E098ED3D0AD8ED3C0A94ED2C1A99ED54
:10423000882A30EE600AD4ED2B1AF0EE410AD9ED4F
:104240006C2A42EE000AB0EE612A12EE802A22EEBB
:104250000A2A70EE820A10EE901AB14202DDC5ED14
:104260001E8A08E010EE901AB94202D985ED1E9A16
:1042700001E0C5ED1E0A42EE291AC4ED2B1AD9ED54
:104280007A0A20EE800A00EE291A84ED2C1A94E0B6
:10429000D8ED3F0AD8ED411A98ED3D2AB0EE600AFC
:1042A00099ED5E1A01EE8B0A4146484672EE40BA1D
:1042B000B0EEEB0AB4EEC01AF1EE10FA01DBF0EE4C
:1042C00048BAB4EEC01AF1EE10FA94ED280A90ED57
:1042D0000A1A11EE2B0A20EE0ACA1BD294ED270A05
:1042E00090ED261A01EE2B0A30EE0C0A10EE102A81
:1042F000B24202DDB0EE680A05E010EE102ABA42C2
:1043000001D9B0EE490AD1ED3CAA90ED961A51EED2
:1043100000AA01E0F0EE48AA94ED291AD9ED341A6A
:1043200094ED2A0A90ED502A11EEAA1A02EE2A0AFA
:1043300061EE0ACA30EE2C0A10EE100AB04202DD1D
:10434000C5ED1F8A08E010EE100AB84202D985EDCB
:104350001F9A01E085ED1F0A98ED400A2748A11D2C
:104360001E3030EEC00AFCF77BF9D8ED410A94ED1F
:104370000A0A30EE200A85ED200AD9ED180A94EDDC
:10438000270A60EEAB0A00EEA90A84ED270A94ED35
:10439000280A0CEE290A84ED280A94ED290A0CEE6D
:1043A000A90A84ED290AD9ED420A94ED2A0A60EEA1
:1043B000AA0A00EEA90A84ED2A0A98ED440ABDEE85
:1043C000C00A10EE100A012802D002283AD13AE0C1
:1043D000D8ED430A98ED421AD4ED261A99ED892AB0
:1043E00030EEC11AF0EE610A94ED250AD9ED6D2A7E
:1043F00042EE010AB0EE402A02E00000DA07002493
:1044000012EE812A22EE0A2A70EE820A10EE901A2B
:10441000B14202DDC5ED218A08E010EE901AB942E2
:1044200002D985ED219A01E0C5ED210A02EE290AA3
:1044300084ED250A99ED7B0A20EE010A40EE291A47
:10444000C4ED261A93E0D8ED450AD8ED471A98ED49
:10445000432AB0EE600A99ED5F1A01EE8B0A4146DD
:10446000484672EE40AAB0EEEA0AB4EEC01AF1EE87
:1044700010FA01DBF0EE48AAB4EEC01AF1EE10FA21
:1044800094ED220A90ED0B1A11EE2A0A20EE0ACAC8
:104490001BD294ED210A90ED271A01EE2A0A30EE84
:1044A0000C0A10EE102AB24202DDB0EE680A05E0F6
:1044B00010EE102ABA4201D9B0EE490AD1ED42BA43
:1044C00090ED971A51EE00BA01E0F0EE48BA94ED83
:1044D000231AD9ED351A94ED240A90ED512A11EEE4
:1044E000AB1A02EE2B0A61EE0ACA30EE2C0A10EE6D
:1044F000100AB04202DDC5ED228A08E010EE100A73
:10450000B84202D985ED229A01E085ED220A98EDA4
:10451000460AEE48211D30EEC00AFCF7A1F8D8ED9E
:10452000470A94ED090A30EE200A85ED230AD9EDF9
:10453000190A94ED210A60EEAA0A00EEA90A84ED98
:10454000210A94ED220A0CEE290A84ED220A94ED48
:10455000230A0CEEA90A84ED230AD9ED430A94ED4F
:10456000240A60EEAB0A00EEA90A84ED240A98ED55
:104570004A0ABDEEC00A10EE100A012802D0022835
:1045800036D136E098ED490A98ED481AD4ED200A64
:1045900099ED8A2A30EE411AD4ED1F1AB0EE600A66
:1045A000D9ED6E2A02EE010AB0EE612A12EE812ADE
:1045B00022EE0A2A30EE020A10EE101AB14202DD93
:1045C000C5ED248A08E010EE101AB94202D985ED33
:1045D000249A01E085ED240A42EE291AC4ED1F1A3F
:1045E00099ED7C0A20EE010A40EE290AC4ED200A6A
:1045F00094E0D8ED4B0AD8ED4D1A98ED492AB0EE6B
:10460000600A99ED601A01EE8B0A4146484672EE47
:1046100040AAB0EEEA0AB4EEC01AF1EE10FA01DBDD
:10462000F0EE48AAB4EEC01AF1EE10FA94ED1C0AAE
:1046300090ED0C1A11EE2A0A20EE0ACA1BD294ED54
:104640001B0A90ED281A01EE2A0A30EE0C0A10EE31
:10465000102AB24202DDB0EE680A05E010EE102A20
:10466000BA4201D9B0EE490AD1ED48BA90ED981A94
:1046700051EE00BA01E0F0EE48BA94ED1D1AD9ED02
:10468000361A94ED1E0A90ED522A11EEAB1A02EE84
:104690002B0A61EE0ACA30EE2C0A10EE100AB04264
:1046A00002DDC5ED258A08E010EE100AB84202D9F5
:1046B00085ED259A01E085ED250A98ED4C0A8348A1
:1046C000A11C001F30EEC00AFBF7CAFFD8ED4D0A4F
:1046D00094ED080A30EE200A85ED260AD9ED1A0A73
:1046E00094ED1B0A60EEAA0A00EEA90A84ED1B0AEB
:1046F00094ED1C0A0CEE290A84ED1C0A94ED1D0AA7
:104700000CEEA90A84ED1D0AD9ED440A94ED1E0AA7
:1047100060EEAB0A00EEA90A84ED1E0A98ED500A7D
:10472000BDEEC00A10EE100A012835D0022869D16A
:10473000D8ED510AD8ED531A98ED4F2AB0EE600A21
:1047400099ED611A01EE8B0A484672EE40AAB0EE6E
:10475000EA0AB4EEC01AF1EE10FA01DBF0EE48AA54
:10476000B4EEC01AF1EE10FA94ED160A90ED0D1A9F
:1047700011EE2A0A20EE0ABA54D294ED150A90EDF1
:10478000291A01EE2A0A30EE0B0A10EE101AB14275
:104790003CDDB0EE680A3FE098ED4F0AD8ED4E0AD6
:1047A00094ED1A2AD9ED8B1A70EE600A94ED191A5D
:1047B000B0EE420AD9ED6F2A01EEA00AF0EE411ADE
:1047C00052EEA01A61EE8A1A30EE210A10EE101A8B
:1047D000B14202DDC5ED278A08E010EE101AB94299
:1047E00002D985ED279A01E085ED270A01EEA91A85
:1047F00084ED191A99ED7D0A20EE200A00EE292A8F
:1048000084ED1A2ABDEC0A8BBDE8F08710EE101A71
:10481000B94201D9B0EE490A98ED4E8A90ED991A45
:1048200011EE008A94ED171AD9ED371A94ED180A93
:1048300090ED532A11EE881A02EE080A21EE0AAA18
:1048400030EE0A0A10EE100AB04202DDC5ED288AE9
:1048500008E010EE100AB84202D985ED289A01E06E
:1048600085ED280A194998ED520A243901F11C00F6
:1048700030EEC00AFBF7F4FE98ED530AD4ED070AB8
:1048800030EE800A85ED290AD9ED1B0A94ED150A50
:1048900060EEAA0A00EEA90A84ED150A94ED160A44
:1048A0000BEE290A84ED160A94ED170A0AEE290A7E
:1048B00084ED170AD9ED450A94ED180A60EE880ACE
:1048C00000EEA90A84ED180A9CE70000F407002412
:1048D000B7EEC22B3D4A0128B7EEC11BB7EEC00BA5
:1048E00009D0022815D1082913D2DFE801F0123DC2
:1048F000444B5259606708290BD2DFE801F00A04E3
:104900000B121920272E82ED622A82ED701A82ED99
:104910007E0A704782ED632A82ED711A82ED7F0A6A
:10492000704782ED642A82ED721A82ED800A704728
:1049300082ED652A82ED731A82ED810A704782ED5D
:10494000662A82ED741A82ED820A704782ED672A28
:1049500082ED751A82ED830A704782ED682A82ED36
:10496000761A82ED840A704782ED692A82ED771A01
:1049700082ED850A704782ED6A2A82ED781A82ED0F
:10498000860A704782ED6B2A82ED791A82ED870ADA
:10499000704782ED6C2A82ED7A1A82ED880A7047A0
:1049A00082ED6D2A82ED7B1A82ED890A704782EDD5
:1049B0006E2A82ED7C1A82ED8A0A704782ED6F2A98
:1049C00082ED7D1A82ED8B0A704700003C000024C6
:1049D000704700002DE9F047454D044689464FF0E9
:1049E000000A2868C04380070AD0414E283E30683C
:1049F00020F080603060FCF72FFE0746B04608E0EC
:104A00000120BDE8F08700BFFCF726FEC01B02288E
:104A100067D8D8F800000001F6D4206829684FF460
:104A2000FE0721F47C313E0241EA00302860207A02
:104A3000A389B4F804C040022D4D2D495B1E227C91
:104A4000ACF1010C1035091DA0F5007080B2521EAA
:104A5000CCF3080C07EA034340EA0C00184306EACB
:104A60000262104328600868626920F0C0001043A9
:104A700008600A68A06922F0200202430A60281D2B
:104A80000A6822F010020A6002684FF6F873E469BF
:104A90009A4342EAC40202600868B9F1000F40F08C
:104AA00010020A6011D00868B9F1010F11D040F46A
:104AB00000100860D8F80000444640F08060C8F854
:104AC0000000FCF7C9FD05460DE0086840F4002031
:104AD000EFE740F48010ECE7FCF7BEFD401B022836
:104AE00001D903208DE720680001F5D5504688E7FD
:104AF000284402582DE9F047454D044689464FF0B9
:104B0000000A2868C04380070AD0414E283E30681A
:104B100020F080503060FCF79FFD0746B04608E06B
:104B20000120BDE8F08700BFFCF796FDC01B0228FE
:104B300067D8D8F800008000F6D4208829684FF4A0
:104B4000FE0721F07C713E0241EA00502860207A85
:104B5000A389B4F804C040022D4D2D495B1E227C70
:104B6000ACF1010C1835091DA0F5007080B2521E81
:104B7000CCF3080C07EA034340EA0C00184306EAAA
:104B80000262104328600868626920F440601043A4
:104B900008600A68A06922F4007202430A60281DB6
:104BA0000A6822F480720A6002684FF6F873E469BA
:104BB0009A4342EAC40202600868B9F1000F40F467
:104BC00080720A6011D00868B9F1010F11D040F06D
:104BD00080700860D8F80000444640F08050C8F863
:104BE0000000FCF739FD05460DE0086840F4800040
:104BF000EFE740F40000ECE7FCF72EFD401B022835
:104C000001D903208DE720688000F5D5504688E75C
:104C1000284402587047FCF725BD000070B59CB0D1
:104C20004C216846FBF714FC202113A8FBF710FC6D
:104C30000220FCF709FE1E48016821F44041016092
:104C40000168002401F440411B9101688904FCD5EE
:104C500002200A9028230990C20301210D91042506
:104C6000CDE90012CDE90B030C261294CDE90E50CC
:104C7000CDE910646846FDF779FC08B172B6FEE72D
:104C800040201A9008230501CDE9163013ABCDE979
:104C900018053F21032283E8160013A81146FDF7EB
:104CA0009BFA002801D072B6FEE71CB070BD000070
:104CB000184802582748F0B5274A016841F47001A6
:104CC0000160106800F00F00072804D2106820F07F
:104CD0000F00C01D106021490020204C10340B68CB
:104CE0001F4D43F001030B6020600B682B400B60ED
:104CF000136803F00F03072B04D9136823F00F0385
:104D0000DB1D1360154C174A1834174B261D371D31
:104D10002060124C154D28343060261D3860371D38
:104D200023603B1D35601C1D3A60251D2E1D18603B
:104D3000331D22602860326018600A6843F2D20492
:104D4000064B0B4D22F4802260330A6018602C6001
:104D5000F0BD000088ED00E0002000520044025841
:104D60007FEDF6EA80020101000202020000FF016D
:104D7000004000520148FDF7A0BF00000C040024D1
:104D80002DE9F0472D4B4FF0804A2D4D0268984297
:104D90002C4E2D4F2D4C09D0504507D0A84205D0A0
:104DA000B04203D0B84201D0A04205D1D1F804C02E
:104DB00022F070024CEA0202DFF894C0DFF894801F
:104DC0009842DFF8949015D0504513D0A84211D0E6
:104DD000B0420FD0B8420DD0A0420BD0604509D0F0
:104DE000404507D0484505D01C4DA84202D01C4D77
:104DF000A84203D1CD6822F440722A434D6922F0C3
:104E000080022A43026098428A68C2620A6882620B
:104E100007D0A04205D0604503D0404501D04845A9
:104E200001D109690163012141610169C90703D009
:104E3000016921F001010161BDE8F0870000014036
:104E40000004004000080040000C00400004014045
:104E500000400140004401400048014000E00040A3
:104E600000E40040FEE7090700284FEA116104DB77
:104E700000F1E02080F80014704700F00F0000F10E
:104E8000E02080F8141D70477FB598494FF07E529E
:104E90009FED970A9748984C0B6A934204D1D0ED46
:104EA000030A70EE800A01E0D0ED040AB7EEE01AC2
:104EB00084ED001B8B6B934204D1D0ED060A70EE9B
:104EC000800A01E0D0ED070AB7EEE01A84ED021B7C
:104ED0000B6D934204D1D0ED090A70EE800A01E017
:104EE000D0ED0A0AB7EEE01A84ED041B8B6E9342F4
:104EF00004D1D0ED0C0A30EE800A01E090ED0D0AED
:104F0000B7EEC00A84ED060BD1F88030934202D18F
:104F100090ED0F0A01E090ED100AB7EEC00A84EDA3
:104F2000080BD1F89830934202D190ED120A01E0BB
:104F300090ED130AB7EEC00A84ED0A0BD1F8B03039
:104F4000934202D190ED150A01E090ED160AB7EEFA
:104F5000C00A84ED0C0B8B68934202D190ED000ADD
:104F600001E090ED010AB7EEC00A84ED0E0BD1F816
:104F7000C830934202D190ED180A01E090ED190A71
:104F8000B7EEC00A84ED100BD1F8E030934202D1A5
:104F900090ED1B0A01E090ED1C0AB7EEC00A84ED0B
:104FA000120BD1F8F830934202D190ED1E0A01E0C5
:104FB00090ED1F0AB7EEC00A84ED140BD1F8103142
:104FC000934202D190ED210A01E090ED220AB7EE62
:104FD000C00A84ED160BD1F82831934202D190ED2E
:104FE000240A01E090ED250AB7EEC00A84ED180B03
:104FF000D1F84011914202D190ED270A01E090EDE5
:10500000280A0025B7EEC00A84ED1A0B94ED0C0BAC
:1050100094ED0A1B94ED082BFDEEC00B0395BDEE3D
:10502000C20BBDEEC11B10EE900A10EE102A00B2AA
:1050300012B2009211EE101A09B2CDE9011094EDEE
:10504000060B94ED021B94ED043BBDEEC00B94EDFA
:10505000002BBDEEC11BFDEEC30B10EE103AFDEEB2
:10506000C21B11EE101A1BB210EE902A09B212B236
:1050700011EE900A00B2FBF74FFA94ED1A0B94ED83
:10508000181B94ED162BFDEEC00BBDEEC11BBDEE43
:10509000C20B10EE901A11EE102A09B2CDE90215DA
:1050A00012B210EE100A00B2CDE9000294ED140B1A
:1050B00094ED101B94ED123BBDEEC00B94ED0E2B46
:1050C000BDEEC11BFDEEC30B10EE102AFDEEC21BA0
:1050D00011EE100A13B210EE901A0AB201B211EEDC
:1050E000904A20B2FBF76AFA7FBD000074090024E1
:1050F0000000C842C40A00245006002400B589B04C
:1051000001AB002002210090012283E807000490F7
:10511000694605900C48FBF79DFC0B48FCF765F9C8
:10512000094800220121FBF71DFC08486946FBF7EE
:1051300091FC0648FCF759F9044800220121FBF7CD
:1051400011FC09B000BD0000CC0200246C03002457
:10515000018841F28832B0F90830C91A914202DD63
:10516000C168491E05E041F28832D14202DAC168C5
:10517000491CC16070470000D44910B5D448D54AD5
:105180000B68B3F9024000EE104AB8EEC00A80ED99
:10519000060A1C8800EE104AB8EE400A80ED090AA3
:1051A000B3F9084000EE104AB8EEC00A80ED0A0AD2
:1051B00093ED030AB8EEC00A80ED0B0A4B68B3F911
:1051C000024000EE104AB8EEC00A80ED0C0A1C88BE
:1051D00000EE104AB8EE400A80ED0F0AB3F908401D
:1051E00000EE104AB8EEC00A80ED100A93ED030AF3
:1051F000B8EEC00A80ED110A8B68B3F9024000EEE8
:10520000104AB8EEC00A80ED120A1C8800EE104A5F
:10521000B8EE400A80ED150AB3F9084000EE104AD6
:10522000B8EEC00A80ED160A93ED030AB8EEC00A84
:1052300080ED170ACB68B3F9024000EE104AB8EED1
:10524000C00A80ED180A1C8800EE104AB8EE400A29
:1052500080ED1B0AB3F9084000EE104AB8EEC00A10
:1052600080ED1C0A93ED030AB8EEC00A80ED1D0A1A
:105270000B69B3F9024000EE104AB8EEC00A80EDA7
:105280001E0A1C8800EE104AB8EE400A80ED210A82
:10529000B3F9084000EE104AB8EEC00A80ED220AC9
:1052A00093ED030AB8EEC00A80ED230A4B69B3F907
:1052B000024000EE104AB8EEC00A80ED240A1C88B5
:1052C00000EE104AB8EE400A80ED270AB3F9084014
:1052D00000EE104AB8EEC00A80ED280A93ED030AEA
:1052E000B8EEC00A80ED290A8969B1F9023000EEF2
:1052F000103AB8EEC00A80ED2A0A0B8800EE103A88
:10530000B8EE400A80ED2D0AB1F9083000EE103AEF
:10531000B8EEC00A80ED2E0A91ED030AB8EEC00A7D
:1053200080ED2F0A1168B1F9023000EE103AB8EEA4
:10533000C00A80ED000A0B8800EE103AB8EE400A71
:1053400080ED030AB1F9083000EE103AB8EEC00A59
:1053500080ED040A91ED030AB8EEC00A80ED050A5B
:105360005168B1F9023000EE103AB8EEC00A80ED93
:10537000300A0B8800EE103AB8EE400A80ED330A8E
:10538000B1F9083000EE103AB8EEC00A80ED340AE8
:1053900091ED030AB8EEC00A80ED350A9168B1F9C3
:1053A000023000EE103AB8EEC00A80ED360A0B88E3
:1053B00000EE103AB8EE400A80ED390AB1F9083033
:1053C00000EE103AB8EEC00A80ED3A0A91ED030AF9
:1053D000B8EEC00A80ED3B0AD168B1F9023000EEA8
:1053E000103AB8EEC00A80ED3C0A0B8800EE103A85
:1053F000B8EE400A80ED3F0AB1F9083000EE103AED
:10540000B8EEC00A80ED400A91ED030AB8EEC00A7A
:1054100080ED410A1169B1F9023000EE103AB8EEA0
:10542000C00A80ED420A0B8800EE103AB8EE400A3E
:1054300080ED450AB1F9083000EE103AB8EEC00A26
:1054400080ED460A91ED030AB8EEC00A80ED470AE6
:105450005169B1F9023000EE103AB8EEC00A80EDA1
:10546000480A0B8800EE103AB8EE400A80ED4B0A6D
:10547000B1F9083000EE103AB8EEC00A80ED4C0ADF
:1054800091ED030AB8EEC00A80ED4D0A9169B1F9B9
:10549000022000EE102AB8EEC00A80ED4E0A0A88FB
:1054A00000EE102AB8EE400A80ED510AB1F908204A
:1054B00000EE102AB8EEC00A80ED520A91ED030A00
:1054C000B8EEC00A80ED530A10BD0000800500242C
:1054D00074090024A00500242DED028B8AB000255C
:1054E0000095019502950395FCF740F901248DF88C
:1054F0000C401F208DF8080087218DF809108DF8C9
:105500000D4068468DF800408DF80A508DF80E5019
:105510008DF8015001958DF80B508DF80F50FCF768
:10552000F7F80420FCF730F9FCF7A4F8FFF776FB56
:10553000FDF710FDFDF7A4FCFDF770FDFDF7D4FCB1
:105540003448FDF769FBFFF7D9FDFDF78DFD9FEDB1
:10555000328B0121B0EE081BB0EE482BB2EE040BEB
:105560000846FFF7B5F902210120B0EE482BB0EE56
:10557000081BB2EE040BFFF7ABF903210120B0EEDC
:10558000482BB0EE081BB2EE040BFFF7A1F9042183
:105590000120B0EE482BB0EE081BB2EE040BFFF773
:1055A00097F901210220B0EE482BB0EE081BB2EEB5
:1055B000040BFFF78DF90221B0EE482BB0EE081B6B
:1055C000B2EE040B0846FFF783F903210220B0EE88
:1055D000482BB0EE081BB2EE040BFFF779F904215B
:1055E0000220B0EE482BB0EE081BB2EE040BFFF722
:1055F0006FF90123069407941A46089419460994F2
:10560000184605940294039404940094019400F0C5
:105610002DF8FEE70C0400247B14AE47E17A843FAA
:10562000114901F5947001601031416010318160C1
:105630001031C1601031016110314161103181615F
:105640001031C161203010310160103141601031E2
:1056500081601031C1601031016110314161103140
:1056600081611031C16170475804002405EE100AB1
:105670002948DDED093AF8EEC55A05EE101ADDEDC0
:10568000080A9DED074AB8EEC56A05EE102ADDED61
:10569000064A9DED052AF8EEC56A05EE103A9DED25
:1056A000041ADDED032A9DED023ADDED011A9DEDB0
:1056B000000AB8EEC55AC0ED085AB8EEC00A80ED2F
:1056C0000E6AF8EEE11AC0ED146AB8EEC33A80ED46
:1056D0001A5AF8EEE22A80ED200AB8EEC11AC0ED9F
:1056E000261AB8EEC22A80ED2C3AF8EEE44AC0ED54
:1056F000022AB8EEC44A80ED321AF8EEE00A80EDD4
:10570000382AF8EEE33AC0ED3E4A80ED444AC0ED57
:105710004A0AC0ED503A7047740900244FF04070B7
:10572000E1EE100A704700000001020304050607BD
:10573000080C101418203040000000000000000089
:105740000000000000000000000000000100000058
:105750000200000003000000040000000000000040
:105760000500000000000000000000000000000034
:105770000600000000000000000000000000000023
:1057800007000000000000000102030401020304FE
:1057900006070809B457000800000024A40200000E
:1057A00008030008D0570008A40200242C0F0000B2
:1057B0006403000841320182103C90D0030401FFD1
:1057C00001760B34FA430401A90A323F04000000B9
:04000005080002CD20
:00000001FF
