:020000040800F2
:10000000101A0024E50200084B34000829320008C9
:10001000493400089B040008DD5A00080000000075
:10002000000000000000000000000000195200085D
:100030008505000800000000D54F0008295200087F
:10004000FF020008FF020008FF020008FF0200088C
:10005000FF020008FF020008FF020008FF0200087C
:10006000FF020008FF020008FF020008FF0200086C
:10007000FF020008FF020008FF020008FF0200085C
:10008000FF020008FF020008FF0200088D050008BB
:1000900099050008FF020008A5050008FF020008F6
:1000A000FF020008FF020008FF020008FF0200082C
:1000B000FF020008FF020008FF020008FF0200081C
:1000C000FF020008FF020008FF020008FF0200080C
:1000D000FF020008FF020008FF020008FF020008FC
:1000E000FF020008FF02000800000000FF020008F5
:1000F000FF020008FF020008FF020008FF020008DC
:10010000FF020008FF020008FF020008FF020008CB
:10011000FF020008FF02000885530008FF020008E4
:10012000FF020008FF020008FF020008FF020008AB
:10013000FF020008FF020008FF020008B1050008E6
:1001400000000000000000000000000000000000AF
:10015000FF020008FF020008FF020008FF0200087B
:10016000FF020008FF020008FF020008FF0200086B
:10017000FF020008FF020008FF0200080000000064
:10018000FF020008FF020008FF020008FF0200084B
:10019000FF020008FF020008FF020008FF0200083B
:1001A000FF020008FF020008FF0200080000000034
:1001B000FF020008FF020008FF020008FF0200081B
:1001C000FF020008FF02000800000000000000001D
:1001D0000000000000000000FF0200080000000016
:1001E000000000000000000000000000000000000F
:1001F0000000000000000000FF020008FF020008ED
:10020000FF020008FF02000800000000FF020008D3
:10021000FF020008FF020008FF020008FF020008BA
:10022000FF02000800000000FF02000800000000BC
:10023000FF020008FF02000800000000FF020008A3
:10024000FF020008FF020008FF020008FF0200088A
:10025000FF020008FF020008FF020008FF0200087A
:10026000FF020008FF020008FF020008FF0200086A
:10027000FF020008FF020008FF0200080000000063
:10028000FF020008FF020008FF020008FF0200084A
:1002900000000000FF020008FF020008000000004C
:1002A00000000000FF020008FF020008FF02000833
:1002B000FF020008FF020008FF020008FF0200081A
:1002C000FF020008FF020008FF020008DFF810D05C
:1002D00000F0A6F8004800476D810008AFF30080E9
:1002E000101A00240648804706480047FEE7FEE74C
:1002F000FEE7FEE7FEE7FEE7FEE7FEE7FEE7FEE7D6
:10030000C5520008CD0200082DE9F05F0546002027
:1003100092469B4688460646814640241BE0284676
:1003200041464746224600F053F853465A46C01A03
:10033000914110D311461846224600F03AF82D1A82
:1003400067EB01084F4622460120002100F031F8FA
:1003500017EB00094E41201EA4F10104DFDC4846E2
:1003600031462A464346BDE8F09F40EA01039B0719
:1003700003D009E008C9121F08C0042AFAD203E01A
:1003800011F8013B00F8013B521EF9D27047D2B27E
:1003900001E000F8012B491EFBD270470022F6E76E
:1003A00010B513460A4604461946FFF7F0FF2046EB
:1003B00010BD202A04DB203A00FA02F10020704729
:1003C0009140C2F1200320FA03F319439040704793
:1003D000202A04DB203A21FA02F00021704721FA9A
:1003E00002F3D040C2F12002914008431946704701
:1003F00070B521F0004303430CD0C1F30A5500242B
:10040000D5EB040564EB0403D617AD1AB34102DB48
:100410000020014670BD201841EB025170BD000064
:10042000064C074D06E0E06840F0010394E8070041
:1004300098471034AC42F6D3FFF74CFF488D0008C4
:10044000688D000870B58C1810F8015B15F0070373
:1004500001D110F8013B2A1106D110F8012B03E05D
:1004600010F8016B01F8016B5B1EF9D12B0705D465
:100470000023521E0DD401F8013BFAE710F8013BAE
:10048000CB1A921C03E013F8015B01F8015B521ECA
:10049000F9D5A142D8D3002070BDFEE72DE9F04187
:1004A000154DDDE9066414B1012C03D005E04FF4CD
:1004B000007401E040F2FF142C60104C00276F60C4
:1004C0004FF4002CAF604FEA112EC5F80CC0170A8C
:1004D00084F800E01D0A61704FEA162CA770E270E4
:1004E00022462571637184F806C0E671BDE8F041CB
:1004F000014900F0D3B900000805002419000024C8
:10050000F0B50B78012402229BB14F7803261A4DD7
:100510001A4B012FFFEE000A0DD0022FB7EE001A82
:100520000ED010EE106A9E421BDB4C7080ED001A5C
:10053000F0BD0C701DE010EE104AAC4208D210E085
:1005400010EE102A9A42F0DA10EE102AAA4203D3D3
:100550004E70C0ED000AF0BD9FED090A80ED000A63
:10056000F0BD10EE100A9842FADA10EE100AA84216
:10057000F6D24A70F0BD000000409CC500409C458A
:1005800000000000704772B6FEE70000014800F06E
:100590000DBB0000E8020024014800F007BB00008A
:1005A00088030024014800F001BB000088030024F8
:1005B000044810B500F0FAFABDE81040024800F017
:1005C000F5BA0000E802002488030024F0B50368AF
:1005D0004FF6FC716D4C426BD3F884508D4345EA65
:1005E0008205C3F88450036853F8845F068F25F4AE
:1005F0007F0545EA06451D60836B654D9F180268BF
:10060000D2F888308B4343EA8703C2F88830026807
:1006100052F8883F868F23F4FE0343EA06431360B3
:10062000066856F8A03FC26B8B4307EB420243EAD1
:1006300082033360076857F8A03FB0F8406023F4A6
:10064000FE0343EA06433B60D0E9103603FB062273
:100650000368D3F8B0608E4346EA8206C3F8B06000
:100660000368B0F84860D3F8B07027F4FE0747EA93
:100670000646C3F8B060D0E91267036806FB07229C
:10068000D3F8AC608E4346EA8206C3F8AC60D0E98A
:100690001467036806FB0722D3F8F0608E4346EA2E
:1006A0008206C3F8F0600368B0F85860D3F8F070C1
:1006B00027F47C1747EA0646C3F8F0600368876DA5
:1006C00053F8C06F02EB47028E4346EA820119607D
:1006D0000168B0F85C20D1F8C03023F47C1343EA01
:1006E0000242C1F8C020016890F86020D1F8C03003
:1006F00023F07C5343EA0262C1F8C020416B04EB53
:100700008101C166826B01EB82020267C36B02EB5F
:10071000C3024267D0E91034634302EB830282676D
:10072000D0E91234634302EB8302C267D0E9143488
:10073000634302EB8302C0F88020836D02EBC303A6
:10074000C0F88430C46D826E544303EB8403C0F858
:100750008830046E544303EB8402C0F89020AA4210
:100760000AD9D0F89C20032142F02002C0F89C2036
:1007700080F898100120F0BD002200E004C1D0F8FC
:1007800090308B42FAD80020F0BD000000AC004051
:10079000FCD30040F0B58E680C69D1E9005744EAFB
:1007A0000604DFB145F080452C43866ED1E906C5CD
:1007B0004F695E4391F8203045EA0C05D0F884E09B
:1007C0000020D1F80CC047EA0363114F1D430EEB24
:1007D000860345EA0C05E3E8024511E044EA854456
:1007E000E3E71418155CA67894F803C094F801E0C8
:1007F000360445EA0C6446EA0E252C43001D10C35E
:10080000CC6807EB144424788442EAD8F0BD000099
:100810006C8A000810B590F89830012B09D0022B93
:1008200007D0D0F89C1041F00201C0F89C100120C4
:1008300010BD03689C6D0C4203D1DC6D44F00104D3
:1008400004E09C6D31EA04041FD00324DC658B05B1
:1008500005D50368D3F8E0401443C3F8E0404B05E6
:1008600005D50368D3F8E4401443C3F8E4400068B6
:10087000084A01EA0203446D074A1C4344651068B4
:1008800040EA91701060002010BDDC6D44F002045D
:10089000DCE70000FFFFCF3F14A8004070B504461E
:1008A00090F89800022804D0D4F89C0040F008008A
:1008B0000DE02068D0F8C03013F07C5F0BD0D0F88A
:1008C000C4309B020CD5D4F89C0040F40070C4F8EE
:1008D0009C00012070BDD4F89C0040F02000F6E799
:1008E000D0F8C400C0F3044520462B46FFF752FF62
:1008F00021680120A840C1F8D000C4F8940000206D
:1009000070BD704790F89830012B07D0D0F89C103C
:1009100041F00401C0F89C100120704761B10068EB
:10092000012913D0D0F8B01021F0FE4141EA026154
:10093000C0F8B010002070470068D0F8F01021F027
:100940007C5141EA0261C0F8F010F3E7D0F8A01042
:1009500021F0FE4141EA0261C0F8A010EAE770B55B
:1009600090F89820012A09D0022A07D0D0F89C10CC
:1009700041F00201C0F89C10012070BD0B68CA68EC
:1009800083B10B69072A43EA427325D00C7A4A697E
:1009900042EA84724968006F00EBC100C0E900328E
:1009A000002070BD072A0DD00C7AD6060D8A4B693F
:1009B00043EA847246EA0543C06E49681A4340F828
:1009C0002120EDE70B8A4FF06055D1E9062442EA79
:1009D000034245EA0423EFE78A69DBE730B590F884
:1009E0009850039C012D07D0D0F89C1041F00401D1
:1009F000C0F89C10012030BD0D01016845EA82005D
:100A000040EA43002043C1F88000002030BD704719
:100A100070470000F0B590F898400025022C04D0F3
:100A2000D0F89C1041F008012BE040294FF000461F
:100A300005D0412929D0046D8C4219D942E00468BF
:100A4000D4F8A07017F4FE0F12D0D4F8A4707F066B
:100A500013D0D4F8A470FF0105D5D4F8A070B6EB7C
:100A6000D77F00D10125D4F8A470466F446C24E0F0
:100A7000D0F89C1041F0200103E0D0F89C1041F424
:100A80008071C0F89C100120F0BD0468D4F8B070EB
:100A900017F4FE0FECD0D4F8B4707F06EDD0D4F884
:100AA000B470FF0105D5D4F8B070B6EBD77F00D194
:100AB0000125D4F8B470866FC46CC7F305273D4494
:100AC0006C4302E0446DC66F4C4306EB8404266819
:100AD00016F080465660266836D026F060461660CE
:100AE000D4F800C000262F4F0CF0005CC2F808C0FC
:100AF000D4F800C00CF0004CC2F810C0B4F804C028
:100B00001FFA8CFCC2F81CC0D4F804C00CF4702C82
:100B1000C2F80CC0D4F804C00CF4801CC2F814C095
:100B2000D4F804C00CF4001CC2F818C0D4F804C0F7
:100B3000CCF3066CC2F820C0D4F804C008344FEAE5
:100B4000DC7CC2F824C008E0C6F38A46C7E700BFD1
:100B500014F806C003F806C0761CD2F80CC007EBE8
:100B60001C4C9CF800C0B445F2D840290AD0412959
:100B70000CD020294FF001020CD200688A40C0F846
:100B800098200DE00068C0F8A85009E00068C0F89F
:100B9000B85005E0006801F01F018A40C0F89C20B1
:100BA0000020F0BD6C8A0008704700002DE9FF5F4F
:100BB000DFF80CB304460BF10401DBF800002568F4
:100BC0000F68AA468007D5F85090696DD5F8508017
:100BD0006E6D2A6DD5F854C02B6D00EA87700090B9
:100BE00009F470496F6D286D01EA09010191DAF885
:100BF0005410DAF85490DAF8505008F00F0806EA6A
:100C00000806029602F0F00203F071536FEA09063B
:100C10001F4000F060700CEA020CCDF80CC0F20529
:100C200001EA00090CD4E843C00509D400214FF4BF
:100C30008073CAF85030CBF800102046FFF7B4FF9D
:100C4000700512D4E84340050FD4206800234FF408
:100C50008068D0F8DC20D0F8E410C0F85080CBF8E1
:100C600000301140204600F02BFBDFF858A200981E
:100C700050B12268830F00EA0A001065CBF80030FB
:100C800020460099FFF73DFE019850B12268830F7E
:100C900000EA0A001065CBF800302046019900F008
:100CA00011FB029850B12268830F00EA0A00106518
:100CB000CBF800302046029900F0D0FA039850B1EA
:100CC0002268830F00EA0A001065CBF80030204646
:100CD000039900F0D5FA30050CD4E843000509D497
:100CE000236800204FF400621A65CBF8000020460C
:100CF00000F0E9FAB00512D4E84380050FD420686B
:100D000000234FF40078D0F8D820D0F8E010C0F8D5
:100D10005080CBF800301140204600F0D2FA30036A
:100D20000CD4E843000309D4236800204FF40022C8
:100D30001A65CBF80000204600F08EFAF0030CD4C0
:100D4000E843C00309D4236800204FF480321A65B9
:100D5000CBF80000204600F0B2FA70030CD4E84350
:100D6000400309D4226800204FF480231365CBF898
:100D70000000204600F0A2FAB0030FD4E84380033D
:100D80000CD4236800204FF400321A65CBF8000021
:100D9000D4F89C0040F08000C4F89C00B9F1000F2A
:100DA0000BD022684FEA997309EA0A001065CBF864
:100DB000003049462046FFF72BFE5FB12268BB0F8B
:100DC00007EA0A001065CBF80030D4F89C003843DD
:100DD000C4F89C003C492068884268D1606881461C
:100DE0008068800763D0D9F82060D9F82410D9F83A
:100DF0002080D9F82400D9F820C0D9F82470D9F877
:100E00002030D9F82450D9F8202003F4FC4306F010
:100E10000F0AD9F824601D40D9F824B008F0300832
:100E20000CF4C07C02F4F02211EA0A0100EA08087E
:100E300007EA0C0706EA0206D9F820A004D0C9F890
:100E40002010204600F037FAB8F1000005D06168A4
:100E500008624146204600F030FA6FEA0B00400677
:100E60000ED46FEA0A0040060AD460684021C36BC2
:100E7000C26B01622046190C02F03F0200F01CFA1E
:100E80002FB1606807623946204600F013FA35B189
:100E900060680562D4F89C002843C4F89C0036B111
:100EA00060680662D4F89C003043C4F89C00D4F813
:100EB0009C00002802D02046FFF7A9FDBDE8FF9F57
:100EC00010A80040FFFFCF3F00A000402DE9F041F7
:100ED00094B08D494C2204466846FFF746FA64B147
:100EE0008A4D2068A84202D100F58070606094F8B5
:100EF00098004FF0000820B108E0012014B0BDE8D0
:100F0000F081204684F8998000F002F92068816918
:100F100021F01001816100F0EBFA0327064604E09E
:100F200000F0E6FA801B0A2811D8206880690007C3
:100F3000F6D42068816941F00101816100F0D8FA9E
:100F400006460DE000F0D4FA801B0A2808D9D4F830
:100F50009C0040F00100C4F89C0084F89870CCE735
:100F600020688069C007EDD02068816941F00201E6
:100F70008161207C01282068816937D041F04001DF
:100F80008161607C01282068816932D021F4804130
:100F90008161A07C0128206881692DD041F48051B5
:100FA00081612068A268816921F4407111438161E7
:100FB0002068816921F0A40181612068016921F024
:100FC00010010161E068012819D010B302281BD07C
:100FD0002068816941F0800181612068016941F0E8
:100FE00010010161E06803280ED012E021F04001F9
:100FF000C6E741F48041CBE721F48051D0E7206877
:10100000816941F0040103E02068816941F0200119
:101010008161207E6FF0FF02D4E90773A68A110276
:10102000400602EB0727A0F10070384327685B1EDB
:10103000184301EB06463043F861A068B0F5407FE5
:1010400011D104F12800A68C6FF00F0C89C801EBB8
:101050000641401E02EB0322104322680CEB0713EB
:1010600018430843D060206E30B12068626ED0F81B
:10107000C0101143C0F8C010D4E917126846D1421D
:1010800009D02168A36E51F8C82F50F8233022F000
:1010900007021A430A60216C49B12168626C51F859
:1010A000BC3F50F8226023F0070232430A60A16C73
:1010B00051B12168E36C51F8BC2F50F8233022F075
:1010C000700242EA03120A60216D51B12168626D1B
:1010D00051F8BC3F50F8220023F4E06242EA0020BD
:1010E00008602068A84204D16068816821F003018B
:1010F0008160C4F894800121C4F89C8084F8981021
:101100002046FFF763FAF9E67C8A000800A0004059
:101110002DE9F043B5B0804614212EA8FFF73EF923
:10112000B8216846FFF73AF9464D0026D8F8000086
:101130004FF08051444A0C3D414F4FF00208414C62
:1011400090424FF0090930D100201B914A13CDE99C
:101150000020684600F044FC08B1FFF714FA386834
:10116000401C3860012807D1206840F4807020605E
:10117000206800F480703390286840F008002860F0
:10118000286803222E922EA900F00800CDE92F86B0
:101190003196CDE932902D4800F096F800220121D9
:1011A000132000F06BFA13203CE0294A904243D10F
:1011B00000201B914FF40042CDE90020684600F06A
:1011C0000FFC08B1FFF7DFF93868401C38600128D0
:1011D00007D1206840F480702060206800F480709F
:1011E0003390286840F00200286028684FF440528D
:1011F0002E922EA900F00200CDE92F863196CDE97E
:101200003290144800F060F800221420114600F0DB
:1012100035FA142000F024FA00221620114600F0BE
:101220002DFA162000F01CFA00223F20114600F093
:1012300025FA3F2000F014FA35B0BDE8F083000035
:1012400000000024EC44025800A00040000C0258AA
:1012500000A40040000402587047000010B5044686
:101260000548844201D106F0A7FC0448844201D11C
:1012700006F0F4FC10BD0000E802002488030024FE
:10128000704790F89810012907D0D0F89C1041F0D1
:101290000401C0F89C1001207047022180F89810CA
:1012A000002201688B6923F001038B61C0F89C2048
:1012B00010467047704770477047704770477047D7
:1012C00070477047704770472DE9F84F03247A4DF7
:1012D00000234FF001094FF0B04B4FF00F0AE4E04C
:1012E00009FA03F6324078D00F7907F00307012F8F
:1012F00001D0022F1AD187684FEA430ED1F80CC0F3
:1013000004FA0EF827EA08070CFA0EFC4CEA070C60
:10131000C0F808C0476891F804C0B743CCF3001C7C
:101320000CFA03FC4CEA070CC0F804C00E79F64333
:10133000B6070BD0C6684FEA43088F6804FA08FC6A
:1013400026EA0C0607FA08F73743C7600E7906F05D
:101350000306022E12D1DE080F694FEA437C00EB30
:101360008606B646366A4FEADC6C0AFA0CF807FACB
:101370000CF726EA08063743CEF820700F79066886
:101380004FEA430807F0030704FA08FC07FA08F7D6
:1013900026EA0C06374307604E6816F4403F1CD01F
:1013A000464E376847F00207376036689F0706F0F9
:1013B0000206009623F0030606F1B046B6463F0F3C
:1013C000D6F80864DFF8F8800AFA07FC404526EAF8
:1013D0000C0603D14FF0000C3AE065E0DFF8E4C002
:1013E000604502D14FF0010C32E0DFF8DCC060450F
:1013F00002D14FF0020C2BE0DFF8D0C0604502D1E3
:101400004FF0030C24E0DFF8C8C0604502D14FF074
:10141000040C1DE0DFF8BCC0604502D14FF0050CA4
:1014200016E0DFF8B4C0604502D14FF0060C0FE0C3
:10143000DFF8A8C0604502D14FF0070C08E0DFF8E4
:10144000A0C0604502D14FF0090C01E04FF00A0C3A
:101450000CFA07FC4CEA060CCEF808C44F68DBF81F
:101460000060FF0226EA020600D516435F46CBF86D
:101470000060D1F804C0DBF804605FEA8C2C26EA37
:10148000020600D516437E606E684F6826EA0206A3
:10149000BF0300D516436E602E684F6826EA020629
:1014A000FF0300D516432E605B1C0A6832FA03F670
:1014B0007FF416AFBDE8F88F80000058F44402585E
:1014C000000002580004025800080258000C02589C
:1014D000001002580014025800180258001C02584C
:1014E000002402580AB1816170470904FBE700003B
:1014F00001488068704700000400002402488168A9
:10150000027811448160704704000024032010B564
:1015100000F0D4F801F076F80F4A10491468136807
:10152000C4F3032203F00F038A5CC95C02F01F02BC
:1015300001F01F01D0400A4A20FA01F11160094967
:1015400008600F2000F010F808B1012010BD00F075
:1015500079F8002010BD000018440258F08A0008F5
:10156000140000241000002470B50D4D04462878A6
:10157000A0B14FF47A71B1FBF0F00A490968B1FBF0
:10158000F0F001F06EFB48B9102C07D20022214682
:10159000501E00F073F800206C6070BD012070BD1B
:1015A0000400002410000024F0B5154C4378211DE0
:1015B0000A1D23600378F3B143680B60057BC67A8C
:1015C000817A437B2D07847B45EA0665C77B90F8CB
:1015D00009C0067A90F800E045EAC14040EA83403D
:1015E00040EA444040EA074040EA0C2040EA460016
:1015F00040EA0E0001E0002008601060F0BD00002D
:1016000098ED00E0BFF35F8F044800210368034AB0
:1016100023F48033036070321160704724ED00E0E2
:10162000074A40F00100064970321060086840F433
:1016300080300860BFF34F8FBFF36F8F704700009B
:1016400024ED00E0054808B5016841F002010160A1
:10165000006800F00200009008BD0000F444025849
:10166000002809DB410900F01F028900012001F177
:10167000E0219040C1F80001704700000E4BF0B42B
:101680001B680D46C3F30223C3F10706042E00D9DD
:101690000426191D072901D2002300E0DB1E0124C6
:1016A00004FA06F19C40491E2940641E99401440EA
:1016B0002143F0BC04F02BBA0CED00E0064900F029
:1016C000070210B54FF6FF040868044B204040EABB
:1016D00002201843086010BD0CED00E00000FA0580
:1016E000134970B50A68D243520705D5096801F05D
:1016F0000701814213D118E00A6822F00702024371
:101700000A60FFF7F5FE0A4D4FF47A760446083D6D
:1017100007E000BFFFF7ECFE001BB04201D901203B
:1017200070BD2868C0438004F4D4002070BD000060
:101730000C48025810B500F01FFF05490968054A1A
:10174000C1F30211515C01F01F01C84010BD00003F
:1017500020440258F08A0008494930B5484C0B1D16
:101760000A68143409681D68246802F00303C5F38D
:101770000012C1F30531C4F3CC04002914FB02F2BA
:1017800000EE102AF8EE400A75D03F4A9FED3D1A50
:10179000B7EE000A6BB1DFED3D1A012B01D0022B31
:1017A00064D002EE101A1168F8EE422A81EEA22AE5
:1017B00021E0334C283C23689B0612D5344B246827
:1017C00001EE901A1168C4F3C104F8EE612AE340F7
:1017D00001EE903AC1F30801F8EE611A81EEA22AF7
:1017E0000BE001EE901ADFED2B2A00BFF8EE611A34
:1017F000116882EEA12AC1F3080101EE901A116866
:10180000F8EE611A40EE811A71EE800A62EE200A4B
:10181000C1F3462101EE101AB8EE411A31EE001A5A
:10182000C0EE811ABCEEE11A80ED001A1168C1F316
:10183000064101EE101AB8EE411A31EE001AC0EE60
:10184000811ABCEEE11A80ED011A1168C1F306613C
:1018500001EE101AB8EE411A31EE000A80EE801A3D
:10186000BCEEC10A80ED020A30BD04E001EE901A20
:10187000DFED092ABAE70021016041608160F3E7EA
:101880002844025800000039384402580024744AA1
:101890000090D0030024744C20BCBE4B494930B5A5
:1018A000484C0B1D0A681C3409681D68246802F046
:1018B0000303C5F30022C1F30551C4F3CC0400298E
:1018C00014FB02F200EE102AF8EE400A75D03F4AEF
:1018D0009FED3D1AB7EE000A6BB1DFED3D1A012B0B
:1018E00001D0022B64D002EE101A1168F8EE422AE1
:1018F00081EEA22A21E0334C283C23689B0612D5B6
:10190000344B246801EE901A1168C4F3C104F8EE58
:10191000612AE34001EE903AC1F30801F8EE611A42
:1019200081EEA22A0BE001EE901ADFED2B2A00BF18
:10193000F8EE611A116882EEA12AC1F3080101EEE6
:10194000901A1168F8EE611A40EE811A71EE800A61
:1019500062EE200AC1F3462101EE101AB8EE411AD8
:1019600031EE001AC0EE811ABCEEE11A80ED001AC9
:101970001168C1F3064101EE101AB8EE411A31EEBA
:10198000001AC0EE811ABCEEE11A80ED011A11684E
:10199000C1F3066101EE101AB8EE411A31EE000AE9
:1019A00080EE801ABCEEC10A80ED020A30BD04E070
:1019B00001EE901ADFED092ABAE7002101604160CB
:1019C0008160F3E72844025800000039404402587F
:1019D0000024744A0090D0030024744C20BCBE4BF9
:1019E0002DE9FE4F0546DFF800A450F8081B00243F
:1019F000FD4FC943019005F1280026460AF1240A4B
:101A0000009008011DD4686E50B1B0F5801F0CD055
:101A1000B0F5001F0ED0B0F5401F1ED001240FE01E
:101A2000386840F40030386017E00198022103F074
:101A3000D3FA03E00098022103F05EFB04000CD00F
:101A400026462888C043C00523D4A86D05281ED289
:101A5000DFE800F00C11161B1B006A6EDAF80010AC
:101A600021F440111143CAF80010EAE7386840F445
:101A70000030386009E00198002103F0ADFA03E07E
:101A80000098002103F038FB0446C4B100E00124B3
:101A900026462888DFF85083C04308F12C0840050B
:101AA0002FD4D5F8A400B0F5C00F28D010DCB8B101
:101AB000B0F5001F19D0B0F5800F0FD11AE0AA6D54
:101AC000DAF8001021F007011143CAF80010E0E72E
:101AD000B0F5000F13D0B0F5200F10D001240FE0A7
:101AE000386840F40030386009E00198002103F0C4
:101AF00073FA03E00098002103F0FEFA044694B163
:101B000026462888C043000530D4D5F8A800B0F197
:101B1000407F29D011DCC0B1B0F1807F1AD0B0F184
:101B2000007F10D11BE0D5F8A420D8F8001021F4D4
:101B300060011143C8F80010E3E7B0F1806F13D0E3
:101B4000B0F1A06F10D001240FE0386840F40030ED
:101B5000386009E00198002103F03EFA03E00098A4
:101B6000002103F0C9FA044694B126462868DFF83C
:101B700078B2C0430BF1200B80011FD4E86CD8B1C0
:101B800010280FD0202812D0302815D0012414E0BE
:101B9000D5F8A820D8F8001021F0E0611143C8F86A
:101BA0000010E3E7386840F40030386004E0019842
:101BB000022103F011FA044674B126462888C04376
:101BC000C0042BD4E86DB0F5005F20D00DDCA0B1CF
:101BD000B0F5805F0FD115E0EA6CDBF8001021F062
:101BE00030011143CBF80010E8E7B0F5405F13D0A7
:101BF000B0F5804F10D001240FE0386840F4003079
:101C0000386009E00198002103F0E6F903E000984C
:101C1000002103F071FA04468CB126462888C0439F
:101C2000800429D4286EB0F5403F23D010DC08B3DF
:101C3000B0F5803F14D0B0F5003F0FD115E0EA6D4C
:101C4000DAF8001021F4E0411143CAF80010E5E78A
:101C5000B0F5802F0ED0B0F5A02F0BD001240AE0F4
:101C60000198012103F0B8F903E00098012103F085
:101C700043FA044694B126462888C04340042AD437
:101C8000D5F8AC00B0F1405F23D010DC08B3B0F160
:101C9000805F14D0B0F1005F0FD115E02A6EDAF842
:101CA000001021F4E0211143CAF80010E4E7B0F17C
:101CB000804F0ED0B0F1A04F0BD001240AE0019864
:101CC000012103F089F903E00098012103F014FADF
:101CD000044674B126462888C04300041FD4E86E29
:101CE000D8B1B0F1805F0ED0B0F1005F10D0012408
:101CF00014E0D5F8AC20D8F8001021F0E0411143F1
:101D0000C8F80010E7E7386840F40030386004E0B5
:101D10000198012103F060F9044674B12646286851
:101D2000C043C0011ED4A86CD0B101280ED0022837
:101D300011D0032814D0012413E0EA6EDAF8001061
:101D400021F040511143CAF80010E8E7386840F428
:101D50000030386004E00198022103F03DF90446A8
:101D60006CB126462868C043400255D41F4801681C
:101D700041F480710160FFF7BBFB81460EE0AA6C65
:101D8000DBF8001021F003011143CBF80010E9E764
:101D9000FFF7AEFBA0EB090064283BD813480068AE
:101DA000C005F5D5BCBBDFF84090B5F8B01009F11F
:101DB0004409D9F8000001F4407100F440708842F1
:101DC00011D0D9F80010D9F8002021F4407142F464
:101DD0008032C9F80020D9F8002022F48032C9F8F6
:101DE0000020C9F8001003E02C44025800480258B3
:101DF000D5F8B000B0F5807F19D1FFF779FB0290DC
:101E000011E000BFFFF774FB0299411A41F28830DC
:101E1000814208D9032426462878DFF81494C04369
:101E2000C00721D03CE0D9F800008007EAD5D5F8FA
:101E3000B010C1F301200328FE480DD0016821F441
:101E40007C510160B5F8B020D9F80010C2F30B0244
:101E50001143C9F80010DFE7F74A036802EA1112DC
:101E600023F47C511143ECE7A86F182816D005DC49
:101E7000A0B1082808D0102804D10AE020280DD0ED
:101E800028280BD001240AE00198012103F0A4F8CE
:101E900003E00098012103F02FF9044664B12646BF
:101EA0002878C04380071ED4686F062819D2DFE85F
:101EB00000F0160C11161616AA6FD9F8001021F0B2
:101EC00038011143C9F80010EAE70198012103F035
:101ED00083F803E00098012103F00EF904467CB179
:101EE00000E0012426462878C04340071FD4D5F8D7
:101EF0009000062819D2DFE800F0160C111616160D
:101F00006A6FD9F8001021F007011143C9F80010D9
:101F1000E9E70198012103F05FF803E0009801214F
:101F200003F0EAF80446A4B100E00124264628782C
:101F3000C04380062BD4D5F88C00B0F1405F24D08C
:101F400011DC10B3B0F1805F15D0B0F1005F10D19B
:101F500016E0D5F89020D8F8001021F007011143C1
:101F6000C8F80010E3E7B0F1804F0ED0B0F1A04FF9
:101F70000BD001240AE00198002103F02DF803E0C2
:101F80000098022103F0B8F8044694B12646287858
:101F9000C04340062BD4D5F89800B0F5406F24D04C
:101FA00011DC10B3B0F5806F15D0B0F5006F10D113
:101FB00016E0D5F88C20D9F8001021F0E04111434B
:101FC000C9F80010E3E7B0F5805F0ED0B0F5A05F70
:101FD0000BD001240AE00198002102F0FDFF03E08C
:101FE0000098022103F088F8044694B12646287828
:101FF000C04300062BD4D5F89C00B0F5C04F24D0C8
:1020000011DC10B3B0F5005F15D0B0F5804F10D1E2
:1020100016E0D5F89820D8F8001021F4E0511143CB
:10202000C8F80010E3E7B0F5004F0ED0B0F5204F30
:102030000BD001240AE00198002102F0CDFF03E05B
:102040000098022103F058F8044654B12646287837
:10205000C04300071ED4D5F88000B0F5805F0AD0D9
:102060000FE0D5F89C20D8F8001021F4604111430E
:10207000C8F80010EBE70098022103F03DF800B12A
:102080000126D5F88020D9F8001021F440511143E1
:10209000C9F800102878C043C00613D4D5F89400BE
:1020A000B0F5807F05D10098022103F025F800B13A
:1020B0000126D5F89420D8F8001021F4407111437E
:1020C000C8F800102868C043000316D4D5F8A00053
:1020D00038B1B0F5803F09D0B0F5003F0BD00124F6
:1020E0000AE00198002102F077FF03E00098022146
:1020F00003F002F804468CB126462868C04340032A
:1021000022D4D5F88400B0F5801F11D0B0F5001F9F
:1021100013D0B0F5401F15D0012414E0D5F8A0204D
:10212000D8F8001021F440311143C8F80010E4E75A
:10213000386840F40030386004E00098012102F073
:10214000DBFF04465CB126462868C043C0031CD4AC
:10215000286D70B1B0F5803F10D0012414E0D5F89F
:102160008420D9F8001021F440111143C9F800105F
:10217000EAE7386840F40030386004E00198022152
:1021800002F02AFF0446DCB126462868C0438000DE
:1021900005D40098022102F0AFFF00B101262868A3
:1021A000C04380031BD4E86FB8B1B0F5807F10D076
:1021B000B0F5007F11D0B0F5407F0ED001240DE0C6
:1021C0002A6DDBF8001021F480311143CBF80010A8
:1021D000DBE7386840F4003038607CB32646286876
:1021E000C043C00207D42A6FDAF8001021F0004182
:1021F0001143CAF800102868C043800207D4AA6EB1
:10220000DAF8001021F080711143CAF80010286834
:10221000C043400009D40748016821F4004101602F
:102220000168D5F8B420114301602868C04306E076
:102230005444025810440258CFFFFF001DE007D459
:102240006A6DDBF8001021F040511143CBF800100B
:102250002868C043000208D4D5F88820D9F80010B7
:1022600021F440011143C9F8001028790024C0432B
:1022700000F00100204309D00EE0EA6FD9F8001009
:1022800021F440711143C9F80010A8E7019800211A
:1022900002F0A2FE00B106462879C04300F0020019
:1022A000204305D10198012102F096FE00B10646B7
:1022B0002879C04300F00400204305D10198022191
:1022C00002F08AFE00B106462879C04300F00800FB
:1022D000204305D10098002102F00EFF00B1064610
:1022E0002879C04300F01000204305D10098012157
:1022F00002F002FF00B106462879C04300F020003A
:10230000044304D10098022102F0F6FE00B916B190
:102310000120BDE8FE8F0020FBE700002DE9F05F03
:1023200004000F467ED0DFF83882D8F8000000F0B5
:102330000F00B8420CD2D8F8001021F00F01394339
:10234000C8F80010D8F8000000F00F00B84269D1BA
:102350002078844D40070AD52069296801F0700172
:10236000884204D9296821F070010143296020784E
:102370007C4E361D00070AD56069316801F0700196
:10238000884204D9316821F070010143316020781E
:10239000C0060AD5A069316801F4E061884204D919
:1023A000316821F4E061014331602078DFF8B4B195
:1023B00080060BF1080B0CD5E1695846DBF80020CC
:1023C00002F07002914204D9026822F070020A43BE
:1023D0000260207880070AD5E068296801F00F01C3
:1023E000884204D9296821F00F010143296020782F
:1023F000C0073ED05B49A2682868183920F4706095
:10240000104328606068022818D0032819D0096892
:10241000012819D0490700294ADADFF848A1AAF1B2
:10242000080A00E044E0DAF8002022F00702024344
:10243000CAF80020FFF75CF8814612E009688903BA
:10244000E9E709688901E6E7C905E4E7FFF750F81D
:10245000A0EB090141F28830814202D90320BDE896
:10246000F09F6168DAF8000000F03800B0EBC10FAF
:10247000ECD1207880070AD5E068296801F00F01C7
:10248000884204D2296821F00F0101432960D8F85D
:102490000010404601F00F01B9420BD9016821F04C
:1024A0000F0139430160006800F00F00B84201D00D
:1024B0000120D4E7207840070AD52069296801F077
:1024C0007001884204D2296821F07001014329601B
:1024D000207800070AD56069316801F070018842F0
:1024E00004D2316821F07001014331602078C006C8
:1024F0000AD5A069316801F4E061884204D23168EC
:1025000021F4E06101433160207880060CD5E16957
:102510005846DBF8002002F07002914204D20268B3
:1025200022F070020A43026000F06CF80E492A683B
:102530002B68C2F3032203F00F038A5CC95C02F02C
:102540001F0201F01F01D040084A20FA01F111607A
:102550000749086007480068BDE8F05FFFF704B866
:102560000020005218440258F08A00081400002489
:10257000100000240800002430B500F043F80B4A96
:102580000B490C4B15681468C5F3032204F00F04C3
:102590008A5C095D02F01F0201F01F01D040064A6B
:1025A00020FA01F119601060084630BD1844025845
:1025B000F08A0008140000241000002400B5FFF782
:1025C000DBFF05490968054AC1F30211515C01F0BE
:1025D0001F01C84000BD00001C440258F08A0008DA
:1025E00000B5FFF7C9FF05490968054AC1F3022193
:1025F000515C01F01F01C84000BD00001C4402589E
:10260000F08A0008454970B545480968434B103BBE
:1026100011F0380208D00111082A03D0102A0BD07B
:10262000182A0BD0084670BD19688906FBD51968B1
:10263000C1F3C101C84070BD3A4870BD3749374D3C
:1026400018310C1D24350A68096826682D6802F0C7
:10265000030406F00102C1F30511C5F3CC0515FB17
:1026600002F200EE102AB8EE400AE9B32F4ADFED7D
:102670002E0AB7EE001A6CB1DFED2D1A012C01D035
:10268000022C43D002EE101A1068F8EE422A81EEB6
:10269000A22A1EE01C68A40611D51B6801EE901A40
:1026A0001168C3F3C103F8EE612AD84001EE900A25
:1026B000C1F30800F8EE611A81EEA22A0BE001EEE8
:1026C000901ADFED1C2A00BFF8EE611A106882EE46
:1026D000A12AC0F3080001EE900AF8EE611A40EE5C
:1026E000201A31EE810A00E015E022EE000A10689F
:1026F000C0F34620401C00EE900AF8EE600A80EE1F
:10270000201ABCEEC10A10EE100A70BD01EE901A3C
:10271000DFED092AD8E7002070BD00001044025800
:102720000090D00340787D01000000393044025809
:102730000024744A0024744C20BCBE4B2DE9F05F89
:1027400004007DD0FF4F2078FE4D1837DFF8F4836A
:10275000103DC00748D0D8F80000396800F03800B4
:10276000102815D0182803D101F0030002280FD03B
:102770006068B0F5803F12D010B1B0F5A02F18D02E
:10278000286820F480302860286820F4802009E040
:102790002868800328D560680028D2D024E0286803
:1027A00040F480302860606888B1FEF7A1FE0646DC
:1027B00009E0286840F480202860F0E7FEF798FEE2
:1027C000801B64287ED828688003F7D50CE0FEF7CC
:1027D0008FFE064605E000BFFEF78AFE801B6428D8
:1027E000F0D828688003F7D42078800756D5D8F829
:1027F0000000DFF85093396810F03800A9F10C0997
:102800000ED0182801D188070AD0E068A8B329683B
:1028100021F0190101432960FEF76AFE064628E00F
:102820002868400702D5E06800288AD0E168286857
:1028300020F0190008432860FEF75AFE064606E01D
:10284000D2E000BFFEF754FE801B0228BAD82868E9
:102850004007F7D5217CD9F8002022F0FE4242EA59
:102860000161C9F8001019E0FEF742FE801B022842
:10287000A8D828684007F7D5ECE7FFE7286820F0DC
:1028800001002860FEF734FE064604E0FEF730FE45
:10289000801B022896D828684007F7D42078C00605
:1028A00046D5D8F80000DFF89C92396800F038006F
:1028B000A9F10409082812D0182805D101F0030055
:1028C000012800E0CEE00AD0E0690028286820D086
:1028D00040F080002860FEF70BFE064615E02868F1
:1028E000C00502D5E06980287ED194F82010D9F87F
:1028F000002022F07C5242EA0161C9F8001017E082
:10290000FEF7F6FD801B0228A0D82868C005F7D581
:10291000EBE720F080002860FEF7EAFD064604E0C1
:10292000FEF7E6FD801B022890D82868C005F7D482
:102930002078000729D583486169643000298146E1
:10294000016811D041F001010160FEF7D1FD06469A
:1029500005E000BFFEF7CCFD801B022888D8D9F81F
:1029600000008007F6D510E021F001010160FEF7BC
:10297000BFFD064605E000BFFEF7BAFD801B02283A
:1029800070D8D9F800008007F6D42078800623D5C7
:10299000A0690028286810D040F480502860FEF715
:1029A000A7FD064605E000BFFEF7A2FD801B02283A
:1029B00058D828688004F7D50EE020F480502860AD
:1029C000FEF796FD064604E0FEF792FD801B022806
:1029D00048D828688004F7D42078400751D5DFF81C
:1029E0006891D9F8001000E015E141F48071C9F850
:1029F0000010FEF77DFD064605E000BFFEF778FDFE
:102A0000801B64282ED8D9F80000C005F6D54D4E9D
:102A1000A068603601280AD008B1052813D03068B4
:102A200020F001003060306820F0040002E03068DF
:102A300040F001003060A06841F2883A98B1FEF79A
:102A400057FD81460AE0306840F004003060EEE750
:102A5000FEF74EFDA0EB0901514503D83068800711
:102A6000F6D50EE072E0FEF743FD814606E000BFBA
:102A7000FEF73EFDA0EB0901514567D8306880079D
:102A8000F6D4606A00287CD0DFF8B8A0D8F800102F
:102A90000AF1200A4FF6F87B0AF10408C1F3C201DB
:102AA0000329AAF104096DD00228286820F080705B
:102AB000286003D0FEF71CFD044681E0FEF718FDF8
:102AC000064604E0FEF714FD801B022875D828682E
:102AD0008001F7D4E26A40F2F331386854F8283FB5
:102AE000884340EA021018433860217B4FF4FE0C03
:102AF00022894FF0FE47208A4902267D521E401E41
:102B0000A1F5007189B2C2F308021143761E0CEAE6
:102B100000400143484607EA06621143CAF8001024
:102B2000D9F8001021F00101C9F80010D8F80030E0
:102B3000266A23EA0B0343EAC601C8F80010D9F855
:102B4000001004E0104402580048025835E0A26921
:102B500021F00C011143C9F800100168E26921F06D
:102B6000020111430160016841F480310160016894
:102B700041F400310160016841F480210160016885
:102B800001E06CE020E041F001010160286840F0C4
:102B900080702860FEF7ACFC044604E0FEF7A8FC59
:102BA000001B022809D828688001F7D557E000BF2C
:102BB000FEF79EFC001B022802D90320BDE8F09F0F
:102BC00028688001F4D44AE039680128DAF8000066
:102BD00021D0A26A01F0030393421CD1E26AC1F33F
:102BE00005118A4217D1216BC0F30802491E8A429F
:102BF00011D1616BC0F34622491E91420BD1A16BEA
:102C0000C0F30642491E914205D1E16BC0F3066054
:102C1000491E814201D00120D0E7A16C4646D8F878
:102C20000000C0F3CC00814219D0D9F800004D4615
:102C300020F00100C9F80000FEF75AFC4FEA000737
:102C4000FEF756FCB842FBD0A26C306820EA0B00BD
:102C500040EAC2003060286840F00100286000208F
:102C6000ACE7401EB0F1807F10B501D3012010BD4C
:102C70004FF0E02460610F21601702F048FF002050
:102C8000A0610721216110BD7047704770470000A7
:102C9000F0B590F83C20012A41D0224E012480F862
:102CA0003C40022280F83D2002681F4D5368B2422A
:102CB000D2F808C001D0AA4203D14F6823F47003B0
:102CC0003B430F6823F070031F4357600268B24212
:102CD00019D0B2F1804F16D0144B9A4213D0144B36
:102CE0009A4210D0134B9A420DD0AA420BD0124BED
:102CF0009A4208D0114B9A4205D0114B9A4202D009
:102D0000104B9A4204D189682CF0800319439160DA
:102D1000002180F83D4080F83C100846F0BD0220BC
:102D2000F0BD00000000014000040140000400402C
:102D300000080040000C0040001800400040014026
:102D400000E0004000E4004010B5040003D094F817
:102D50003D0010B107E0012010BD002084F83C00C8
:102D6000204600F023F8022084F83D002068211D51
:102D700002F00EFB012084F8480084F83E0084F83D
:102D80003F0084F8400084F8410084F8420084F851
:102D9000430084F8440084F8450084F8460084F831
:102DA000470084F83D00002010BD000008B5006811
:102DB0000B49884212D10B48016841F010010160B3
:102DC00000680022114600F0100000903620FEF747
:102DD00055FCBDE808403620FEF742BC08BD0000A7
:102DE00000100040E844025890F83D10012901D03D
:102DF000012070471A4A022180F83D100168CB6813
:102E000043F00103CB60006890421AD0B0F1804FCC
:102E100017D01449884214D01349884211D013495D
:102E200088420ED0124988420BD01249884208D0FD
:102E30001149884205D01149884202D01049884280
:102E400007D181680F4A1140062906D0B1F5803FAD
:102E500003D0016841F001010160002070470000CB
:102E6000000001400004004000080040000C004049
:102E700000040140001800400040014000E0004014
:102E800000E4004007000100704770B50446006888
:102E900000250169C943890715D4C168C943890759
:102EA00011D4EA1E02610121217720688069800720
:102EB000204602D0FFF7E8FF04E000F0A7F8204624
:102EC00000F0A5F8257720680169C943490717D4A0
:102ED000C168C943490713D402216FF0040202619B
:102EE00021772068806910F4407F204602D0FFF7E8
:102EF000CBFF04E000F08AF8204600F088F8257740
:102F000020680169C943090716D4C168C943090784
:102F100012D404216FF00802026121772068C06991
:102F20008007204602D0FFF7AFFF04E000F06EF804
:102F3000204600F06CF8257720680169C943C9066E
:102F400017D4C168C943C90613D408216FF0100211
:102F5000026121772068C06910F4407F204602D0CA
:102F6000FFF792FF04E000F051F8204600F04FF820
:102F7000257720680169C943C90708D1C168C943D9
:102F8000C90704D1891E0161204600F041F820687C
:102F90000169C943090609D4C168C943090605D4B2
:102FA0006FF0800101612046FFF76FFE2068016924
:102FB000C943C90509D4C168C943090605D46FF4DA
:102FC000807101612046FFF75FFE20680169C943F7
:102FD000490609D4C168C943490605D46FF04001C8
:102FE0000161204600F03CF820680169C943890668
:102FF0000BD4C168C943890607D46FF02001016171
:103000002046BDE87040FFF741BE70BD7047704775
:1030100010B500680D49884216D10D480168491C59
:1030200001600C490C4804F0C3FC04F0EFFE03F00F
:1030300099FF05F039FA00F02DFB01220748BDE8A1
:103040001040D103FEF74EBA10BD00000010004042
:10305000C002002490060024E8020024000C02585C
:10306000704730B590F88410012918D0012280F8FB
:1030700084202421C0F888100022202401680B68D5
:103080000D6823F0005325F001050D6042660168CC
:103090000B60C0F8884080F88420104630BD0220C4
:1030A00030BD70B5044690F8840001281DD001227F
:1030B00084F884202420C4F8880020680568026809
:1030C00022F0010202602068826822F060620A43F6
:1030D0008260204602F0C8F9226820210020156095
:1030E000C4F8881084F8840070BD022070BD70B5EB
:1030F000044690F8840001281DD0012284F8842021
:103100002420C4F8880020680568026822F00102C3
:1031100002602068826822F060420A438260204692
:1031200002F0A2F92268202100201560C4F888105E
:1031300084F8840070BD022070BD10B5040003D077
:10314000D4F8880010B107E0012010BD002084F8F9
:103150008400204600F026F82420C4F88800206867
:10316000016821F001010160204602F083FA012884
:10317000EBD0A06A10B1204602F098F920684168AF
:1031800021F4904141602068816821F02A0181602A
:103190002068016841F0010101602046BDE810404F
:1031A00002F0E8B910B5B4B0044614212EA8FDF71A
:1031B000F5F8B8216846FDF7F1F81849206888420B
:1031C0002AD100201D9002210446CDE90010684656
:1031D000FEF706FC08B1FDF7D6F91148016841F485
:1031E00000310160006800F4003033900C4808386A
:1031F000016841F00801016000682EAB022100F077
:10320000080033906020072283E8130005482EA9A8
:10321000CDE93142FEF758F834B010BD004400400B
:10322000E8440258000C0258FEE70000184800214C
:103230002DE9F041154F1D2581600124076003260B
:10324000C1600A2301740422417484744661C0E998
:103250000635C0E90836C0E90A358463C0E90C3197
:10326000C0E90F12C0E91121C0E91321C0E91521FD
:10327000C0E91712C0E91912FDF728FE002803D093
:10328000BDE8F041FDF77FB9BDE8F08100A0004046
:10329000E8020024184800212DE9F041154F1D25B2
:1032A0008160012407600326C1600A23017404229F
:1032B000417484744661C0E90635C0E90836C0E946
:1032C0000A358463C0E90C31C0E90F12C0E911214D
:1032D000C0E91321C0E91521C0E91712C0E919128C
:1032E000FDF7F4FD002803D0BDE8F041FDF74BB930
:1032F000BDE8F08100A400408803002410B586B02A
:1033000014216846FDF74AF82148016841F004019C
:103310000160016801F004010591016841F080013C
:103320000160016801F080010591016841F002012E
:103330000160016801F002010591016841F040015E
:103340000160016801F040010591016841F001014F
:103350000160016801F001010591016841F0080177
:103360000160006800220B4C802100F008000590ED
:103370002046FEF7B7F8012100228020CDE90001A8
:10338000CDE9021269462046FDF79EFF06B010BD4A
:10339000E0440258001802583EB5104800244FF48B
:1033A0007A710D4BF022009401940294C0E902411D
:1033B0008461C0E90032FFF7C7FC08B1FDF7E3F80C
:1033C0000648694600940294FFF762FC002801D089
:1033D000FDF7D9F83EBD000000100040280400248D
:1033E0001748002110B5154C0C22164B0460C0E99B
:1033F0000131C160C0E904128161C16101624162B1
:103400008162FFF79AFE08B1FDF7BDF80C48002174
:10341000FFF76DFE08B1FDF7B6F809480021FFF788
:1034200040FE08B1FDF7AFF80548FFF71AFE002887
:1034300003D0BDE81040FDF7A6B810BD0044004021
:1034400074040024A0860100FEE7FEE7B7EEC00B7F
:103450003D4A0128F7EEC10BB7EEC21B09D0022886
:1034600015D1082913D2DFE801F0123D444B52591F
:10347000606708290BD2DFE801F00A040B1219205B
:10348000272E82ED1C0AC2ED0E0A82ED001A70474B
:1034900082ED1D0AC2ED0F0A82ED011A704782ED1E
:1034A0001E0AC2ED100A82ED021A704782ED1F0A51
:1034B000C2ED110A82ED031A704782ED200AC2EDB7
:1034C000120A82ED041A704782ED210AC2ED130A36
:1034D00082ED051A704782ED220AC2ED140A82EDD0
:1034E000061A704782ED230AC2ED150A82ED071A0B
:1034F000704782ED240AC2ED160A82ED081A704761
:1035000082ED250AC2ED170A82ED091A704782ED95
:10351000260AC2ED180A82ED0A1A704782ED270AC0
:10352000C2ED190A82ED0B1A704782ED280AC2ED2E
:103530001A0A82ED0C1A704782ED290AC2ED1B0AA5
:1035400082ED0D1A7047000030000024B7EEC00B6A
:103550003D4A0128F7EEC10BB7EEC21B09D0022885
:1035600015D1082913D2DFE801F0123D444B52591E
:10357000606708290BD2DFE801F00A040B1219205A
:10358000272E82ED460AC2ED380A82ED2A1A7047CC
:1035900082ED470AC2ED390A82ED2B1A704782ED9F
:1035A000480AC2ED3A0A82ED2C1A704782ED490AA8
:1035B000C2ED3B0A82ED2D1A704782ED4A0AC2ED38
:1035C0003C0A82ED2E1A704782ED4B0AC2ED3D0A8D
:1035D00082ED2F1A704782ED4C0AC2ED3E0A82ED51
:1035E000301A704782ED4D0AC2ED3F0A82ED311A62
:1035F000704782ED4E0AC2ED400A82ED321A7047E2
:1036000082ED4F0AC2ED410A82ED331A704782ED16
:10361000500AC2ED420A82ED341A704782ED510A17
:10362000C2ED430A82ED351A704782ED520AC2EDAF
:10363000440A82ED361A704782ED530AC2ED450AFC
:1036400082ED371A704700003000002410489FEDCB
:103650000F0A80ED0D0A80ED140A80ED130A80ED4B
:10366000120A80ED110A80ED100A80ED0F0A80ED3C
:103670000E0A80ED0C0A80ED0B0A80ED0A0A80ED3F
:10368000090A80ED080A80ED070A70470000000073
:10369000701200242DE9F047F94FFA4938462DED14
:1036A0000A8BDFEDF91AF94A97ED020A9FEDF82A25
:1036B000DFEDF8AADFEDF88A9FEDF88A9FEDF8AA12
:1036C000FDEEC00A90ED010A90ED009AA0F5D274CB
:1036D000F44D00F5A87610EE900A012802D00228D9
:1036E00032D132E0D4ED3E2A30EE490A95ED853AEA
:1036F00094ED3D1AF0EE620AD5ED693A43EE000A08
:10370000B0EE413A13EE803A23EE0A3A70EE830AA5
:1037100010EE900A884202DDC6ED001A08E010EEB5
:10372000900A904202D986ED002A01E0C6ED000A17
:1037300003EE281A84ED3D1AD5ED770A20EE800AB3
:1037400040EE282AC4ED3E2A8EE097ED031A97ED4D
:10375000053AD5ED5B0AF0EE412A43EE2A2A70EED7
:10376000629AB0EEE90AF4EEC00AF1EE10FA01DB5B
:10377000F0EE489AF4EEC00AF1EE10FA94ED3A0A2F
:10378000D5ED070A10EEA90A20EE0ABA19D294ED77
:10379000390AD5ED230A00EEA90A30EE0B0A10EE25
:1037A000100A884202DDB0EE610A05E010EE100A50
:1037B000904201D9B0EE420AD5ED930A10EE809AFC
:1037C00001E0B0EE489AD4ED3B0AD5ED312A94EDF4
:1037D0003C0A95ED4D3A52EE890A03EE090A60EE75
:1037E0008ABA70EE2B0A10EE900A884202DDC6ED0E
:1037F000011A08E010EE900A904202D986ED012AE3
:1038000001E0C6ED010A97ED040AA74931EE400A2E
:1038100001F12800FCF774FED7ED050A94ED0D0ABE
:1038200030EE200A86ED020AD5ED150A94ED390A2C
:1038300060EEA90A00EEA80A84ED390A94ED3A0A6E
:103840000BEE280A84ED3A0A94ED3B0A0BEEA80A27
:1038500084ED3B0AD5ED3F0A94ED3C0A60EE890AFF
:1038600000EEA80A84ED3C0AB846DFF844929FEDCA
:103870008F9A98ED080A4FF08D47DFED8E9ABDEED6
:10388000C00A10EE100A012802D0022836D136E014
:1038900098ED070AD8ED060A94ED681A95ED7E2A90
:1038A00070EE600AD4ED671AB0EE410AD5ED622AD7
:1038B00002EE200AB0EE612A12EEA02A22EE0A2AB7
:1038C00030EE020A10EE100AB84202DD86ED039ACD
:1038D00008E010EE100A484502D9C6ED039A01E04F
:1038E00086ED030A42EE281AC4ED671A95ED700AB8
:1038F00020EE200A00EE281A84ED681A94E0D8ED34
:10390000090AD8ED0B1A98ED072AB0EE600A95ED7A
:10391000541A01EEAA0A404632EE40BAB0EECB0A83
:10392000B4EEC01AF1EE10FA01DBB0EE48BAB4EE14
:10393000C01AF1EE10FA94ED640A95ED001A11EE3A
:103940000B0A20EE0ACA1BD294ED630A95ED1C1AED
:1039500001EE0B0A30EE0C0A10EE101AB94202DD2D
:10396000B0EE490A05E010EE101A494501D9B0EE53
:10397000690AD0ED06BA95ED8C1A51EE00BA01E055
:10398000F0EE48BA94ED651AD5ED2A1A94ED660A60
:1039900095ED462A11EEAB1A02EE2B0A61EE0ACA29
:1039A00030EE2C0A10EE101AB94202DD86ED049AB0
:1039B00008E010EE101A494502D9C6ED049A01E05C
:1039C00086ED040A384998ED0A0A0E3101F13600F5
:1039D00030EEC00AFCF794FDD8ED0B0A94ED140A02
:1039E00030EE200A86ED050AD5ED0E0A94ED630A45
:1039F00060EE8B0A00EEA80A84ED630A94ED640A77
:103A00000CEE280A84ED640A94ED650A0CEEA80A0F
:103A100084ED650AD5ED380A94ED660A60EEAB0ACE
:103A200000EEA80A84ED660A98ED0E0ABDEEC00A03
:103A300010EE100A012802D0022852D152E098ED6F
:103A40000D0AD8ED0C0A94ED621A95ED7F2A70EEFE
:103A5000600AD4ED611AB0EE410AD5ED632A02EE98
:103A6000200AB0EE612A12EEA02A22EE0A2A30EED7
:103A7000020A10EE100AB8421EDD86ED069A24E016
:103A8000141400240060EA460060EA460060EAC6BA
:103A90000060EAC600F8FF456F12833A000000009C
:103AA0000000C842300000247C1200240000804640
:103AB000000080C6000080C610EE100A484502D9FA
:103AC000C6ED069A01E086ED060A42EE281AC4ED1C
:103AD000611A95ED710A20EE200A00EE281A84ED95
:103AE000621A93E0D8ED0F0AD8ED111A98ED0D2A5D
:103AF000B0EE600A95ED551A01EEAA0A404632EE84
:103B000040BAB0EECB0AB4EEC01AF1EE10FA01DB07
:103B1000B0EE48BAB4EEC01AF1EE10FA94ED5E0AB7
:103B200095ED011A11EE0B0A20EE0ACA1BD294ED94
:103B30005D0A95ED1D1A01EE0B0A30EE0C0A10EE2F
:103B4000101AB94202DDB0EE490A05E010EE101A73
:103B5000494501D9B0EE690AD0ED0CBA95ED8D1A40
:103B600051EE00BA01E0F0EE48BA94ED5F1AD5EDDF
:103B70002B1A94ED600A95ED472A11EEAB1A02EE6E
:103B80002B0A61EE0ACA30EE2C0A10EE101AB94266
:103B900002DD86ED079A08E010EE101A494502D9B9
:103BA000C6ED079A01E086ED070A98ED100AFF4975
:103BB00030EEC00A01F13400FCF7A2FCD8ED110A86
:103BC00094ED130A30EE200A86ED080AD5ED0F0AAF
:103BD00094ED5D0A60EE8B0A00EEA80A84ED5D0AA2
:103BE00094ED5E0A0CEE280A84ED5E0A94ED5F0AFD
:103BF0000CEEA80A84ED5F0AD5ED390A94ED600A4F
:103C000060EEAB0A00EEA80A84ED600A98ED140A93
:103C1000BDEEC00A10EE100A012802D0022836D1EB
:103C200036E098ED130AD8ED120AD4ED5C1A95ED42
:103C3000802A30EE600A94ED5B1AF0EE610AD5ED51
:103C4000642A42EE000AB0EE412A12EE802A22EEE9
:103C50000A2A70EE820A10EE900AB84202DD86ED62
:103C6000099A08E010EE900A484502D9C6ED099A73
:103C700001E0C6ED090A02EE281A84ED5B1AD5EDC3
:103C8000720A20EE800A40EE281AC4ED5C1A94E015
:103C9000D8ED150AD8ED171A98ED132AB0EE600A80
:103CA00095ED561A01EEAA0A404632EE40BAB0EE41
:103CB000CB0AB4EEC01AF1EE10FA01DBB0EE48BA4E
:103CC000B4EEC01AF1EE10FA94ED580A95ED021A0E
:103CD00011EE0B0A20EE0ACA1BD294ED570A95ED9D
:103CE0001E1A01EE0B0A30EE0C0A10EE101AB94241
:103CF00002DDB0EE490A05E010EE101A494501D97F
:103D0000B0EE690AD0ED12BA95ED8E1A51EE00BAF6
:103D100001E0F0EE48BA94ED591AD5ED2C1A94ED65
:103D20005A0A95ED482A11EEAB1A02EE2B0A61EE03
:103D30000ACA30EE2C0A10EE101AB94202DD86EDE6
:103D40000A9A08E010EE101A494502D9C6ED0A9AFF
:103D500001E086ED0A0A954998ED160A891E01F1DF
:103D6000320030EEC00AFCF7CBFBD8ED170A94ED19
:103D7000120A30EE200A86ED0B0AD5ED100A94EDFA
:103D8000570A60EE8B0A00EEA80A84ED570A94EDFC
:103D9000580A0CEE280A84ED580A94ED590A0CEEE4
:103DA000A80A84ED590AD5ED3A0A94ED5A0A60EE54
:103DB000AB0A00EEA80A84ED5A0A98ED1A0ABDEE85
:103DC000C00A10EE100A012802D0022836D136E0CF
:103DD00098ED190AD8ED181AD4ED560A95ED812AF6
:103DE00070EE611A94ED551AB0EE600AD5ED652AB1
:103DF00002EE210AB0EE412A12EEA12A22EE0A2A90
:103E000030EE020A10EE100AB84202DD86ED0C9A7E
:103E100008E010EE100A484502D9C6ED0C9A01E000
:103E200086ED0C0A02EE281A84ED551A95ED730AF8
:103E300020EE210A40EE280AC4ED560A94E0D8ED9F
:103E40001B0AD8ED1D1A98ED192AB0EE600A95EDFF
:103E5000571A01EEAA0A404672EE40BAB0EEEB0ADB
:103E6000B4EEC01AF1EE10FA01DBF0EE48BAB4EE8F
:103E7000C01AF1EE10FA94ED520A95ED031A11EE04
:103E80002B0A20EE0ACA1BD294ED510A95ED1F1A97
:103E900001EE2B0A30EE0C0A10EE101AB94202DDC8
:103EA000B0EE490A05E010EE101A494501D9B0EE0E
:103EB000690A90ED18BA95ED8F1A11EE00BA01E07B
:103EC000B0EE48BA94ED531AD5ED2D1A94ED540A7C
:103ED00095ED492A11EE8B1A02EE0B0A61EE0ACA21
:103EE00030EE2C0A10EE101AB94202DD86ED0D9A62
:103EF00008E010EE101A494502D9C6ED0D9A01E00E
:103F000086ED0D0A294998ED1C0A091F01F13000C0
:103F100030EEC00AFCF7F4FAD8ED1D0A94ED110A50
:103F200030EE200A86ED0E0AD5ED110A94ED510A05
:103F300060EEAB0A00EEA80A84ED510A94ED520A35
:103F40000CEE280A84ED520A94ED530A0CEEA80AEE
:103F500084ED530AD5ED3B0A94ED540A60EE8B0ACA
:103F600000EEA80A84ED540A98ED200ABDEEC00ABE
:103F700010EE100A012802D0022839D139E098ED5C
:103F80001F0AD8ED1E0A94ED501A95ED822A70EEA4
:103F9000600AD4ED4F1AB0EE410AD5ED662A02EE62
:103FA000200AB0EE612A12EEA02A01E08812002455
:103FB00022EE0A2A30EE020A10EE100AB84202DDA2
:103FC00086ED0F9A08E010EE100A484502D9C6EDBA
:103FD0000F9A01E086ED0F0A42EE281AC4ED4F1A3F
:103FE00095ED740A20EE200A00EE281A84ED501A8E
:103FF00093E0D8ED210AD8ED231A98ED1F2AB0EEF0
:10400000600A95ED581A01EEAA0A404632EE40BA0F
:10401000B0EECB0AB4EEC01AF1EE10FA01DBB0EE4E
:1040200048BAB4EEC01AF1EE10FA94ED4C0A95EDD0
:10403000041A11EE0B0A20EE0ACA1BD294ED4B0AA9
:1040400095ED201A01EE0B0A30EE0C0A10EE101A54
:10405000B94202DDB0EE490A05E010EE101A4945FA
:1040600001D9B0EE690AD0ED1EBA95ED901A51EE65
:1040700000BA01E0F0EE48BA94ED4D1AD5ED2E1AD3
:1040800094ED4E0A95ED4A2A11EEAB1A02EE2B0A78
:1040900061EE0ACA30EE2C0A10EE101AB94202DDA7
:1040A00086ED109A08E010EE101A494502D9C6EDC7
:1040B000109A01E086ED100A98ED220AFF4930EED1
:1040C000C00A01F12E00FCF71BFAD8ED230A94ED8B
:1040D000100A30EE200A86ED110AD5ED120A94ED91
:1040E0004B0A60EE8B0A00EEA80A84ED4B0A94EDB1
:1040F0004C0A0CEE280A84ED4C0A94ED4D0A0CEEA5
:10410000A80A84ED4D0AD5ED3C0A94ED4E0A60EE06
:10411000AB0A00EEA80A84ED4E0A98ED260ABDEE21
:10412000C00A10EE100A012802D0022836D136E06B
:1041300098ED250A98ED241AD4ED4A0A95ED832AC4
:1041400030EE411AD4ED491AB0EE600AD5ED672A77
:1041500002EE010AB0EE612A12EE812A22EE0A2A4C
:1041600030EE020A10EE100AB84202DD86ED129A15
:1041700008E010EE100A484502D9C6ED129A01E097
:1041800086ED120A42EE281AC4ED491A95ED750A19
:1041900020EE010A40EE280AC4ED4A0A94E0D8ED68
:1041A000270AD8ED291A98ED252AB0EE600A95ED78
:1041B000591A01EEAA0A404632EE40BAB0EECB0AD6
:1041C000B4EEC01AF1EE10FA01DBB0EE48BAB4EE6C
:1041D000C01AF1EE10FA94ED460A95ED051A11EEAB
:1041E0000B0A20EE0ACA1BD294ED450A95ED211A5E
:1041F00001EE0B0A30EE0C0A10EE101AB94202DD85
:10420000B0EE490A05E010EE101A494501D9B0EEAA
:10421000690AD0ED24BA95ED911A51EE00BA01E089
:10422000F0EE48BA94ED471AD5ED2F1A94ED480AEE
:1042300095ED4B2A11EEAB1A02EE2B0A61EE0ACA7B
:1042400030EE2C0A10EE101AB94202DD86ED139AF8
:1042500008E010EE101A494502D9C6ED139A01E0A4
:1042600086ED130A954998ED280A891E01F12C0064
:1042700030EEC00AFCF744F9D8ED290A94ED0F0A94
:1042800030EE200A86ED140AD5ED130A94ED450AA6
:1042900060EE8B0A00EEA80A84ED450A94ED460A0A
:1042A0000CEE280A84ED460A94ED470A0CEEA80AA3
:1042B00084ED470AD5ED3D0A94ED480A60EEAB0A5D
:1042C00000EEA80A84ED480A7D4A9FED7E1A98ED1B
:1042D0002C0A7D4BDFED7D1ABDEEC00A10EE100AF0
:1042E000012802D0022836D136E0D8ED2B0A98ED0D
:1042F0002A2A94ED440A95ED843A30EEC22AD4ED90
:10430000432AF0EE400AD5ED683A43EE020AB0EED9
:10431000623A13EE823A23EE0A3A70EE830A10EE06
:10432000900A904202DD86ED151A08E010EE900A20
:10433000984202D9C6ED151A01E0C6ED150A43EE02
:10434000282AC4ED432AD5ED760A60EE820A00EEF3
:10435000A80A84ED440A94E098ED2D2AD8ED2F2A7E
:1043600098ED2B3AB0EE420AD5ED5A0A02EEAA0AAF
:10437000414633EE40BAB0EECB0AF4EEC00AF1EE9D
:1043800010FA01DBB0EE48BAF4EEC00AF1EE10FA12
:1043900094ED400AD5ED060A10EE8B0A20EE0ACA0B
:1043A0001BD294ED3F0AD5ED220A00EE8B0A30EEC7
:1043B0000C0A10EE100A904202DDB0EE410A05E050
:1043C00010EE100A984201D9B0EE610AD1ED2ABA76
:1043D000D5ED920A50EE80BA01E0F0EE48BAD4ED85
:1043E000410AD5ED302A94ED420A95ED4C3A52EE51
:1043F000AB0A03EE2B0A60EE8ACA70EE2C0A10EEAE
:10440000900A904202DD86ED161A08E010EE900A3E
:10441000984202D9C6ED161A01E0C6ED160A2749E0
:1044200098ED2E0A091F01F12A0032EE400AFCF72E
:1044300067F8D8ED2F0A94ED0E0A30EE200A86EDCB
:10444000170AD5ED140A94ED3F0A60EE8B0A00EED0
:10445000A80A84ED3F0A94ED400A0CEE280A84ED88
:10446000400A94ED410A0CEEA80A84ED410AD5ED0C
:104470003E0A94ED420A60EEAB0A00EEA80A84ED13
:10448000420A98ED320ABDEEC00A10EE100A012869
:1044900002D0022842D142E098ED310A98ED301A5C
:1044A000D4ED381A95ED862A30EE411AD4ED370A4C
:1044B000D5ED6A2AB0EE610A0AE0000082120024FB
:1044C00000803B4500803B4500803BC500803BC5EC
:1044D00002EE010AB0EE602A12EE812A22EE0A2ACA
:1044E00030EE020A10EE100AB84202DD86ED189A8C
:1044F00008E010EE100A484502D9C6ED189A01E00E
:1045000086ED180A42EE280AC4ED370A95ED780ABE
:1045100020EE010A40EE281AC4ED381A93E0D8EDD7
:10452000330AD8ED351A98ED312AB0EE600A95EDD0
:104530005C1A01EEAA0A404632EE40BAB0EECB0A4F
:10454000B4EEC01AF1EE10FA01DBB0EE48BAB4EEE8
:10455000C01AF1EE10FA94ED340A95ED081A11EE36
:104560000B0A20EE0ACA1BD294ED330A95ED241AE9
:1045700001EE0B0A30EE0C0A10EE101AB94202DD01
:10458000B0EE490A05E010EE101A494501D9B0EE27
:10459000690AD0ED30BA95ED941A51EE00BA01E0F7
:1045A000F0EE48BA94ED351AD5ED321A94ED360A8C
:1045B00095ED4E2A11EEAB1A02EE2B0A61EE0ACAF5
:1045C00030EE2C0A10EE101AB94202DD86ED199A6F
:1045D00008E010EE101A494502D9C6ED199A01E01B
:1045E00086ED190A98ED340AFF4930EEC00A01F150
:1045F0002600FBF785FFD8ED350A94ED0C0A30EE66
:10460000200A86ED1A0AD5ED160A94ED330A60EEFB
:104610008B0A00EEA80A84ED330A94ED340A0CEEFE
:10462000280A84ED340A94ED350A0CEEA80A84EDCC
:10463000350AD5ED400A94ED360A60EEAB0A00EE7D
:10464000A80A84ED360A98ED380ABDEEC00A10EECD
:10465000100A012802D0022836D136E098ED370A38
:1046600098ED361AD4ED320A95ED872A30EE411ACC
:10467000D4ED311AB0EE600AD5ED6B2A02EE010AD4
:10468000B0EE612A12EE812A22EE0A2A30EE020AE8
:1046900010EE100AB84202DD86ED1B9A08E010EE1B
:1046A000100A484502D9C6ED1B9A01E086ED1B0AA7
:1046B00042EE281AC4ED311A95ED790A20EE010A6E
:1046C00040EE280AC4ED320A94E0D8ED390AD8ED5C
:1046D0003B1A98ED372AB0EE600A95ED5D1A01EEAF
:1046E000AA0A404632EE40BAB0EECB0AB4EEC01A87
:1046F000F1EE10FA01DBB0EE48BAB4EEC01AF1EEFA
:1047000010FA94ED2E0A95ED091A11EE0B0A20EE1F
:104710000ACA1BD294ED2D0A95ED251A01EE0B0A5B
:1047200030EE0C0A10EE101AB94202DDB0EE490A62
:1047300005E010EE101A494501D9B0EE690AD0ED36
:1047400036BA95ED951A51EE00BA01E0F0EE48BA8E
:1047500094ED2F1AD5ED331A94ED300A95ED4F2ACA
:1047600011EEAB1A02EE2B0A61EE0ACA30EE2C0AE9
:1047700010EE101AB94202DD86ED1C9A08E010EE28
:10478000101A494502D9C6ED1C9A01E086ED1C0AB3
:10479000954998ED3A0A891E01F1240030EEC00ACD
:1047A000FBF7AEFED8ED3B0A94ED0B0A30EE200A83
:1047B00086ED1D0AD5ED170A94ED2D0A60EE8B0AE1
:1047C00000EEA80A84ED2D0A94ED2E0A0CEE280ABC
:1047D00084ED2E0A94ED2F0A0CEEA80A84ED2F0A20
:1047E000D5ED410A94ED300A60EEAB0A00EEA80A5E
:1047F00084ED300A98ED3E0ABDEEC00A10EE100AB4
:10480000012802D0022836D136E098ED3D0A98ED15
:104810003C1AD4ED2C0A95ED882A30EE411AD4EDDD
:104820002B1AB0EE600AD5ED6C2A02EE010AB0EE4A
:10483000612A12EE812A22EE0A2A30EE020A10EED6
:10484000100AB84202DD86ED1E9A08E010EE100A4A
:10485000484502D9C6ED1E9A01E086ED1E0A42EED9
:10486000281AC4ED2B1A95ED7A0A20EE010A40EEC3
:10487000280AC4ED2C0A92E0D8ED3F0AD8ED411A7F
:1048800098ED3D2AB0EE600A95ED5E1A01EEAA0A97
:1048900032EE40BAB0EECB0AB4EEC01AF1EE10FA26
:1048A00001DBB0EE48BAB4EEC01AF1EE10FA94EDA6
:1048B000280A95ED0A1A11EE0B0A20EE0ACA1BD23D
:1048C00094ED270A95ED261A01EE0B0A30EE0C0A3C
:1048D00010EE100AB84202DDB0EE490A05E010EE13
:1048E000100A484501D9B0EE690AD8ED3CBA95EDF9
:1048F000961A51EE00BA01E0F0EE48BA94ED291A8A
:10490000D5ED341A94ED2A0A95ED502A11EEAB1A22
:1049100002EE2B0A61EE0ACA30EE2C0A10EE100AE3
:10492000B84202DD86ED1F9A08E010EE100A4845F5
:1049300002D9C6ED1F9A01E086ED1F0A98ED400AE4
:104940002948A11D1E3030EEC00AFBF7D9FDD8ED75
:10495000410A94ED0A0A30EE200A86ED200AD5EDD0
:10496000180A94ED270A60EE8B0A00EEA80A84ED7F
:10497000270A94ED280A0CEE280A84ED280A94ED03
:10498000290A0CEEA80A84ED290AD5ED420A94ED15
:104990002A0A60EEAB0A00EEA80A84ED2A0A98ED16
:1049A000440A124FDFF84C90BDEEC00A9FED109AFA
:1049B000DFED119A10EE100A012802D0022841D131
:1049C00041E098ED430AD8ED420A94ED261A95EDA0
:1049D000892A70EE600AB0EE410AD4ED251AD5EDB1
:1049E0006D2A02EE200A09E07A1200240050C34624
:1049F0000050C3460050C3C60050C3C6B0EE612A83
:104A000012EEA02A22EE0A2A30EE020A10EE100A56
:104A1000B84202DD86ED219A08E010EE100A484502
:104A200002D9C6ED219A01E086ED210A42EE281A4C
:104A3000C4ED251A95ED7B0A20EE200A00EE281A17
:104A400084ED261A94E0D8ED450AD8ED471A98ED82
:104A5000432AB0EE600A95ED5F1A01EEAA0A4046BD
:104A600032EE40BAB0EECB0AB4EEC01AF1EE10FA54
:104A700003DBB0EE48BA84ED248AB4EEC01AF1EE3E
:104A800010FA94ED220A95ED0B1A11EE0B0A20EEA6
:104A90000ACA1BD294ED210A95ED271A01EE0B0AE2
:104AA00030EE0C0A10EE101AB94202DDB0EE490ADF
:104AB00005E010EE101A494501D9B0EE690AD0EDB3
:104AC00042BA95ED971A51EE00BA01E0F0EE48BAFD
:104AD00094ED231AD5ED351A94ED240A95ED512A5B
:104AE00011EEAB1A02EE2B0A61EE0ACA30EE2C0A66
:104AF00010EE101AB94202DD86ED229A08E010EE9F
:104B0000101A494502D9C6ED229A01E086ED220A23
:104B100098ED460AEE48211D30EEC00AFBF7F0FC86
:104B2000D8ED470A94ED090A30EE200A86ED230AF3
:104B3000D5ED190A94ED210A60EE8B0A00EEA80A61
:104B400084ED210A94ED220A0CEE280A84ED220A53
:104B500094ED230A0CEEA80A84ED230AD5ED430A4E
:104B600094ED240A60EEAB0A00EEA80A84ED240A54
:104B700098ED4A0ABDEEC00A10EE100A012802D0D4
:104B8000022836D136E098ED490A98ED481AD4ED5E
:104B9000201A95ED8A2A30EE411AD4ED1F0AB0EEA4
:104BA000610AD5ED6E2A02EE010AB0EE602A12EE1D
:104BB000812A22EE0A2A30EE020A10EE100AB842CA
:104BC00002DD86ED249A08E010EE100A484502D96D
:104BD000C6ED249A01E086ED240A42EE280AC4EDCF
:104BE0001F0A95ED7C0A20EE010A40EE281AC4ED5A
:104BF000201A95E0D8ED4B0AD8ED4D1A98ED492AC8
:104C0000B0EE600A95ED601A01EEAA0A404632EE57
:104C100040BAB0EECB0AB4EEC01AF1EE10FA03DBE4
:104C2000B0EE48BA84ED1EBAB4EEC01AF1EE10FA36
:104C300094ED1C0A95ED0C1A11EE0B0A20EE0ACA2F
:104C40001BD294ED1B0A95ED281A01EE0B0A30EEEB
:104C50000C0A10EE101AB94202DDB0EE490A05E066
:104C600010EE101A494501D9B0EE690AD0ED48BAE4
:104C700095ED981A51EE00BA01E0F0EE48BA94EDC5
:104C80001D1AD5ED361A94ED1E0A95ED522A11EE35
:104C9000AB1A02EE2B0A61EE0ACA30EE2C0A10EEB5
:104CA000101AB94202DD86ED259A08E010EE101ABE
:104CB000494502D9C6ED259A01E086ED250A98ED11
:104CC0004C0A8348A11C001F30EEC00AFBF718FCF9
:104CD000D8ED4D0A94ED080A30EE200A86ED260A3A
:104CE000D5ED1A0A94ED1B0A60EE8B0A00EEA80AB5
:104CF00084ED1B0A94ED1C0A0CEE280A84ED1C0AB4
:104D000094ED1D0A0CEEA80A84ED1D0AD5ED440AA7
:104D100094ED1E0A60EEAB0A00EEA80A84ED1E0AAE
:104D200098ED500ABDEEC00A10EE100A012836D0E8
:104D300002286AD1D8ED510AD8ED531A98ED4F2ABE
:104D4000B0EE600A95ED611A01EEAA0A72EE40AA71
:104D5000B0EEEA0AB4EEC01AF1EE10FA03DBF0EEA0
:104D600048AAC4ED18AAB4EEC01AF1EE10FA94EDF8
:104D7000160A95ED0D1A11EE2A0A20EE0ABA54D23F
:104D800094ED150A95ED291A01EE2A0A30EE0B0A68
:104D900010EE100AB8423CDDB0EE490A3FE0D8ED13
:104DA0004F0A98ED4E1AD4ED1A1A95ED8B0A30EE93
:104DB000C11A94ED192AF0EE610AD5ED6F2A40EE82
:104DC000010AB0EE420A12EE810A20EE0A0A70EEE3
:104DD000800A10EE900AB84202DD86ED279A08E0BC
:104DE00010EE900A484502D9C6ED279A01E0C6EDBB
:104DF000270A00EE282A84ED192A95ED7D0A20EE77
:104E0000010A40EE281AC4ED1A1ABDEC0A8BBDE85F
:104E1000F08710EE100A484501D9B0EE690A98ED06
:104E20004E8A95ED991A11EE008A94ED171AD5ED78
:104E3000371A94ED180A95ED532A11EE881A02EEEE
:104E4000080A21EE0AAA30EE0A0A10EE100AB84249
:104E500002DD86ED289A08E010EE100A484502D9D6
:104E6000C6ED289A01E086ED280A194998ED520A04
:104E7000243901F11C0030EEC00AFBF741FB98ED2C
:104E8000530AD4ED070A30EE800A86ED290AD5EDE3
:104E90001B0A94ED150A60EEAA0A00EEA80A84ED3A
:104EA000150A94ED160A0BEE280A84ED160A94ED05
:104EB000170A0AEE280A84ED170AD5ED450A94ED83
:104EC000180A60EE880A00EEA80A84ED180A9CE72A
:104ED00094120024B7EEC22B3D4A0128B7EEC11B45
:104EE000B7EEC00B09D0022815D1082913D2DFE88C
:104EF00001F0123D444B5259606708290BD2DFE89C
:104F000001F00A040B121920272E82ED622A82ED8D
:104F1000701A82ED7E0A704782ED632A82ED711A63
:104F200082ED7F0A704782ED642A82ED721A82ED6B
:104F3000800A704782ED652A82ED731A82ED810A3C
:104F4000704782ED662A82ED741A82ED820A7047FC
:104F500082ED672A82ED751A82ED830A704782ED31
:104F6000682A82ED761A82ED840A704782ED692AFA
:104F700082ED771A82ED850A704782ED6A2A82ED0A
:104F8000781A82ED860A704782ED6B2A82ED791AD3
:104F900082ED870A704782ED6C2A82ED7A1A82EDE3
:104FA000880A704782ED6D2A82ED7B1A82ED890AAC
:104FB000704782ED6E2A82ED7C1A82ED8A0A704774
:104FC00082ED6F2A82ED7D1A82ED8B0A7047000018
:104FD00030000024704700002DE9F047454D04469D
:104FE00089464FF0000A2868C04380070AD0414E26
:104FF000283E306820F080603060FCF779FA074680
:10500000B04608E00120BDE8F08700BFFCF770FA69
:10501000C01B022867D8D8F800000001F6D4206829
:1050200029684FF4FE0721F47C313E0241EA00304A
:105030002860207AA389B4F804C040022D4D2D4980
:105040005B1E227CACF1010C1035091DA0F500702F
:1050500080B2521ECCF3080C07EA034340EA0C006E
:10506000184306EA0262104328600868626920F06B
:10507000C000104308600A68A06922F020020243C1
:105080000A60281D0A6822F010020A6002684FF6C2
:10509000F873E4699A4342EAC40202600868B9F10D
:1050A000000F40F010020A6011D00868B9F1010F3A
:1050B00011D040F400100860D8F80000444640F0D9
:1050C0008060C8F80000FCF713FA05460DE0086898
:1050D00040F40020EFE740F48010ECE7FCF708FA1A
:1050E000401B022801D903208DE720680001F5D577
:1050F000504688E7284402582DE9F047454D0446BC
:1051000089464FF0000A2868C04380070AD0414E04
:10511000283E306820F080503060FCF7E9F90746FF
:10512000B04608E00120BDE8F08700BFFCF7E0F9D9
:10513000C01B022867D8D8F800008000F6D4208869
:1051400029684FF4FE0721F07C713E0241EA0050CD
:105150002860207AA389B4F804C040022D4D2D495F
:105160005B1E227CACF1010C1835091DA0F5007006
:1051700080B2521ECCF3080C07EA034340EA0C004D
:10518000184306EA0262104328600868626920F446
:105190004060104308600A68A06922F4007202436C
:1051A0000A60281D0A6822F480720A6002684FF6BD
:1051B000F873E4699A4342EAC40202600868B9F1EC
:1051C000000F40F480720A6011D00868B9F1010F35
:1051D00011D040F080700860D8F80000444640F0DC
:1051E0008050C8F80000FCF783F905460DE0086818
:1051F00040F48000EFE740F40000ECE7FCF778F9BA
:10520000401B022801D903208DE720688000F5D5D6
:10521000504688E72844025870470000014908704A
:105220007047000018000024FCF768B9F0B59DB085
:105230004C216846FBF7B2F8202113A8FBF7AEF823
:105240000220FCF74DFA1E48016821F4404101603C
:105250000168002401F440411B9101688904FCD5D8
:105260000220099001210D91C20305236026CDE99A
:1052700000120AAA0427082582E84900CDE90E7029
:10528000CDE9105468461294FDF758FA08B172B689
:10529000FEE740201A903F210301CDE9165003227A
:1052A000CDE9180313AB13A883E816001146FDF7E8
:1052B00035F8002801D072B6FEE71DB0F0BD000041
:1052C000184802582748F0B5274A016841F4700190
:1052D0000160106800F00F00072804D2106820F069
:1052E0000F00C01D106021490020204C10340B68B5
:1052F0001F4D43F001030B6020600B682B400B60D7
:10530000136803F00F03072B04D9136823F00F036E
:10531000DB1D1360154C174A1834174B261D371D1B
:105320002060124C154D28343060261D3860371D22
:1053300023603B1D35601C1D3A60251D2E1D186025
:10534000331D22602860326018600A6843F2D2047C
:10535000064B0B4D22F4802260330A6018602C60EB
:10536000F0BD000088ED00E000200052004402582B
:105370007FEDF6EA80020101000202020000FF0157
:10538000004000520148FDF780BD000028040024C1
:105390002DE9F0472A4B4FF0804A2A4D0268984287
:1053A000294E2A4F2A4C09D0504507D0A84205D093
:1053B000B04203D0B84201D0A04205D1D1F804C018
:1053C00022F070024CEA0202DFF888C0DFF8888021
:1053D0009842DFF8889015D0504513D0A84211D0DC
:1053E000B0420FD0B8420DD0A0420BD0604509D0DA
:1053F000404507D0484505D0194DA84202D0194D67
:10540000A84203D1CD6822F440722A434D6922F0AC
:1054100080022A43026098428A68C2620A688262F5
:1054200007D0A04205D0604503D0404501D0484593
:1054300001D10969016301214161BDE8F0870000E4
:10544000000001400004004000080040000C004043
:105450000004014000400140004401400048014078
:1054600000E0004000E4004030B5416EB9B1016891
:105470000D4B03F108048A688968C2F34262490F40
:105480005D5C615C2D01B5FBF1F1A0F86A10995CDF
:10549000A25C0901B1FBF2F1A0F8681030BD012156
:1054A000A0F86A10F8E70000E08A000890F82810D9
:1054B000C90706D00168C36A4A6822F400321A4359
:1054C0004A6090F82810890706D50168036B4A687E
:1054D00022F480321A434A6090F82810490706D512
:1054E0000168436B4A6822F480221A434A6090F8AC
:1054F0002810090706D50168836B4A6822F4004228
:105500001A434A6090F82810C90606D50168C36B93
:105510008A6822F480521A438A6090F8281089061B
:1055200006D50168036C8A6822F400521A438A6027
:1055300090F82810490611D50168436C4A6822F496
:1055400080121A434A60416CB1F5801F06D1016890
:10555000836C4A6822F4C0021A434A6090F828100B
:10556000090606D50168C26C486820F40020104383
:10557000486070472DE9F84300250446C0F8905074
:10558000FBF7B6FF8046206820266FF07E47006854
:10559000000713D50022434631042046009700F04F
:1055A00057FA58B1216851E8000F20F0800041E817
:1055B0000002002AF6D1C4F8886021E02068006863
:1055C000400722D5002243464FF480012046009731
:1055D00000F03EFAC8B1206850E8001F21F4907135
:1055E00040E80012002AF6D12068083050E8001F79
:1055F00021F0010140E80012002AF5D1C4F88C60C6
:10560000032084F88450BDE8F883C4F88860C4F8A7
:105610008C60E5662567002084F88450F3E700007D
:1056200010B5026852E8001F21F4907142E800139F
:10563000002BF6D10E4B0268083252E8001F1940C9
:1056400042E80014002CF6D1C16E012908D102688D
:1056500052E8001F21F0100142E80013002BF6D1A0
:1056600000212022C0F88C20C166416710BD0000D7
:10567000FEFFFFEF2DE9F04304468068E24E87B05D
:10568000E24B2168D4E90427D4F81CC010430A680F
:10569000002547EA0C073843324002430A6020687D
:1056A000E268416821F44051114341602268A169D8
:1056B0009A4201D0206A01439668DFF854C3D54F5F
:1056C000D54806EA0C060E4396602168666ACA6AE7
:1056D00022F00F023243CA622268BA420ED1006839
:1056E00000F0380018286FD07ADCB8B308286CD0E6
:1056F00010286BD18BE0282868D18EE0C7498A42F8
:1057000009D1006800F0070006285FD2DFE800F04A
:10571000507D7F818385C2498A4209D1006800F0AB
:10572000070006287BD2DFE800F0437072747678B9
:10573000BC498A4209D1006800F0070006286ED2F1
:10574000DFE800F036636567696BB7498A420BD1C1
:10575000006800F00700062861D200E043E0DFE8BF
:1057600000F0275456585A5CB0498A4206D1006866
:1057700000F0380018284CD0B7DD31E0AC498A423F
:1057800009D1006800F00700062848D2DFE800F0E1
:10579000103D3F414345A7498A420BD1006800F0C4
:1057A000070006283BD2DFE800F0033032343638F9
:1057B000002035E0A0498A4209D1006800F0380095
:1057C000182826D091DD0BE023E01EE027E09B495E
:1057D0008A420AD1006800F03800182819D084DD08
:1057E000202888D11CE001201AE09A4217D18A486B
:1057F000001D006800F00700062810D2DFE800F066
:10580000030507090B0D02200AE0042008E0082028
:1058100006E0102004E0202002E0402000E080208C
:105820008749DFF820829A42874A4FF400434FEAC3
:1058300021174FF000064ED110281AD006DC02289E
:1058400009D004280BD008287ED10DE020283ED0B6
:10585000402879D13DE0FBF76DFF014610E0684636
:10586000FBF77AFF01990BE003A8FCF717F80499FE
:1058700006E01068800605D51068C0F3C100C1407D
:10588000002970D0606A676838F8102007EB47037A
:10589000B1FBF2F0834257D8B0EB073F54D8002356
:1058A00008461946FAF730FD02467808130E120230
:1058B00043EA012110183A4671410023FAF724FD0A
:1058C000624AA0F5407191423ED821688FE0394686
:1058D000D8E71946D6E7D4F81CC04FF6EF799C45B7
:1058E00046D1082819D005DC58B101280CD004286D
:1058F00075D10DE0102815D0202835D040286ED164
:1059000034E0FCF75BFE01E0FCF76AFE014610E0C4
:105910006846FBF721FF01990BE003A8FBF7BEFFE8
:10592000049906E01068800604D51068C0F3C10031
:10593000C140C1B1636A606838F81330B1FBF3F15C
:10594000490001EB500100E049E0B1FBF0F0A0F1AB
:105950001001494543D84FF6F0732168C0F3420265
:105960001840104343E043E03946E3E71946E1E7D6
:10597000082819D005DC58B101280CD004282ED1F4
:105980000DE0102815D020282BD0402827D12AE060
:10599000FCF714FE01E0FCF723FE014610E0684628
:1059A000FBF7DAFE01990BE003A8FBF777FF0499F8
:1059B00006E01068800604D51068C0F3C100C1403D
:1059C000B1B1636A606838F81330B1FBF3F101EBF1
:1059D0005001B1FBF0F0A0F11001494505D90125B6
:1059E00006E03946EDE71946EBE7216880B2C8606A
:1059F0000120A4F86A00A4F8680028466667A66734
:105A000007B0BDE8F0830000F369FFCF000C005839
:105A1000FFF4FF11001001405444025800440040BC
:105A200000480040004C004000500040001401407D
:105A300000780040007C004000180140001C01403C
:105A40000090D003C88A000800440258FFFC0F00F1
:105A50002DE9F047994617460E460446089D4FF03B
:105A600000082FE0681C2DD0FBF742FDA0EB0900D9
:105A7000A84214D89DB120680168490722D5C169A0
:105A8000C94309070DD4082505622046FFF7C8FD64
:105A9000C4F89050012084F88480BDE8F08703208A
:105AA000FBE7C069C04300050CD421684FF40060D7
:105AB00008622046FFF7B4FD2021C4F8901084F856
:105AC0008480ECE72068C06936EA000004D000203A
:105AD000B842C7D00020E0E70120F9E7FEE703B4B1
