:020000040800F2
:1000000070260024E5020008C7560008B752000811
:10001000C55600081509000831B8000800000000A6
:1000200000000000000000000000000051A90008CE
:10003000610C00080000000069A4000861A9000824
:10004000FF020008FF020008FF020008FF0200088C
:10005000FF020008FF020008FF020008FF0200087C
:10006000FF020008FF020008FF020008010A000862
:100070000D0A0008190A0008250A0008310A0008BC
:100080003D0A0008FF020008FF020008690C000892
:10009000750C0008FF020008810C0008FF02000830
:1000A000FF020008FF020008FF020008FF0200082C
:1000B000FF020008FF020008FF020008FF0200081C
:1000C000FF020008FF020008FF020008FF0200080C
:1000D000FF020008FF02000819B8000825B8000850
:1000E000FF020008FF02000800000000FF020008F5
:1000F000FF020008FF020008FF020008FF020008DC
:10010000FF020008FF020008FF020008FF020008CB
:10011000FF020008FF020008C1AA0008FF02000851
:10012000FF020008FF020008FF020008FF020008AB
:10013000FF020008FF020008FF020008A50C0008EB
:1001400000000000000000000000000000000000AF
:10015000FF020008FF020008FF020008FF0200087B
:10016000FF020008FF020008FF020008FF0200086B
:10017000FF020008FF020008FF0200080000000064
:10018000FF020008FF020008A5AB0008FF020008FC
:10019000FF020008FF020008FF020008FF0200083B
:1001A000FF020008FF020008FF0200080000000034
:1001B000FF020008FF020008FF020008FF0200081B
:1001C000FF020008FF02000800000000000000001D
:1001D0000000000000000000FF0200080000000016
:1001E000000000000000000000000000000000000F
:1001F0000000000000000000FF020008FF020008ED
:10020000FF020008FF02000800000000FF020008D3
:10021000FF020008FF020008FF020008FF020008BA
:10022000FF02000800000000FF02000800000000BC
:10023000FF020008FF02000800000000FF020008A3
:10024000FF020008FF020008FF020008FF0200088A
:10025000FF020008FF020008FF020008FF0200087A
:10026000FF020008FF020008FF020008FF0200086A
:10027000FF020008FF020008FF0200080000000063
:10028000FF020008FF020008FF020008FF0200084A
:1002900000000000FF020008FF020008000000004C
:1002A00000000000FF020008FF020008FF02000833
:1002B000FF020008FF020008FF0200088D0C000882
:1002C000990C0008FF020008FF020008DFF810D0B8
:1002D00000F074FA00480047E1EC0008AFF300803A
:1002E000702600240648804706480047FEE7FEE7E0
:1002F000FEE7FEE7FEE7FEE7FEE7FEE7FEE7FEE7D6
:1003000001AA0008CD0200082DE9F05F0546002093
:1003100092469B4688460646814640241BE0284676
:1003200041464746224600F069F853465A46C01AED
:10033000914110D311461846224600F050F82D1A6C
:1003400067EB01084F4622460120002100F047F8E4
:1003500017EB00094E41201EA4F10104DFDC4846E2
:1003600031462A464346BDE8F09F40EA01039B0719
:1003700003D009E008C9121F08C0042AFAD203E01A
:1003800011F8013B00F8013B521EF9D27047D2B27E
:1003900001E000F8012B491EFBD270470022F6E76E
:1003A00010B513460A4604461946FFF7F0FF2046EB
:1003B00010BD30B50B46014600202022012409E083
:1003C00021FA02F59D4205D303FA02F5491B04FA0E
:1003D00002F52844151EA2F10102F1DC30BD202AED
:1003E00004DB203A00FA02F1002070479140C2F18C
:1003F000200320FA03F3194390407047202A04DBBE
:10040000203A21FA02F00021704721FA02F3D0408D
:10041000C2F1200291400843194670472DE9FE4F72
:10042000804681EA0300C00F0C46009021F0004195
:1004300023F00045B8EB0200A94105D24046214611
:1004400090461C460B46024623F00040104347D01E
:10045000270DC7F30A00C3F30A510290401A019016
:1004600040286BDAC3F3130040F4801B00989246D7
:1004700020B10023D2EB030A63EB0B0B0198594622
:10048000C0F140025046FFF7AAFF06460D4650460F
:100490005946019A00F0A4F910EB080061410024CC
:1004A00087EA115284EAE7731A4340D0009A62B394
:1004B000019A012A4FEA075215DC001B61EB020189
:1004C0004FF0004202EA0752CDE90042001C41F51C
:1004D000801132462B4600F0A4F903B0BDE8F08F3E
:1004E00040462146F9E7001B61EB0201001C41F583
:1004F000801300185B412018A2F5001747EB030199
:1005000040EAD570B6196D4111E06D084FEA360624
:1005100045EAC0754FEA0752001B61EB0201001C5F
:1005200041F5801149084FEA300000195141324627
:100530002B4603B0BDE8F04F00F064B900980122EB
:1005400040000023D0EB020263EBE07300982146E9
:100550004FEAE074B8EB000061EB0401E9E783F0D7
:1005600000435BE781F0004158E72DE9FE4F81EA47
:10057000030404F0004421F0004100944FF0000B0C
:1005800023F0004350EA01045ED052EA03045BD03A
:10059000C3F30A54C1F30A552C44A4F2F334019472
:1005A000A0FB0254C1F3130141F48011C3F3130300
:1005B00043F4801301FB024400FB034E840A970AB4
:1005C00044EA815447EA8357A4FB076802958D0AE1
:1005D00005FB07854FEA932C04FB0C542705029D6D
:1005E0004FEA065847EA1637B5EB08056EEB070CDD
:1005F000870E920E47EA811742EA8312A7FB020197
:10060000B6EB0B0164EB00042B0D43EA0C335E18D0
:1006100044EB1C50DA465146E7FB0201C5F31304D4
:100620004FEA0B3343EA14534FEA0432019C43EA86
:100630000603A4F10C040294009CCDE900B400F080
:10064000F0F803B0BDE8F08F00200146F9E72DE98E
:10065000F04D81EA030404F0004B21F000451446FC
:100660004FF0000A23F0004150EA050220D054EA7E
:1006700001021DD0C5F30A570246C5F31303C1F3A7
:100680001300C1F30A5640F4801543F48013A7EB1E
:100690000608101BD64608F2FD3873EB050002D39E
:1006A00008F1010801E092185B41B8F1000F03DA8C
:1006B00000200146BDE8F08D00204FF48011064671
:1006C00084460EE0171B73EB050705D3121B63EB83
:1006D000050306434CEA010C49084FEA3000921822
:1006E0005B4150EA0107EDD152EA030012D082EAE1
:1006F000040083EA0501084305D0101BAB4106D274
:100700000122002306E000224FF0004302E06FF0D8
:10071000010253101AEB06004CEB085110EB0A00D3
:1007200041EB0B01BDE8F04D00F06CB870B521F065
:10073000004303430CD0C1F30A550024D5EB040554
:1007400064EB0403D617AD1AB34102DB0020014667
:1007500070BD201841EB025170BDC1F30A52C1F3C4
:10076000130140F2FF3341F480119A4202DA002073
:100770000146704740F233439A42A2F2334202DC10
:100780005242FFF73BBEFFF72ABE000030B5041E01
:1007900071F1000404DB4FF00044404264EB0101BE
:1007A000141E73F1000405DB1C464FF00043524257
:1007B00063EB0403994208BF904230BD064C074DDD
:1007C00006E0E06840F0010394E807009847103421
:1007D000AC42F6D3FFF77EFD0004010820040108B7
:1007E000202A06DBCB17203A41FA02F043EAE073F5
:1007F00006E041FA02F3D040C2F1200291400843E2
:100800001946704710B5141E73F1000408DA401C35
:1008100041F1000192185B411A4301D120F001001F
:1008200010BD2DE9F04D92469B4611B1B1FA81F20F
:1008300002E0B0FA80F220329046FFF7D0FD044685
:100840000F4640EA0A0041EA0B0153465A46084364
:1008500013D0114653EA010019D0C8F140025046A6
:10086000FFF7CCFD05460E46504659464246FFF777
:10087000B6FD084305D0012004E020463946BDE816
:10088000F08D0020054346EAE0762C4337430A9872
:100890006305E40AA0EB08000022FD0A44EA47547D
:1008A0000A3002D500200146E9E701051019694127
:1008B000DDE9084500196941BDE8F04DA2E770B5D2
:1008C0008C1810F8015B15F0070301D110F8013BFB
:1008D0002A1106D110F8012B03E010F8016B01F882
:1008E000016B5B1EF9D12B0705D40023521E0DD4DA
:1008F00001F8013BFAE710F8013BCB1A921C03E028
:1009000013F8015B01F8015B521EF9D5A142D8D35F
:10091000002070BDFEE700002DE9F041154DDDE936
:10092000066414B1012C03D005E04FF4007401E01B
:1009300040F2FF142C60104C00276F604FF4002C25
:10094000AF604FEA112EC5F80CC0170A84F800E01A
:100950001D0A61704FEA162CA770E27022462571BD
:10096000637184F806C0E671BDE8F041014901F009
:1009700053BB00003C0D00241D000024F0B50B7893
:10098000012402229BB14F7803261A4D1A4B012FE6
:10099000FFEE000A0DD0022FB7EE001A0ED010EEB7
:1009A000106A9E421BDB4C7080ED001AF0BD0C708B
:1009B0001DE010EE104AAC4208D210E010EE102AF2
:1009C0009A42F0DA10EE102AAA4203D34E70C0ED1C
:1009D000000AF0BD9FED090A80ED000AF0BD10EE9F
:1009E000100A9842FADA10EE100AA842F6D24A70BB
:1009F000F0BD000000409CC500409C450000000088
:100A0000014800F073BD00004C0C0024014800F0C8
:100A10006DBD0000C40C0024014800F067BD00005B
:100A20006C0A0024014800F061BD0000E40A0024C3
:100A3000014800F05BBD00005C0B0024014800F0A1
:100A400055BD0000D40B0024294A016891423AD0D8
:100A5000274A1832914236D0254A3032914232D05C
:100A6000234A483291422ED0214A603291422AD004
:100A70001F4A7832914226D01D4A9032914222D0AC
:100A80001B4AA83291421ED01A4A91421BD0194AE1
:100A90001832914217D0174A3032914213D0154A7A
:100AA000483291420FD0134A603291420BD0114A22
:100AB0007832914207D00F4A9032914203D00D4ACA
:100AC000A832914211D1CAB21823103AB2FBF3F204
:100AD0006FF30901032A02F00703074AD25CC265DB
:100AE00000D9091D81650846704721F0FF01F9E72B
:100AF00010000240100402401C01010830B5224AD7
:100B0000012301689142CAB21BD01F4C1434A14288
:100B100017D01D4C2834A14213D01B4C3C34A142A9
:100B20000FD0194C5034A1420BD0174C6434A14261
:100B300007D0154C7834A14203D0134C8C34A14219
:100B40000CD11421114C083AB2FBF1F10F4A80325A
:100B500001F01F0504EB8101AB4010E00C4D18249F
:100B6000103A0D44B2FBF4F1A82D00D80831094A1F
:100B700001F01F0402EB8101064AA340803260307D
:100B800080E80E0030BD000008540258005802589A
:100B9000F0FBFDBF0008024010B50279531E072B81
:100BA0002DD8174C0168A1421BD0154C1434A1421A
:100BB00017D0134C2834A14213D0114C3C34A1421D
:100BC0000FD00F4C5034A1420BD00D4C6434A142D5
:100BD00007D00B4C7834A14203D0094C8C34A1428D
:100BE00003D10849074C443102E00749064C44311F
:100BF00004EB8202C0E91B2101219940416710BD2D
:100C000008540258FC580258FC08024010B5836989
:100C10004FF0C074826A0146002053B1B3F5005F03
:100C200015D072B1012A0CD0022A0AD0032A09D1A8
:100C300004E01AB1012A06D0022A03D1C96AC90107
:100C400000D5012010BDC96AA142FAD010BD002A0A
:100C5000F7D0012AF2D0022AF3D0032AF3D010BD34
:100C6000704772B6FEE70000014801F05DBB00006E
:100C700074060024014801F057BB0000140700244B
:100C8000014801F051BB000014070024014801F0A5
:100C90004BBB0000B4070024014801F045BB000035
:100CA000B4070024044810B501F03EFBBDE8104035
:100CB000024801F039BB0000740600241407002428
:100CC000F0B503684FF6FC716D4C426BD3F884505D
:100CD0008D4345EA8205C3F88450036853F8845F66
:100CE000068F25F47F0545EA06451D60836B654D3B
:100CF0009F180268D2F888308B4343EA8703C2F812
:100D00008830026852F8883F868F23F4FE0343EA56
:100D100006431360066856F8A03FC26B8B4307EB8F
:100D2000420243EA82033360076857F8A03FB0F8F5
:100D3000406023F4FE0343EA06433B60D0E91036EB
:100D400003FB06220368D3F8B0608E4346EA8206AE
:100D5000C3F8B0600368B0F84860D3F8B07027F407
:100D6000FE0747EA0646C3F8B060D0E91267036899
:100D700006FB0722D3F8AC608E4346EA8206C3F82E
:100D8000AC60D0E91467036806FB0722D3F8F06073
:100D90008E4346EA8206C3F8F0600368B0F85860F4
:100DA000D3F8F07027F47C1747EA0646C3F8F060E2
:100DB0000368876D53F8C06F02EB47028E4346EA23
:100DC000820119600168B0F85C20D1F8C03023F4CA
:100DD0007C1343EA0242C1F8C020016890F8602009
:100DE000D1F8C03023F07C5343EA0262C1F8C0203E
:100DF000416B04EB8101C166826B01EB82020267E9
:100E0000C36B02EBC3024267D0E91034634302EBC9
:100E100083028267D0E91234634302EB8302C26724
:100E2000D0E91434634302EB8302C0F88020836D61
:100E300002EBC303C0F88430C46D826E544303EBED
:100E40008403C0F88830046E544303EB8402C0F876
:100E50009020AA420AD9D0F89C20032142F0200217
:100E6000C0F89C2080F898100120F0BD002200E01E
:100E700004C1D0F890308B42FAD80020F0BD0000B9
:100E800000AC0040FCD30040F0B58E680C69D1E99D
:100E9000005744EA0604DFB145F080452C43866ED6
:100EA000D1E906C54F695E4391F8203045EA0C054B
:100EB000D0F884E00020D1F80CC047EA0363114F5A
:100EC0001D430EEB860345EA0C05E3E8024511E0FD
:100ED00044EA8544E3E71418155CA67894F803C047
:100EE00094F801E0360445EA0C6446EA0E252C43EA
:100EF000001D10C3CC6807EB144424788442EAD860
:100F0000F0BD0000240101082DE9F84F044601F06E
:100F1000FDFE00903CB194F83500022806D08021F7
:100F200061650020E4E00120BDE8F88FC74DC74EA1
:100F3000C649183520683036DFF81483DFF814937B
:100F40008842DFF814A3DFF814B32ED0A8422CD0C7
:100F5000B0422AD0404528D0484526D0504524D01C
:100F6000584522D0BD4A183290421ED0BC4A904209
:100F70001BD0BB4A1832904217D0B94A3032904247
:100F800013D0B74A483290420FD0B54A60329042EF
:100F90000BD0B34A7832904207D0B14A9032904297
:100FA00003D0AF4AA832904209D1026822F01E0253
:100FB00002602068426922F08002426103E0026818
:100FC00022F00E02026027688F4238464DD0A842B8
:100FD0004BD0B04249D0404547D0484545D0504518
:100FE00043D0584541D09D4A183290423DD09C4A4A
:100FF00090423AD09A4A1832904236D0984A3032CB
:10100000904232D0964A483290422ED0944A603272
:1010100090422AD0924A7832904226D0904A90321A
:10102000904222D08E4AA83290421ED08D4A9042E1
:101030001BD08C4A1432904217D08A4A28329042F0
:1010400013D0884A3C3290420FD0864A50329042A8
:101050000BD0844A6432904207D0824A7832904260
:1010600003D0804A8C32974204D1206E026822F469
:101070008072026075492068884228D0A84226D034
:10108000B04224D0404522D0484520D050451ED003
:1010900058451CD071491831884218D0704988428F
:1010A00015D06F491831884211D06D4930318842CE
:1010B0000DD06B494831884209D069496031884276
:1010C00005D067497831884201D06549903101687F
:1010D00021F0010101600EE001F018FE0099401AB4
:1010E000052808D9202262650321002084F83510E4
:1010F00084F8340017E73868C007EDD1534A01215E
:10110000206890422ED0A8422CD0B0422AD0404530
:1011100028D0484526D0504524D0584522D04F4BA2
:10112000183398421ED04E4B98421BD04C4B18336C
:10113000984217D04A4B3033984213D0484B48332B
:1011400098420FD0464B603398420BD0444B7833D3
:10115000984207D0424B9033984203D0404BA8337B
:10116000984208D194F85C703F23A06D07F01F07E8
:10117000BB40836007E094F85C30A06D03F01F0370
:1011800001FA03F34360206890424DD0A8424BD04F
:10119000B04249D0404547D0484545D0504543D05E
:1011A000584541D02D4A183290423DD02C4A9042A9
:1011B0003AD02B4A1832904236D0294A30329042E7
:1011C00032D0274A483290422ED0254A603290428F
:1011D0002AD0234A7832904226D0214A9032904237
:1011E00022D01F4AA83290421ED01E4A90421BD0E5
:1011F0001C4A1432904217D01A4A2832904213D017
:10120000184A3C3290420FD0164A503290420BD0CE
:10121000144A6432904207D0124A7832904203D086
:10122000104A8C3290420BD1D4E919024260E06E30
:1012300030B1026822F480720260D4E91C0242607C
:10124000002084F8351084F834006DE61000024068
:10125000580002407000024088000240A000024096
:1012600010040240085402582DE9F05F28B190F8AC
:101270003510022904D0802141650120BDE8F09F8E
:10128000904C904B0168183C18338E4ADFF83C9222
:10129000A1428D4CDFF838E28E4FDFF83CB2DFF828
:1012A0003CA28F4D8F4E31D091422FD099422DD0FC
:1012B000A1422BD0494529D0714527D0B94225D02C
:1012C000DFF810C20CF1180C61451FD0DFF808C21E
:1012D000ACF1600C614519D0DFF8FCC1ACF1480CF1
:1012E000614513D0DFF8F0C1ACF1300C61450DD091
:1012F000DFF8E4C1ACF1180C614507D0594505D0C1
:10130000514503D0A94201D0B1422CD1DFF8B4C17C
:101310004FF0040880F83580ACF1180C61451DD001
:1013200091421BD0994219D0A14217D0494515D0FE
:10133000714513D0B94211D06648183081420DD0A2
:1013400065486038814209D063484838814205D0F9
:1013500061483038814201D05F481838086820F071
:1013600001000860ABE0D1F800C02CF00E08DFF8F7
:1013700054C1C1F80080ACF1180C0168614527D058
:10138000914225D0994223D0A14221D049451FD076
:1013900071451DD0B9421BD0DFF838C10CF1180CD3
:1013A000614515D0DFF830C1ACF1600C61450FD05C
:1013B000DFF824C1ACF1480C614509D0DFF818C151
:1013C000ACF1300C614503D0DFF80CC1ACF1180C66
:1013D000D1F800C02CF0010CC1F800C0DFF8E480A7
:1013E0004FF0010C0168A8F11808414546D0914220
:1013F00044D0994242D0A14240D049453ED07145A7
:101400003CD0B9423AD0334A1832914236D0324AAF
:10141000603A914232D0304A483A91422ED02E4A18
:10142000303A91422AD02C4A183A914226D0594556
:1014300024D0514522D0A94220D0B1421ED02A4A00
:1014400091421BD0284A1432914217D0264A2832A2
:10145000914213D0244A3C3291420FD0224A50325A
:1014600091420BD0204A6432914207D01E4A783212
:10147000914203D01C4A8C32914218D1016E0A6805
:1014800022F480720A6090F85C20816D02F01F02E5
:101490000CFA02F24A60D0E919124A60C16E31B109
:1014A0000A6822F480720A60D0E91C124A600022A5
:1014B000016D80F835C080F8342001B188470020E4
:1014C000DCE60000280002405800024070000240A4
:1014D00088000240A00002407004024088040240DC
:1014E000A0040240B8040240085402582DE9FC5FF1
:1014F0000446F74E0020DFF8D88300904FF41652D0
:10150000F44808F11808A56DDFF8C493DFF8C0A30C
:10151000016809F1300920680AF1480AB1FBF2F1CB
:10152000B04201912F68D5F800C0DFF8ACB335D0D8
:101530004146884232D0484530D050452ED058459B
:101540002CD0E5491831884228D0E349303188420F
:1015500024D0E1494831884220D0E04988421DD05A
:10156000DE491831884219D0DC493031884215D023
:10157000DA494831884211D0DFF860E30EF1600E9D
:1015800070450BD0D54A7832904207D0D34B903378
:10159000984203D0D149A83188427DD194F85C208B
:1015A000082102F01F0201FA02F23A424AD0B04288
:1015B00032D0404530D048452ED050452CD05845EB
:1015C0002AD0C54A1832904226D0C34A30329042BF
:1015D00022D0C14A483290421ED0C04A90421BD00D
:1015E000BE4A1832904217D0BC4A3032904213D0D3
:1015F000BA4A483290420FD0B84A603290420BD07B
:10160000B64A7832904207D0B44A9032904203D022
:10161000B24AA832904203D1026802F0040202E00A
:10162000026802F008026AB1026822F00402026055
:1016300094F85C0000F01F008140A960606D40F0EC
:101640000100606594F85C00012100F01F008140FA
:10165000394240D02068B04234D0404532D048456D
:1016600030D050452ED058452CD09B4A183290424D
:1016700028D0994A3032904224D0974A483290423A
:1016800020D0964A90421DD0944A1832904219D0E8
:10169000924A3032904200E0AFE113D08F4A483294
:1016A00090420FD08D4A603290420BD08B4A7832F4
:1016B000904207D0894A9032904203D0874AA8329C
:1016C00090427DD1406910F0800F04D0A960606D18
:1016D00040F00200606594F85C00042100F01F00F7
:1016E000814039423ED02068B04232D0404530D0AF
:1016F00048452ED050452CD058452AD0764A18322D
:10170000904226D0744A3032904222D0724A4832F7
:1017100090421ED0714A90421BD0704A18329042BB
:1017200017D06E4A3032904213D06C4A4832904201
:101730000FD06A4A603290420BD0684A78329042A9
:1017400007D0664A9032904203D0644AA832904251
:101750004ED1006810F0020F04D0A960606D40F017
:101760000400606594F85C00102100F01F008140C7
:10177000394258D02068B04234D0404532D0484534
:1017800030D050452ED058452CD0534A1832904274
:1017900028D0514A3032904224D04F4A48329042A9
:1017A00020D04E4A90421DD04C4A1832904219D057
:1017B0004A4A3032904215D0484A4832904200E0BE
:1017C00014E00FD0454A603290420BD0434A783241
:1017D000904207D0414A9032904203D03F4AA8320B
:1017E000904207D1006800F0080006E0006872E748
:1017F0000068B7E7006800F00400A0B1A9602068A5
:101800000168490304D50068000308D5A16C07E00E
:101810000168C90503D4016821F008010160216C49
:1018200009B12046884794F85C00202100F01F0091
:101830008140394279D02068B04232D0404530D022
:1018400048452ED050452CD058452AD0224A18322F
:10185000904226D0204A3032904222D01E4A48324E
:1018600090421ED01D4A90421BD01C4A1832904212
:1018700017D01A4A3032904213D0184A4832904258
:101880000FD0164A603290420BD0144A7832904200
:1018900007D0124A9032904203D0104AA8329042A8
:1018A00003D1006800F0100002E0006800F00200C0
:1018B000B0B3A96094F835000428206801680FD0FF
:1018C00049037ED5006800032BD4616C2AE0000038
:1018D0001000024014000024700002401004024076
:1018E00021F0160101602068416921F08001416109
:1018F000206C08B9A06C20B12068016821F00801B3
:10190000016094F85C303F21012003F01F030022A6
:101910009940A96084F8350084F83420216D65E091
:1019200003E0E16B09B120468847606D00287DD057
:10193000606DC00759D02068042184F83510B0428A
:101940002BD0404529D0484527D0504525D0584573
:1019500023D09D49884220D09B49183188421CD011
:1019600099493031884218D09849884215D0974912
:101970001831884211D09549303188420DD09349B1
:101980004831884209D091496031884205D08F4959
:101990007831884201D08D499031016821F00101F0
:1019A000016020680099019A491C0091914202D877
:1019B0000168C907F6D10068C00710D003200FE006
:1019C000FFE70168C905ACD403680121002223F0B8
:1019D0001003036084F8351084F83420A1E7012057
:1019E00084F83500002084F83400E16C00291DD013
:1019F00002B02046BDE8F05F0847754988421DD017
:101A000073491431884219D071492831884215D060
:101A10006F493C31884211D06D49503188420DD018
:101A20006B496431884209D0694900E084E078312B
:101A3000884203D066498C3188427DD194F85C801D
:101A40000427016808F01F0807FA08F717EA0C0FC7
:101A5000009746D04F0744D500980F04686003D51F
:101A6000C8033CD4A16CC1E7880638D42068B042D2
:101A70002DD055496039884229D0484527D0504556
:101A800025D0584523D05049884220D04E4918319E
:101A900088421CD04C493031884218D04B4988428A
:101AA00015D04A491831884211D04849303188420E
:101AB0000DD046494831884209D0704507D0904240
:101AC00005D0984203D04149A831884203D101682A
:101AD00021F0080102E0016821F004010160216C9D
:101AE00084E7022707FA08F717EA0C0F00974ED091
:101AF0008F074CD500980F04686003D5C80344D401
:101B0000616C73E7880640D42068B0422FD02E491C
:101B1000603988422BD0484529D0504527D05845B8
:101B200025D02949884222D02749183188421ED021
:101B300025493031884200E044E018D023498842EA
:101B400015D022491831884211D0204930318842BD
:101B50000DD01E494831884209D0704507D09042C7
:101B600005D0984203D01949A831884203D10168B1
:101B700021F0140102E0016821F00A010160012155
:101B800084F83510002084F83400E16B2EE7082239
:101B900002FA08F212EA0C0F14D0090712D50168F4
:101BA00021F00E01016094F85C100120002201F088
:101BB0001F0100FA01F16960606584F8350084F85E
:101BC000342012E7BDE8FC9F880002401004024068
:101BD000085402582DE9F05F044601F097F8002CF4
:101BE00007467DD0E24E022120684FF00308DFF85F
:101BF00084934FF00005DFF880A3B042DFF87CB398
:101C000034D0DB4A1832904230D048452ED050456F
:101C10002CD058452AD0D94A1832904226D0D74ADB
:101C20003032904222D0D54A483290421ED0D44A17
:101C300090421BD0D24A1832904217D0D04A30324C
:101C4000904213D0CE4A483290420FD0CC4A6032F4
:101C500090420BD0CA4A7832904207D0C84A90329C
:101C6000904203D0C64AA83290427DD184F8351004
:101C7000B04284F834502ED0BD49183188422AD061
:101C8000484528D0504526D0584524D0BB49183166
:101C9000884220D0B949303188421CD0B7494831F8
:101CA000884218D0B649884215D0B54918318842C3
:101CB00011D0B349303188420DD0B1494831884202
:101CC00009D0AF496031884205D0AD4978318842AA
:101CD00001D0AB499031016821F00101016008E0B9
:101CE00025E100BF01F012F8C01B052801D9202111
:101CF0001AE120680068C007F4D1D4E90203216822
:101D0000103418438E4694E88410D4E903380968E7
:101D10003A4310439B4A40EA0C006769184311405C
:101D2000103C40EA0800042F40EA010003D1D4E946
:101D30000B12114308436168A1F12902052A0BD94E
:101D4000163A032A08D9083A012A05D9083A032A7B
:101D500002D97439032901D840F48010CEF800006C
:101D60002068676A406900E020E0042F20F0070047
:101D700047EA00070DD1D4E90A01074349B12046DB
:101D8000FEF744FF28B140206065012184F835103A
:101D9000CDE0206847612046FEF756FE94F85C20AF
:101DA0003F2102F01F029140816055E0764A904247
:101DB0001BD0754B1433984217D0734B283398427D
:101DC00013D0714B3C3398420FD06F4B5033984235
:101DD0000BD06D4B6433984207D06B4B78339842ED
:101DE00003D0694B8C3398427ED184F8351084F847
:101DF0003450664B0168A26801EA030E402A74D091
:101E0000802A73D05FF00002D4E90378D4E9053169
:101E100042EAD70242EAD8085B4AD4E9077C48EA9A
:101E2000D30848EAD10141EAD701524241EA1C11E4
:101E3000142341EA0E01016020681044B0FBF3F066
:101E40008000E0652046FEF7FFFD94F85C2001214C
:101E500002F01F02914041602068B04257D04449CF
:101E60001831884253D0484551D050454FD058453D
:101E70004DD042491831884249D0404930318842DA
:101E800045D03E494831884241D03D4988423ED004
:101E90003B49183188423AD039493031884236D0EE
:101EA00037494831884232D03549603188422ED096
:101EB0003349783188422AD031499031884226D03E
:101EC0002F49A831884222D02F4988421FD02E495D
:101ED000143188421BD02C492831884217D02A4916
:101EE0003C31884213D002E01DE017E018E026499B
:101EF000503188420BD024496431884207D02249AE
:101F00007831884203D020498C31884229D120463B
:101F1000FEF7F4FDA06880280CD00CE0102273E7D7
:101F20004FF4804270E74021616584F835800120DC
:101F3000BDE8F09F6560216E20790860D4E9190141
:101F400041606068401E072808D82046FEF724FE3E
:101F5000E06E0560D4E91C01416002E0E56625679A
:101F600065670120656584F835000020E0E7000022
:101F70001000024040000240580002407000024041
:101F8000100402403F8010FE085402580F00FEFF6C
:101F900010B590F89830012B09D0022B07D0D0F85B
:101FA0009C1041F00201C0F89C10012010BD036894
:101FB0009C6D0C4203D1DC6D44F0010404E09C6D87
:101FC00031EA04041FD00324DC658B0505D50368C2
:101FD000D3F8E0401443C3F8E0404B0505D503684F
:101FE000D3F8E4401443C3F8E4400068084A01EA27
:101FF0000203446D074A1C434465106840EA91702F
:102000001060002010BDDC6D44F00204DCE700002D
:10201000FFFFCF3F14A8004070B5044690F8980029
:10202000022804D0D4F89C0040F008000DE020689D
:10203000D0F8C03013F07C5F0BD0D0F8C4309B02D6
:102040000CD5D4F89C0040F40070C4F89C0001202A
:1020500070BDD4F89C0040F02000F6E7D0F8C40032
:10206000C0F3044520462B46FEF70EFF21680120F1
:10207000A840C1F8D000C4F89400002070BD70479B
:1020800090F89830012B07D0D0F89C1041F0040153
:10209000C0F89C100120704761B10068012913D07D
:1020A000D0F8B01021F0FE4141EA0261C0F8B01052
:1020B000002070470068D0F8F01021F07C5141EA10
:1020C0000261C0F8F010F3E7D0F8A01021F0FE4153
:1020D00041EA0261C0F8A010EAE770B590F89820D4
:1020E000012A09D0022A07D0D0F89C1041F0020141
:1020F000C0F89C10012070BD0B68CA6883B10B69E1
:10210000072A43EA427325D00C7A4A6942EA84726C
:102110004968006F00EBC100C0E90032002070BDCB
:10212000072A0DD00C7AD6060D8A4B6943EA8472D1
:1021300046EA0543C06E49681A4340F82120EDE79E
:102140000B8A4FF06055D1E9062442EA034245EA82
:102150000423EFE78A69DBE730B590F89850039CD9
:10216000012D07D0D0F89C1041F00401C0F89C105C
:10217000012030BD0D01016845EA820040EA4300BC
:102180002043C1F88000002030BD70477047000038
:10219000F0B590F898400025022C04D0D0F89C109F
:1021A00041F008012BE040294FF0004605D04129BD
:1021B00029D0046D8C4219D942E00468D4F8A0708B
:1021C00017F4FE0F12D0D4F8A4707F0613D0D4F801
:1021D000A470FF0105D5D4F8A070B6EBD77F00D16D
:1021E0000125D4F8A470466F446C24E0D0F89C100C
:1021F00041F0200103E0D0F89C1041F48071C0F858
:102200009C100120F0BD0468D4F8B07017F4FE0FE4
:10221000ECD0D4F8B4707F06EDD0D4F8B470FF01E0
:1022200005D5D4F8B070B6EBD77F00D10125D4F82E
:10223000B470866FC46CC7F305273D446C4302E05D
:10224000446DC66F4C4306EB8404266816F0804646
:102250005660266836D026F060461660D4F800C076
:1022600000262F4F0CF0005CC2F808C0D4F800C064
:102270000CF0004CC2F810C0B4F804C01FFA8CFC7B
:10228000C2F81CC0D4F804C00CF4702CC2F80CC006
:10229000D4F804C00CF4801CC2F814C0D4F804C0F4
:1022A0000CF4001CC2F818C0D4F804C0CCF3066CBF
:1022B000C2F820C0D4F804C008344FEADC7CC2F86D
:1022C00024C008E0C6F38A46C7E700BF14F806C07A
:1022D00003F806C0761CD2F80CC007EB1C4C9CF827
:1022E00000C0B445F2D840290AD041290CD0202999
:1022F0004FF001020CD200688A40C0F898200DE02F
:102300000068C0F8A85009E00068C0F8B85005E0BF
:10231000006801F01F018A40C0F89C200020F0BD39
:1023200024010108704700002DE9FF5FDFF80CB3BE
:1023300004460BF10401DBF8000025680F68AA468B
:102340008007D5F85090696DD5F850806E6D2A6D74
:10235000D5F854C02B6D00EA8770009009F47049DD
:102360006F6D286D01EA09010191DAF85410DAF86D
:102370005490DAF8505008F00F0806EA0806029662
:1023800002F0F00203F071536FEA09061F4000F0FB
:1023900060700CEA020CCDF80CC0F20501EA0009ED
:1023A0000CD4E843C00509D400214FF48073CAF867
:1023B0005030CBF800102046FFF7B4FF700512D460
:1023C000E84340050FD4206800234FF48068D0F81C
:1023D000DC20D0F8E410C0F85080CBF80030114079
:1023E000204600F073FBDFF858A2009850B1226835
:1023F000830F00EA0A001065CBF8003020460099F0
:10240000FFF73DFE019850B12268830F00EA0A00F1
:102410001065CBF800302046019900F059FB029876
:1024200050B12268830F00EA0A001065CBF8003033
:102430002046029900F012FB039850B12268830FE6
:1024400000EA0A001065CBF800302046039900F03E
:102450001DFB30050CD4E843000509D42368002097
:102460004FF400621A65CBF80000204600F031FB03
:10247000B00512D4E84380050FD4206800234FF440
:102480000078D0F8D820D0F8E010C0F85080CBF811
:1024900000301140204600F01AFB30030CD4E84312
:1024A000000309D4236800204FF400221A65CBF8FA
:1024B0000000204600F0D0FAF0030CD4E843C0033B
:1024C00009D4236800204FF480321A65CBF800004D
:1024D000204600F0FAFA70030CD4E843400309D414
:1024E000226800204FF480231365CBF800002046BB
:1024F00000F0EAFAB0030FD4E84380030CD4236859
:1025000000204FF400321A65CBF80000D4F89C008C
:1025100040F08000C4F89C00B9F1000F0BD0226895
:102520004FEA997309EA0A001065CBF80030494672
:102530002046FFF72BFE5FB12268BB0F07EA0A00B7
:102540001065CBF80030D4F89C003843C4F89C00E8
:102550003C492068884268D160688146806880076D
:1025600063D0D9F82060D9F82410D9F82080D9F8A0
:102570002400D9F820C0D9F82470D9F82030D9F82F
:102580002450D9F8202003F4FC4306F00F0AD9F8B0
:1025900024601D40D9F824B008F030080CF4C07C49
:1025A00002F4F02211EA0A0100EA080807EA0C071F
:1025B00006EA0206D9F820A004D0C9F82010204667
:1025C00000F07FFAB8F1000005D06168086241466A
:1025D000204600F078FA6FEA0B0040060ED46FEA4E
:1025E0000A0040060AD460684021C36BC26B0162D6
:1025F0002046190C02F03F0200F064FA2FB1606827
:1026000007623946204600F05BFA35B16068056222
:10261000D4F89C002843C4F89C0036B16068066278
:10262000D4F89C003043C4F89C00D4F89C000028E7
:1026300002D02046FFF7A9FDBDE8FF9F10A800408B
:10264000FFFFCF3F00A000402DE9F04194B08D493D
:102650004C2204466846FDF788FE64B18A4D206826
:10266000A84202D100F58070606094F898004FF0A5
:10267000000820B108E0012014B0BDE8F081204638
:1026800084F8998000F002F92068816921F0100136
:10269000816100F03BFB0327064604E000F036FBB7
:1026A000801B0A2811D8206880690007F6D42068AA
:1026B000816941F00101816100F028FB06460DE0CF
:1026C00000F024FB801B0A2808D9D4F89C0040F0B5
:1026D0000100C4F89C0084F89870CCE720688069F9
:1026E000C007EDD02068816941F002018161207C42
:1026F00001282068816937D041F040018161607C08
:1027000001282068816932D021F480418161A07C58
:102710000128206881692DD041F4805181612068B1
:10272000A268816921F44071114381612068816947
:1027300021F0A40181612068016921F0100101618B
:10274000E068012819D010B302281BD020688169E5
:1027500041F0800181612068016941F0100101614F
:10276000E06803280ED012E021F04001C6E741F4F2
:102770008041CBE721F48051D0E72068816941F0A6
:10278000040103E02068816941F020018161207E1D
:102790006FF0FF02D4E90773A68A1102400602EB2C
:1027A0000727A0F10070384327685B1E184301EB30
:1027B00006463043F861A068B0F5407F11D104F1BE
:1027C0002800A68C6FF00F0C89C801EB0641401E53
:1027D00002EB0322104322680CEB07131843084353
:1027E000D060206E30B12068626ED0F8C010114306
:1027F000C0F8C010D4E917126846D14209D0216848
:10280000A36E51F8C82F50F8233022F007021A4364
:102810000A60216C49B12168626C51F8BC3F50F8E4
:10282000226023F0070232430A60A16C51B1216893
:10283000E36C51F8BC2F50F8233022F0700242EACA
:1028400003120A60216D51B12168626D51F8BC3FDD
:1028500050F8220023F4E06242EA00200860206879
:10286000A84204D16068816821F003018160C4F846
:1028700094800121C4F89C8084F898102046FEF7CB
:102880001FFAF9E63401010800A000402DE9F043E9
:10289000B5B0804614212EA8FDF780FDB82168460A
:1028A000FDF77CFD654C0026D8F800004FF0805104
:1028B000634A0C3C604F4FF00208604D90424FF06D
:1028C000090930D100201B914A13CDE90020684648
:1028D00000F0CEFC08B1FEF7C4F93868401C38603F
:1028E000012807D1286840F480702860286800F427
:1028F00080703390206840F0080020602068032238
:102900002E922EA900F00800CDE92F863196CDE950
:1029100032904C4800F0DEF800220121132000F034
:10292000F5FA13203CE0484A904246D100201B9122
:102930004FF40042CDE90020684600F099FC08B150
:10294000FEF78FF93868401C3860012807D12868E5
:1029500040F480702860286800F48070339020680C
:1029600040F00200206020684FF440522E922EA9C1
:1029700000F00200CDE92F863196CDE93290334840
:1029800000F0A8F800220121142000F0BFFA142062
:1029900000F0AEFA00220121162000F0B7FA16204E
:1029A00000F0A6FA00223F20114600F0AFFA3F20C7
:1029B00000F09EFA35B0BDE8F083254A9042F9D187
:1029C00000201B914FF40042CDE90020684600F042
:1029D0004FFC08B1FEF745F93868401C3860012803
:1029E00007D1286840F480702860286800F480705F
:1029F0003390206840F04000206020684FF4C061B0
:102A00002E912EA900F040003390CDE92F86114879
:102A1000CDE9316800F05EF800229F20114600F0F9
:102A200075FA9F2000F064FA0022A020114600F001
:102A30006DFAA020BCE7000004000024EC4402581A
:102A400000A00040000C025800A4004000040258FE
:102A500000D40040001802587047000010B504462A
:102A60000748844201D10BF039FD0648844201D168
:102A70000BF086FD0448844201D10BF0D3FD10BD5C
:102A80007406002414070024B4070024704790F84B
:102A90009810012907D0D0F89C1041F00401C0F82B
:102AA0009C1001207047022180F8981000220168D4
:102AB0008B6923F001038B61C0F89C20104670479E
:102AC000704770477047704770477047704770474E
:102AD000704770472DE9F84F03247A4D00234FF0DB
:102AE00001094FF0B04B4FF00F0AE4E009FA03F68A
:102AF000324078D00F7907F00307012F01D0022F61
:102B00001AD187684FEA430ED1F80CC004FA0EF8C8
:102B100027EA08070CFA0EFC4CEA070CC0F808C0BC
:102B2000476891F804C0B743CCF3001C0CFA03FCCF
:102B30004CEA070CC0F804C00E79F643B6070BD078
:102B4000C6684FEA43088F6804FA08FC26EA0C06B8
:102B500007FA08F73743C7600E7906F00306022E1E
:102B600012D1DE080F694FEA437C00EB8606B646B9
:102B7000366A4FEADC6C0AFA0CF807FA0CF726EA18
:102B800008063743CEF820700F7906684FEA4308ED
:102B900007F0030704FA08FC07FA08F726EA0C0610
:102BA000374307604E6816F4403F1CD0464E3768E6
:102BB00047F00207376036689F0706F00206009666
:102BC00023F0030606F1B046B6463F0FD6F8086478
:102BD000DFF8F8800AFA07FC404526EA0C0603D124
:102BE0004FF0000C3AE065E0DFF8E4C0604502D148
:102BF0004FF0010C32E0DFF8DCC0604502D14FF04D
:102C0000020C2BE0DFF8D0C0604502D14FF0030C7E
:102C100024E0DFF8C8C0604502D14FF0040C1DE08D
:102C2000DFF8BCC0604502D14FF0050C16E0DFF8BC
:102C3000B4C0604502D14FF0060C0FE0DFF8A8C029
:102C4000604502D14FF0070C08E0DFF8A0C06045F6
:102C500002D14FF0090C01E04FF00A0C0CFA07FC0E
:102C60004CEA060CCEF808C44F68DBF80060FF029F
:102C700026EA020600D516435F46CBF80060D1F87D
:102C800004C0DBF804605FEA8C2C26EA020600D55B
:102C900016437E606E684F6826EA0206BF0300D5C1
:102CA00016436E602E684F6826EA0206FF0300D5C1
:102CB00016432E605B1C0A6832FA03F67FF416AFE7
:102CC000BDE8F88F80000058F44402580000025814
:102CD0000004025800080258000C02580010025864
:102CE0000014025800180258001C02580024025810
:102CF000426921EA02030A4043EA024181617047C6
:102D00000AB1816170470904FBE70000014880684F
:102D1000704700000800002470B5040011D022683C
:102D20004CF6CC4145F25550116021680860D4E959
:102D3000000141602168A0688860FFF7E7FF054651
:102D40000DE0012070BD00BFFFF7E0FF401B312800
:102D500005D92068C068400701D0032070BD2068F5
:102D6000C0684007F0D12068E16802698A4201D05A
:102D7000016102E04AF6AA210160002070BD0168ED
:102D80004AF6AA20086000207047000002488168C7
:102D9000027811448160704708000024032010B5B8
:102DA00000F0D4F801F076F80F4A1049146813685F
:102DB000C4F3032203F00F038A5CC95C02F01F0214
:102DC00001F01F01D0400A4A20FA01F111600949BF
:102DD00008600F2000F010F808B1012010BD00F0CD
:102DE00079F8002010BD000018440258A80101081D
:102DF000180000241400002470B50D4D04462878F6
:102E0000A0B14FF47A71B1FBF0F00A490968B1FB47
:102E1000F0F001F06EFB48B9102C07D200222146D9
:102E2000501E00F073F800206C6070BD012070BD72
:102E30000800002414000024F0B5154C4378211D2F
:102E40000A1D23600378F3B143680B60057BC67AE3
:102E5000817A437B2D07847B45EA0665C77B90F822
:102E600009C0067A90F800E045EAC14040EA834094
:102E700040EA444040EA074040EA0C2040EA46006D
:102E800040EA0E0001E0002008601060F0BD000084
:102E900098ED00E0BFF35F8F044800210368034A08
:102EA00023F48033036070321160704724ED00E03A
:102EB000074A40F00100064970321060086840F48B
:102EC00080300860BFF34F8FBFF36F8F70470000F3
:102ED00024ED00E0054808B5016841F002010160F9
:102EE000006800F00200009008BD0000F4440258A1
:102EF000002809DB410900F01F028900012001F1CF
:102F0000E0219040C1F80001704700000E4BF0B482
:102F10001B680D46C3F30223C3F10706042E00D934
:102F20000426191D072901D2002300E0DB1E01241D
:102F300004FA06F19C40491E2940641E9940144041
:102F40002143F0BC08F0A2BC0CED00E0064900F003
:102F5000070210B54FF6FF040868044B204040EA12
:102F600002201843086010BD0CED00E00000FA05D7
:102F7000134970B50A68D243520705D5096801F0B4
:102F80000701814213D118E00A6822F007020243C8
:102F90000A60FFF7BBFE0A4D4FF47A760446083DFF
:102FA00007E000BFFFF7B2FE001BB04201D90120CD
:102FB00070BD2868C0438004F4D4002070BD0000B8
:102FC0000C48025810B500F01FFF05490968054A72
:102FD000C1F30211515C01F01F01C84010BD000097
:102FE00020440258A8010108494930B5484C0B1D3E
:102FF0000A68143409681D68246802F00303C5F3E5
:103000000012C1F30531C4F3CC04002914FB02F211
:1030100000EE102AF8EE400A75D03F4A9FED3D1AA7
:10302000B7EE000A6BB1DFED3D1A012B01D0022B88
:1030300064D002EE101A1168F8EE422A81EEA22A3C
:1030400021E0334C283C23689B0612D5344B24687E
:1030500001EE901A1168C4F3C104F8EE612AE3404E
:1030600001EE903AC1F30801F8EE611A81EEA22A4E
:103070000BE001EE901ADFED2B2A00BFF8EE611A8B
:10308000116882EEA12AC1F3080101EE901A1168BD
:10309000F8EE611A40EE811A71EE800A62EE200AA3
:1030A000C1F3462101EE101AB8EE411A31EE001AB2
:1030B000C0EE811ABCEEE11A80ED001A1168C1F36E
:1030C000064101EE101AB8EE411A31EE001AC0EEB8
:1030D000811ABCEEE11A80ED011A1168C1F3066194
:1030E00001EE101AB8EE411A31EE000A80EE801A95
:1030F000BCEEC10A80ED020A30BD04E001EE901A78
:10310000DFED092ABAE70021016041608160F3E741
:103110002844025800000039384402580024744AF8
:103120000090D0030024744C20BCBE4B494930B5FC
:10313000484C0B1D0A681C3409681D68246802F09D
:103140000303C5F30022C1F30551C4F3CC040029E5
:1031500014FB02F200EE102AF8EE400A75D03F4A46
:103160009FED3D1AB7EE000A6BB1DFED3D1A012B62
:1031700001D0022B64D002EE101A1168F8EE422A38
:1031800081EEA22A21E0334C283C23689B0612D50D
:10319000344B246801EE901A1168C4F3C104F8EEB0
:1031A000612AE34001EE903AC1F30801F8EE611A9A
:1031B00081EEA22A0BE001EE901ADFED2B2A00BF70
:1031C000F8EE611A116882EEA12AC1F3080101EE3E
:1031D000901A1168F8EE611A40EE811A71EE800AB9
:1031E00062EE200AC1F3462101EE101AB8EE411A30
:1031F00031EE001AC0EE811ABCEEE11A80ED001A21
:103200001168C1F3064101EE101AB8EE411A31EE11
:10321000001AC0EE811ABCEEE11A80ED011A1168A5
:10322000C1F3066101EE101AB8EE411A31EE000A40
:1032300080EE801ABCEEC10A80ED020A30BD04E0C7
:1032400001EE901ADFED092ABAE700210160416022
:103250008160F3E7284402580000003940440258D6
:103260000024744A0090D0030024744C20BCBE4B50
:103270002DE9FE4F0546DFF800A450F8081B002496
:10328000FD4FC943019005F1280026460AF1240AA2
:10329000009008011DD4686E50B1B0F5801F0CD0AD
:1032A000B0F5001F0ED0B0F5401F1ED001240FE076
:1032B000386840F40030386017E00198022107F0C8
:1032C000D5F803E00098022107F060F904000CD063
:1032D00026462888C043C00523D4A86D05281ED2E1
:1032E000DFE800F00C11161B1B006A6EDAF8001004
:1032F00021F440111143CAF80010EAE7386840F49D
:103300000030386009E00198002107F0AFF803E0D1
:103310000098002107F03AF90446C4B100E0012406
:1033200026462888DFF85083C04308F12C08400562
:103330002FD4D5F8A400B0F5C00F28D010DCB8B158
:10334000B0F5001F19D0B0F5800F0FD11AE0AA6DAB
:10335000DAF8001021F007011143CAF80010E0E785
:10336000B0F5000F13D0B0F5200F10D001240FE0FE
:10337000386840F40030386009E00198002107F017
:1033800075F803E00098002107F000F9044694B1B5
:1033900026462888C043000530D4D5F8A800B0F1EF
:1033A000407F29D011DCC0B1B0F1807F1AD0B0F1DC
:1033B000007F10D11BE0D5F8A420D8F8001021F42C
:1033C00060011143C8F80010E3E7B0F1806F13D03B
:1033D000B0F1A06F10D001240FE0386840F4003045
:1033E000386009E00198002107F040F803E00098F8
:1033F000002107F0CBF8044694B126462868DFF890
:1034000078B2C0430BF1200B80011FD4E86CD8B117
:1034100010280FD0202812D0302815D0012414E015
:10342000D5F8A820D8F8001021F0E0611143C8F8C1
:103430000010E3E7386840F40030386004E0019899
:10344000022107F013F8044674B126462888C043C9
:10345000C0042BD4E86DB0F5005F20D00DDCA0B126
:10346000B0F5805F0FD115E0EA6CDBF8001021F0B9
:1034700030011143CBF80010E8E7B0F5405F13D0FE
:10348000B0F5804F10D001240FE0386840F40030D0
:10349000386009E00198002106F0E8FF03E0009899
:1034A000002107F073F804468CB126462888C043F3
:1034B000800429D4286EB0F5403F23D010DC08B337
:1034C000B0F5803F14D0B0F5003F0FD115E0EA6DA4
:1034D000DAF8001021F4E0411143CAF80010E5E7E2
:1034E000B0F5802F0ED0B0F5A02F0BD001240AE04C
:1034F0000198012106F0BAFF03E00098012107F0CE
:1035000045F8044694B126462888C04340042AD48E
:10351000D5F8AC00B0F1405F23D010DC08B3B0F1B7
:10352000805F14D0B0F1005F0FD115E02A6EDAF899
:10353000001021F4E0211143CAF80010E4E7B0F1D3
:10354000804F0ED0B0F1A04F0BD001240AE00198BB
:10355000012106F08BFF03E00098012107F016F827
:10356000044674B126462888C04300041FD4E86E80
:10357000D8B1B0F1805F0ED0B0F1005F10D001245F
:1035800014E0D5F8AC20D8F8001021F0E041114348
:10359000C8F80010E7E7386840F40030386004E00D
:1035A0000198012106F062FF044674B1264628689E
:1035B000C043C0011ED4A86CD0B101280ED002288F
:1035C00011D0032814D0012413E0EA6EDAF80010B9
:1035D00021F040511143CAF80010E8E7386840F480
:1035E0000030386004E00198022106F03FFF0446F5
:1035F0006CB126462868C043400255D41F48016874
:1036000041F480710160FFF781FB81460EE0AA6CF6
:10361000DBF8001021F003011143CBF80010E9E7BB
:10362000FFF774FBA0EB090064283BD8134800683F
:10363000C005F5D5BCBBDFF84090B5F8B01009F176
:103640004409D9F8000001F4407100F44070884248
:1036500011D0D9F80010D9F8002021F4407142F4BB
:103660008032C9F80020D9F8002022F48032C9F84D
:103670000020C9F8001003E02C440258004802580A
:10368000D5F8B000B0F5807F19D1FFF73FFB02906D
:1036900011E000BFFFF73AFB0299411A41F288306E
:1036A000814208D9032426462878DFF81494C043C1
:1036B000C00721D03CE0D9F800008007EAD5D5F852
:1036C000B010C1F301200328FE480DD0016821F499
:1036D0007C510160B5F8B020D9F80010C2F30B029C
:1036E0001143C9F80010DFE7F74A036802EA111234
:1036F00023F47C511143ECE7A86F182816D005DCA1
:10370000A0B1082808D0102804D10AE020280DD044
:1037100028280BD001240AE00198012106F0A6FE1A
:1037200003E00098012106F031FF044664B126460B
:103730002878C04380071ED4686F062819D2DFE8B6
:1037400000F0160C11161616AA6FD9F8001021F009
:1037500038011143C9F80010EAE70198012106F089
:1037600085FE03E00098012106F010FF04467CB1BD
:1037700000E0012426462878C04340071FD4D5F82E
:103780009000062819D2DFE800F0160C1116161664
:103790006A6FD9F8001021F007011143C9F8001031
:1037A000E9E70198012106F061FE03E0009801219C
:1037B00006F0ECFE0446A4B100E001242646287879
:1037C000C04380062BD4D5F88C00B0F1405F24D0E4
:1037D00011DC10B3B0F1805F15D0B0F1005F10D1F3
:1037E00016E0D5F89020D8F8001021F00701114319
:1037F000C8F80010E3E7B0F1804F0ED0B0F1A04F51
:103800000BD001240AE00198002106F02FFE03E00E
:103810000098022106F0BAFE044694B126462878A4
:10382000C04340062BD4D5F89800B0F5406F24D0A3
:1038300011DC10B3B0F5806F15D0B0F5006F10D16A
:1038400016E0D5F88C20D9F8001021F0E0411143A2
:10385000C9F80010E3E7B0F5805F0ED0B0F5A05FC7
:103860000BD001240AE00198002106F0FFFD03E0DF
:103870000098022106F08AFE044694B12646287874
:10388000C04300062BD4D5F89C00B0F5C04F24D01F
:1038900011DC10B3B0F5005F15D0B0F5804F10D13A
:1038A00016E0D5F89820D8F8001021F4E051114323
:1038B000C8F80010E3E7B0F5004F0ED0B0F5204F88
:1038C0000BD001240AE00198002106F0CFFD03E0AF
:1038D0000098022106F05AFE044654B12646287884
:1038E000C04300071ED4D5F88000B0F5805F0AD031
:1038F0000FE0D5F89C20D8F8001021F46041114366
:10390000C8F80010EBE70098022106F03FFE00B176
:103910000126D5F88020D9F8001021F44051114338
:10392000C9F800102878C043C00613D4D5F8940015
:10393000B0F5807F05D10098022106F027FE00B186
:103940000126D5F89420D8F8001021F440711143D5
:10395000C8F800102868C043000316D4D5F8A000AA
:1039600038B1B0F5803F09D0B0F5003F0BD001244D
:103970000AE00198002106F079FD03E00098022199
:1039800006F004FE04468CB126462868C043400376
:1039900022D4D5F88400B0F5801F11D0B0F5001FF7
:1039A00013D0B0F5401F15D0012414E0D5F8A020A5
:1039B000D8F8001021F440311143C8F80010E4E7B2
:1039C000386840F40030386004E00098012106F0C7
:1039D000DDFD04465CB126462868C043C0031CD404
:1039E000286D70B1B0F5803F10D0012414E0D5F8F7
:1039F0008420D9F8001021F440111143C9F80010B7
:103A0000EAE7386840F40030386004E001980221A9
:103A100006F02CFD0446DCB126462868C043800031
:103A200005D40098022106F0B1FD00B101262868F6
:103A3000C04380031BD4E86FB8B1B0F5807F10D0CD
:103A4000B0F5007F11D0B0F5407F0ED001240DE01D
:103A50002A6DDBF8001021F480311143CBF80010FF
:103A6000DBE7386840F4003038607CB326462868CD
:103A7000C043C00207D42A6FDAF8001021F00041D9
:103A80001143CAF800102868C043800207D4AA6E08
:103A9000DAF8001021F080711143CAF8001028688C
:103AA000C043400009D40748016821F40041016087
:103AB0000168D5F8B420114301602868C04306E0CE
:103AC0005444025810440258CFFFFF001DE007D4B1
:103AD0006A6DDBF8001021F040511143CBF8001063
:103AE0002868C043000208D4D5F88820D9F800100F
:103AF00021F440011143C9F8001028790024C04383
:103B000000F00100204309D00EE0EA6FD9F8001060
:103B100021F440711143C9F80010A8E70198002171
:103B200006F0A4FC00B106462879C04300F002006C
:103B3000204305D10198012106F098FC00B106460A
:103B40002879C04300F00400204305D101980221E8
:103B500006F08CFC00B106462879C04300F008004E
:103B6000204305D10098002106F010FD00B1064663
:103B70002879C04300F01000204305D100980121AE
:103B800006F004FD00B106462879C04300F020008D
:103B9000044304D10098022106F0F8FC00B916B1E4
:103BA0000120BDE8FE8F0020FBE700002DE9F05F5B
:103BB00004000F467ED0DFF83882D8F8000000F00D
:103BC0000F00B8420CD2D8F8001021F00F01394391
:103BD000C8F80010D8F8000000F00F00B84269D112
:103BE0002078844D40070AD52069296801F07001CA
:103BF000884204D9296821F07001014329602078A6
:103C00007C4E361D00070AD56069316801F07001ED
:103C1000884204D9316821F0700101433160207875
:103C2000C0060AD5A069316801F4E061884204D970
:103C3000316821F4E061014331602078DFF8B4B1EC
:103C400080060BF1080B0CD5E1695846DBF8002023
:103C500002F07002914204D9026822F070020A4315
:103C60000260207880070AD5E068296801F00F011A
:103C7000884204D9296821F00F0101432960207886
:103C8000C0073ED05B49A2682868183920F47060EC
:103C9000104328606068022818D0032819D00968EA
:103CA000012819D0490700294ADADFF848A1AAF10A
:103CB000080A00E044E0DAF8002022F0070202439C
:103CC000CAF80020FFF722F8814612E0096889034C
:103CD000E9E709688901E6E7C905E4E7FFF716F8AF
:103CE000A0EB090141F28830814202D90320BDE8EE
:103CF000F09F6168DAF8000000F03800B0EBC10F07
:103D0000ECD1207880070AD5E068296801F00F011E
:103D1000884204D2296821F00F0101432960D8F8B4
:103D20000010404601F00F01B9420BD9016821F0A3
:103D30000F0139430160006800F00F00B84201D064
:103D40000120D4E7207840070AD52069296801F0CE
:103D50007001884204D2296821F070010143296072
:103D6000207800070AD56069316801F07001884247
:103D700004D2316821F07001014331602078C0061F
:103D80000AD5A069316801F4E061884204D2316843
:103D900021F4E06101433160207880060CD5E169AF
:103DA0005846DBF8002002F07002914204D202680B
:103DB00022F070020A43026000F06CF80E492A6893
:103DC0002B68C2F3032203F00F038A5CC95C02F084
:103DD0001F0201F01F01D040084A20FA01F11160D2
:103DE0000749086007480068BDE8F05FFFF704B8BE
:103DF0000020005218440258A801010818000024AD
:103E0000140000240C00002430B500F043F80B4AE5
:103E10000B490C4B15681468C5F3032204F00F041A
:103E20008A5C095D02F01F0201F01F01D040064AC2
:103E300020FA01F119601060084630BD184402589C
:103E4000A8010108180000241400002400B5FFF7A1
:103E5000DBFF05490968054AC1F30211515C01F015
:103E60001F01C84000BD00001C440258A801010801
:103E700000B5FFF7C9FF05490968054AC1F30221EA
:103E8000515C01F01F01C84000BD00001C440258F5
:103E9000A8010108454970B545480968434B103BE6
:103EA00011F0380208D00111082A03D0102A0BD0D3
:103EB000182A0BD0084670BD19688906FBD5196809
:103EC000C1F3C101C84070BD3A4870BD3749374D94
:103ED00018310C1D24350A68096826682D6802F01F
:103EE000030406F00102C1F30511C5F3CC0515FB6F
:103EF00002F200EE102AB8EE400AE9B32F4ADFEDD5
:103F00002E0AB7EE001A6CB1DFED2D1A012C01D08C
:103F1000022C43D002EE101A1068F8EE422A81EE0D
:103F2000A22A1EE01C68A40611D51B6801EE901A97
:103F30001168C3F3C103F8EE612AD84001EE900A7C
:103F4000C1F30800F8EE611A81EEA22A0BE001EE3F
:103F5000901ADFED1C2A00BFF8EE611A106882EE9D
:103F6000A12AC0F3080001EE900AF8EE611A40EEB3
:103F7000201A31EE810A00E015E022EE000A1068F6
:103F8000C0F34620401C00EE900AF8EE600A80EE76
:103F9000201ABCEEC10A10EE100A70BD01EE901A94
:103FA000DFED092AD8E7002070BD00001044025858
:103FB0000090D00340787D01000000393044025861
:103FC0000024744A0024744C20BCBE4B2DE9F05FE1
:103FD00004007DD0FF4F2078FE4D1837DFF8F483C2
:103FE000103DC00748D0D8F80000396800F038000C
:103FF000102815D0182803D101F0030002280FD093
:104000006068B0F5803F12D010B1B0F5A02F18D085
:10401000286820F480302860286820F4802009E097
:104020002868800328D560680028D2D024E028685A
:1040300040F480302860606888B1FEF767FE06466D
:1040400009E0286840F480202860F0E7FEF75EFE73
:10405000801B64287ED828688003F7D50CE0FEF723
:1040600055FE064605E000BFFEF750FE801B6428A3
:10407000F0D828688003F7D42078800756D5D8F880
:104080000000DFF85093396810F03800A9F10C09EE
:104090000ED0182801D188070AD0E068A8B3296893
:1040A00021F0190101432960FEF730FE064628E0A1
:1040B0002868400702D5E06800288AD0E1682868AF
:1040C00020F0190008432860FEF720FE064606E0AF
:1040D000D2E000BFFEF71AFE801B0228BAD828687B
:1040E0004007F7D5217CD9F8002022F0FE4242EAB1
:1040F0000161C9F8001019E0FEF708FE801B0228D4
:10410000A8D828684007F7D5ECE7FFE7286820F033
:1041100001002860FEF7FAFD064604E0FEF7F6FD12
:10412000801B022896D828684007F7D42078C0065C
:1041300046D5D8F80000DFF89C92396800F03800C6
:10414000A9F10409082812D0182805D101F00300AC
:10415000012800E0CEE00AD0E0690028286820D0DD
:1041600040F080002860FEF7D1FD064615E0286883
:10417000C00502D5E06980287ED194F82010D9F8D6
:10418000002022F07C5242EA0161C9F8001017E0D9
:10419000FEF7BCFD801B0228A0D82868C005F7D513
:1041A000EBE720F080002860FEF7B0FD064604E053
:1041B000FEF7ACFD801B022890D82868C005F7D414
:1041C0002078000729D58348616964300029814639
:1041D000016811D041F001010160FEF797FD06462C
:1041E00005E000BFFEF792FD801B022888D8D9F8B1
:1041F00000008007F6D510E021F001010160FEF714
:1042000085FD064605E000BFFEF780FD801B022805
:1042100070D8D9F800008007F6D42078800623D51E
:10422000A0690028286810D040F480502860FEF76C
:104230006DFD064605E000BFFEF768FD801B022805
:1042400058D828688004F7D50EE020F48050286004
:10425000FEF75CFD064604E0FEF758FD801B0228D1
:1042600048D828688004F7D42078400751D5DFF873
:104270006891D9F8001000E015E141F48071C9F8A7
:104280000010FEF743FD064605E000BFFEF73EFDC9
:10429000801B64282ED8D9F80000C005F6D54D4EF5
:1042A000A068603601280AD008B1052813D030680C
:1042B00020F001003060306820F0040002E0306837
:1042C00040F001003060A06841F2883A98B1FEF7F2
:1042D0001DFD81460AE0306840F004003060EEE7E2
:1042E000FEF714FDA0EB0901514503D830688007A3
:1042F000F6D50EE072E0FEF709FD814606E000BF4C
:10430000FEF704FDA0EB0901514567D8306880072E
:10431000F6D4606A00287CD0DFF8B8A0D8F8001086
:104320000AF1200A4FF6F87B0AF10408C1F3C20132
:104330000329AAF104096DD00228286820F08070B2
:10434000286003D0FEF7E2FC044681E0FEF7DEFCC5
:10435000064604E0FEF7DAFC801B022875D82868C0
:104360008001F7D4E26A40F2F331386854F8283F0C
:10437000884340EA021018433860217B4FF4FE0C5A
:1043800022894FF0FE47208A4902267D521E401E98
:10439000A1F5007189B2C2F308021143761E0CEA3E
:1043A00000400143484607EA06621143CAF800107C
:1043B000D9F8001021F00101C9F80010D8F8003038
:1043C000266A23EA0B0343EAC601C8F80010D9F8AD
:1043D000001004E0104402580048025835E0A26979
:1043E00021F00C011143C9F800100168E26921F0C5
:1043F000020111430160016841F4803101600168EC
:1044000041F400310160016841F4802101600168DC
:1044100001E06CE020E041F001010160286840F01B
:1044200080702860FEF772FC044604E0FEF76EFC24
:10443000001B022809D828688001F7D557E000BF83
:10444000FEF764FC001B022802D90320BDE8F09FA0
:1044500028688001F4D44AE039680128DAF80000BD
:1044600021D0A26A01F0030393421CD1E26AC1F396
:1044700005118A4217D1216BC0F30802491E8A42F6
:1044800011D1616BC0F34622491E91420BD1A16B41
:10449000C0F30642491E914205D1E16BC0F30660AC
:1044A000491E814201D00120D0E7A16C4646D8F8D0
:1044B0000000C0F3CC00814219D0D9F800004D466D
:1044C00020F00100C9F80000FEF720FC4FEA0007C9
:1044D000FEF71CFCB842FBD0A26C306820EA0B004F
:1044E00040EAC2003060286840F0010028600020E7
:1044F000ACE7401EB0F1807F10B501D3012010BDA4
:104500004FF0E02460610F21601707F0BFF9002031
:10451000A0610721216110BD7047704770470000FE
:10452000F0B590F83C20012A41D0224E012480F8B9
:104530003C40022280F83D2002681F4D5368B24281
:10454000D2F808C001D0AA4203D14F6823F4700307
:104550003B430F6823F070031F4357600268B24269
:1045600019D0B2F1804F16D0144B9A4213D0144B8D
:104570009A4210D0134B9A420DD0AA420BD0124B44
:104580009A4208D0114B9A4205D0114B9A4202D060
:10459000104B9A4204D189682CF080031943916032
:1045A000002180F83D4080F83C100846F0BD022014
:1045B000F0BD000000000140000401400004004084
:1045C00000080040000C004000180040004001407E
:1045D00000E0004000E4004010B5040003D094F86F
:1045E0003D0010B107E0012010BD002084F83C0020
:1045F000204600F023F8022084F83D002068211DA9
:1046000006F064FA012084F8480084F83E0084F83B
:104610003F0084F8400084F8410084F8420084F8A8
:10462000430084F8440084F8450084F8460084F888
:10463000470084F83D00002010BD000008B5006868
:104640000B49884212D10B48016841F0100101600A
:1046500000680022114600F0100000903620FEF79E
:1046600055FCBDE808403620FEF742BC08BD0000FE
:1046700000100040E844025890F83D10012901D094
:10468000012070471A4A022180F83D100168CB686A
:1046900043F00103CB60006890421AD0B0F1804F24
:1046A00017D01449884214D01349884211D01349B5
:1046B00088420ED0124988420BD01249884208D055
:1046C0001149884205D01149884202D010498842D8
:1046D00007D181680F4A1140062906D0B1F5803F05
:1046E00003D0016841F00101016000207047000023
:1046F000000001400004004000080040000C0040A1
:1047000000040140001800400040014000E000406B
:1047100000E4004007000100704770B504460068DF
:1047200000250169C943890715D4C168C9438907B0
:1047300011D4EA1E02610121217720688069800777
:10474000204602D0FFF7E8FF04E000F0A7F820467B
:1047500000F0A5F8257720680169C943490717D4F7
:10476000C168C943490713D402216FF004020261F2
:1047700021772068806910F4407F204602D0FFF73F
:10478000CBFF04E000F08AF8204600F088F8257797
:1047900020680169C943090716D4C168C9430907DC
:1047A00012D404216FF00802026121772068C069E9
:1047B0008007204602D0FFF7AFFF04E000F06EF85C
:1047C000204600F06CF8257720680169C943C906C6
:1047D00017D4C168C943C90613D408216FF0100269
:1047E000026121772068C06910F4407F204602D022
:1047F000FFF792FF04E000F051F8204600F04FF878
:10480000257720680169C943C90708D1C168C94330
:10481000C90704D1891E0161204600F041F82068D3
:104820000169C943090609D4C168C943090605D409
:104830006FF0800101612046FFF76FFE206801697B
:10484000C943C90509D4C168C943090605D46FF431
:10485000807101612046FFF75FFE20680169C9434E
:10486000490609D4C168C943490605D46FF040011F
:104870000161204600F04AF820680169C9438906B1
:104880000BD4C168C943890607D46FF020010161C8
:104890002046BDE87040FFF741BE70BD70477047CD
:1048A00010B500681349884222D1134C2068401C7F
:1048B00020601248FEF763FA1149124809F00AFD18
:1048C00005F0F4FE09F086FF08F056FE0AF000FD40
:1048D0000AF008FF01F056F96068401C6060B0F50E
:1048E000FA7F05D108488021FEF702FA00206060B7
:1048F00010BD0000001000404C06002454080024A5
:10490000640F00247406002400180258704730B564
:1049100090F88410012918D0012280F884202421E5
:10492000C0F888100022202401680B680D6823F06D
:10493000005325F001050D60426601680B60C0F868
:10494000884080F88420104630BD022030BD70477A
:10495000704770B5044690F8840001281DD00122EC
:1049600084F884202420C4F8880020680568026840
:1049700022F0010202602068826822F060620A432D
:104980008260204606F014F922682021002015607C
:10499000C4F8881084F8840070BD022070BD70B522
:1049A000044690F8840001281DD0012284F8842058
:1049B0002420C4F8880020680568026822F00102FB
:1049C00002602068826822F060420A4382602046CA
:1049D00006F0EEF82268202100201560C4F8881047
:1049E00084F8840070BD022070BD704770470000DD
:1049F00010B50B4904460068884204D109490122D8
:104A0000094800F077FB09492068884207D1054929
:104A10000122BDE810400648491E00F06BBB10BDE6
:104A200000780040BB040024B0080024004400408B
:104A3000440900242DE9F04107680025044640F6AA
:104A40000F030226F8693968BA6818420AD183064A
:104A50007ED501F0200302F0805C53EA0C0377D08E
:104A6000616F74E1CF4BDFF840C3134001EA0C0CD7
:104A700053EA0C0C6CD05FEAC07C0CD05FEAC15CDE
:104A800009D54FF0010CC7F820C0D4F8907047F05A
:104A90000107C4F89070870709D5D70707D02768A2
:104AA0003E62D4F8906046F00406C4F89060460771
:104AB0000AD5D60708D0276804263E62D4F890604D
:104AC00046F00206C4F8906006070CD501F02006F7
:104AD0001E4308D0266808233362D4F8903043F090
:104AE0000803C4F8903003050BD54B0109D526689F
:104AF0004FF400633362D4F8903043F02003C4F8DD
:104B00009030D4F89030002B3DD0800609D501F0CC
:104B1000200002F08051084303D0616F09B12046A4
:104B200088472168D4F890008968490602D410F0BB
:104B3000280F2AD0204606F021F920688068400618
:104B40001ED52068083050E8001F21F0400100E029
:104B500021E040E80012002AF3D1D4F8800078B1B7
:104B600092490165D4F88000FCF77EFB00280AD04A
:104B7000D4F88000016D00E02046BDE8F041084710
:104B80002046FFF735FFBDE8F0812046FFF730FFF4
:104B9000C4F89050F7E7D4F86CC02023BCF1010FA3
:104BA0007ED15FEAC06C7BD55FEAC16C78D51020FE
:104BB000386220688068400673D5D4F880107C4A3B
:104BC0000868904234D07A4A1832904230D0784AFD
:104BD000303290422CD0764A4832904228D0744AE3
:104BE0006032904224D0724A7832904220D0704A8B
:104BF000903290421CD06E4AA832904218D06D4A32
:104C0000904215D06B4A1832904211D0694A303226
:104C100090420DD0674A4832904209D0654A6032CE
:104C2000904205D0634A7832904201D0614A903276
:104C300040680004000CA6D0B4F85C208242A2D9DF
:104C4000A4F85E00C869B0F5807F2FD0216851E8D4
:104C5000000F20F4807041E80002002AF6D120689D
:104C6000083050E8001F21F0010140E80012002A3E
:104C7000F5D12068083050E8001F21F0400140E8DD
:104C80000012002AF5D1C4F88C30E566216851E89D
:104C9000000F20F0100041E80002002AF6D101E0E8
:104CA00040E00BE0D4F88000FCF72EF92667B4F85A
:104CB0005C00B4F85E10401A81B22FE0B4F85C00DA
:104CC000B4F85E10B4F85E20401A81B2002AB2D067
:104CD0000029B0D0226852E8000F20F4907042E81A
:104CE0000007002FF6D1344F206800F1080050E88B
:104CF000002F02EA070240E8002CBCF1000FF3D1BC
:104D0000C4F88C30E5666567206850E8002F22F013
:104D1000100240E80023002BF6D126672046FFF75B
:104D200016FE30E7C60209D5560207D54FF48010AB
:104D300038622046BDE8F041FFF758BE06060AD5A6
:104D400001F0800602F40002164304D0A16F00298E
:104D50007FF412AF17E7420611D54A060FD5204659
:104D6000026852E8001F21F0400142E80014002CC4
:104D7000F6D1C0F88830856700F09CFA03E702029C
:104D800006D54A0004D52046BDE8F041FFF72DBE08
:104D9000C001C6D50029C4DA2046BDE8F041FFF7BE
:104DA000D7BD0000010000102001000467AD00081D
:104DB0001000024010040240FEFFFFEF10B5040097
:104DC00003D0D4F8880010B107E0012010BD002006
:104DD00084F88400204600F027F82420C4F88800D6
:104DE0002068016821F001010160204606F058FAB0
:104DF0000128EBD0A06A10B1204605F0FBFE206828
:104E0000416821F4904141602068816821F02A01C5
:104E100081602068016841F0010101602046BDE821
:104E2000104005F04BBF00002DE9F04FB5B005462E
:104E300014212EA8FBF7B2FAB8216846FBF7AEFAA8
:104E4000A34A0021A14C4FF0020828684FF007093F
:104E50009E4E083C17154FF0400A904263D1002047
:104E60008B4602221D91CDE900206846FEF700FA2C
:104E700008B1FBF7F6FE306840F0804030603068E3
:104E800000F080403390206840F0100020602068DF
:104E90004FF4C0722E922EA900F010005C46CDE9AE
:104EA0002F8BCDF8C4B0CDE932908A48FDF712FEC1
:104EB000894E4F21894886E81300C6E9034774618B
:104EC0003046B461F46134627462FCF783FE08B169
:104ED000FBF7C7FEDFF800825023C5F8806008F1B9
:104EE0007808B56340467D4A1832C0E90347C8F8E0
:104EF0001440C8F81840C8F81C40C8F8204088E89A
:104F00000C04C8F82440FCF765FE08B1FBF7A9FEC5
:104F1000C5F87C8000220321C8F838505220FDF7E4
:104F2000F5FF522064E06E4A904266D100208B4625
:104F300002221D91CDE900206846FEF799F908B1DB
:104F4000FBF78FFE306840F400303060306800F4CA
:104F500000303390206840F0080020602068602214
:104F60002E922EA900F008005C46CDE92F8BCDF8DB
:104F7000C4B0CDE932905B48FDF7ACFD564E2B2115
:104F80005648F036303086E81300C6E903477461AE
:104F90003046B461F46134627462FCF71BFE08B100
:104FA000FBF75FFEDFF840812C23C5F880604046A8
:104FB000B5634A4AC0E90347C8F814404832C8F804
:104FC0001840C8F81C40C8F8204088E80C04C8F80D
:104FD0002440FCF7FFFD08B1FBF743FEC5F87C80D9
:104FE00000220221C8F838502620FDF78FFF262026
:104FF000FDF77EFF35B0BDE8F08F3C4A9042F9D115
:1050000000228B46022368461D91CDE90032FEF74F
:105010002FF908B1FBF725FE306840F4802030609E
:10502000306800F480203390206840F00200206057
:1050300020684FF440622E922EA900F002005C46D8
:10504000CDE92F8BCDF8C4B0CDE932902848FDF7DB
:1050500041FD254E2D2121487836303886E8130051
:10506000C6E9034774613046B461F4613462746226
:10507000FCF7B0FD08B1FBF7F4FDDFF86C802E23E0
:10508000C5F8806008F1F008B5634046134A183A45
:10509000C0E90347C8F81440C8F81840C8F81C40D5
:1050A000C8F8204088E80C04C8F82440FCF792FDBA
:1050B00008B1FBF7D6FDC5F87C8000220221C8F8B4
:1050C00038502720FDF722FF272091E7E8440258B7
:1050D00000780040001002586C0A00244000024092
:1050E00000440040000C0258D40B0024004800404B
:1050F0000004025830B4D0F88C30202B02D00220AB
:1051000030BC7047A9B1A2B10B4D00240368C4663E
:10511000AB420BD05B681B0208D5046854E8003F23
:1051200043F0806344E80035002DF6D130BC06F032
:10513000A5BA0120E4E70000000C00582DE9F04179
:105140002949064600680027284D294C88420AD183
:1051500028464378607878B9A52B0DD025480122E0
:10516000691CFFF7C7FF2449306888423AD11F4EB7
:105170002078C836A8B11DE0204A00F1010C0CF0DF
:10518000FF0CBCF1100F135484F801C0E6D1677016
:105190001078A528E2D1D07B5A28DFD105F0ACFBEE
:1051A000DCE729780F2905D0104901221448FFF7C0
:1051B000A1FF03E02A78411C32542170207818287E
:1051C00009D1277030780F2805D1307E18B90B48E7
:1051D00064380AF011FFBDE8F04104490122084893
:1051E000FFF788BFBDE8F08100440040BA04002406
:1051F000000000244409002400780040E605002453
:10520000B00800242DE9F8430446D0F888009846F9
:1052100016460D46202802D00220BDE8F883A5B12D
:105220009EB10021C4F890102120C4F888001834E1
:10523000FDF76CFD814654F8100CA687E687202701
:10524000183CB0F5805F02D003E00120E5E720695B
:1052500010B12E46002510E000260EE080212046E9
:1052600006F094FAC0B9DEB116F8010B2168886225
:10527000B4F85600401EA4F85600B4F856004B4649
:105280004FF00002CDF800800028E7D14FF0400138
:10529000204606F07BFA48B1C4F888700320BCE7CA
:1052A00035F8020B2168C0F30800E0E7C4F8887005
:1052B0000020B2E77047FEE71D4808B5016841F0DD
:1052C0000101016000680022114600F00100009019
:1052D0000B20FDF71BFE0B20FDF70AFE00220C2021
:1052E0001146FDF713FE0C20FDF702FE00220D20F3
:1052F0001146FDF70BFE0D20FDF7FAFD00220E20F2
:105300001146FDF703FE0E20FDF7F2FD00220F20EF
:105310001146FDF7FBFD0F20FDF7EAFD00221020EE
:105320001146FDF7F3FDBDE808401020FDF7E0BD94
:10533000D8440258184800212DE9F041154F1D2589
:105340008160012407600326C1600A2301740422DE
:10535000417484744661C0E90635C0E90836C0E985
:105360000A358463C0E90C31C0E90F12C0E911218C
:10537000C0E91321C0E91521C0E91712C0E91912CB
:10538000FDF762F9002803D0BDE8F041FBF769BCE6
:10539000BDE8F08100A000407406002418480021F8
:1053A0002DE9F041154F1D2581600124076003267A
:1053B000C1600A2301740422417484744661C0E907
:1053C0000635C0E90836C0E90A358463C0E90C3106
:1053D000C0E90F12C0E91121C0E91321C0E915216C
:1053E000C0E91712C0E91912FDF72EF9002803D001
:1053F000BDE8F041FBF735BCBDE8F08100A40040FA
:1054000014070024184800212DE9F041154F1D25EF
:105410008160012407600326C1600A23017404220D
:10542000417484744661C0E90635C0E90836C0E9B4
:105430000A358463C0E90C31C0E90F12C0E91121BB
:10544000C0E91321C0E91521C0E91712C0E91912FA
:10545000FDF7FAF8002803D0BDE8F041FBF701BCE6
:10546000BDE8F08100D40040B407002410B586B038
:1054700014216846FAF792FF2548016841F00401BB
:105480000160016801F004010591016841F08001AB
:105490000160016801F080010591016841F010018F
:1054A0000160016801F010010591016841F00201FD
:1054B0000160016801F002010591016841F04001BD
:1054C0000160016801F040010591016841F00101AE
:1054D0000160016801F001010591016841F00801D6
:1054E0000160006800220B4C802100F0080005904C
:1054F0002046FDF705FC012100228020CDE90001B6
:10550000CDE9021269462046FDF7E4FA06B010BD67
:10551000E04402580018025809481E21074B012296
:1055200010B50360C160C0E90121FDF7F5FB00285B
:1055300003D0BDE81040FBF794BB10BD00480058F5
:10554000540800243EB5104800244FF47A710D4BE6
:10555000F022009401940294C0E902418461C0E900
:105560000032FFF739F808B1FBF77BFB06486946C4
:1055700000940294FEF7D4FF002801D0FBF771FBE2
:105580003EBD0000001000406408002417480021C0
:1055900010B5154C0C22164B0460C0E90131C160F6
:1055A000C0E904128161C161016241628162FFF759
:1055B00005FC08B1FBF755FB0C480021FFF7EFF99C
:1055C00008B1FBF74EFB09480021FFF7C2F908B10B
:1055D000FBF747FB0548FFF79AF9002803D0BDE821
:1055E0001040FBF73EBB10BD00780040B00800241F
:1055F000A08601001848002110B5164C0C224FF46B
:10560000E1330460C0E90131C160C0E90412816185
:10561000C161016241628162FFF7D0FB08B1FBF713
:1056200020FB0D480021FFF7BAF908B1FBF719FB81
:1056300009480021FFF78DF908B1FBF712FB064876
:10564000FFF765F9002803D0BDE81040FBF709BB60
:1056500010BD000000440040440900241848002107
:1056600010B5164C0C224FF4E1330460C0E901314F
:10567000C160C0E904128161C1610162416281625D
:10568000FFF79CFB08B1FBF7ECFA0D480021FFF790
:1056900086F908B1FBF7E5FA09480021FFF759F947
:1056A00008B1FBF7DEFA0648FFF731F9002803D00E
:1056B000BDE81040FBF7D5BA10BD0000004800401F
:1056C000D8090024FEE7FEE7B7EEC00B5B4A0128CD
:1056D000F7EEC10BB7EEC21B0BD0022842D0032855
:1056E00015D1082913D2DFE801F012777E858C935B
:1056F0009AA108290BD2DFE801F00A040B12192045
:10570000272E82ED2A0AC2ED150A82ED001A704793
:1057100082ED2B0AC2ED160A82ED011A704782ED66
:105720002C0AC2ED170A82ED021A704782ED2D0A8B
:10573000C2ED180A82ED031A704782ED2E0AC2EDFF
:10574000190A82ED041A704782ED2F0AC2ED1A0A77
:1057500082ED051A704782ED300AC2ED1B0A82ED18
:10576000061A70470829FCD2DFE801F004050C1383
:105770001A21282FF5E782ED310AC2ED1C0A82EDCD
:10578000071A704782ED320AC2ED1D0A82ED081A2F
:10579000704782ED330AC2ED1E0A82ED091A704786
:1057A00082ED340AC2ED1F0A82ED0A1A704782EDBB
:1057B000350AC2ED200A82ED0B1A704782ED360AD7
:1057C000C2ED210A82ED0C1A704782ED370AC2ED54
:1057D000220A82ED0D1A704782ED380AC2ED230AC3
:1057E00082ED0E1A704782ED390AC2ED240A82ED6D
:1057F0000F1A704782ED3A0AC2ED250A82ED101A9F
:10580000704782ED3B0AC2ED260A82ED111A7047FD
:1058100082ED3C0AC2ED270A82ED121A704782ED32
:105820003D0AC2ED280A82ED131A704782ED3E0A46
:10583000C2ED290A82ED141A704700003C000024D2
:10584000B7EEC00B5B4A0128F7EEC10BB7EEC21BE7
:105850000BD0022842D0032815D1082913D2DFE843
:1058600001F012777E858C939AA108290BD2DFE88C
:1058700001F00A040B121920272E82ED690AC2EDED
:10588000540A82ED3F1A704782ED6A0AC2ED550A4A
:1058900082ED401A704782ED6B0AC2ED560A82ED26
:1058A000411A704782ED6C0AC2ED570A82ED421A26
:1058B000704782ED6D0AC2ED580A82ED431A7047B7
:1058C00082ED6E0AC2ED590A82ED441A704782EDEC
:1058D0006F0AC2ED5A0A82ED451A70470829FCD2B8
:1058E000DFE801F004050C131A21282FF5E782EDFB
:1058F000700AC2ED5B0A82ED461A704782ED710AAA
:10590000C2ED5C0A82ED471A704782ED720AC2ED61
:105910005D0A82ED481A704782ED730AC2ED5E0A95
:1059200082ED491A704782ED740AC2ED5F0A82ED7A
:105930004A1A704782ED750AC2ED600A82ED4B1A71
:10594000704782ED760AC2ED610A82ED4C1A70470B
:1059500082ED770AC2ED620A82ED4D1A704782ED40
:10596000780AC2ED630A82ED4E1A704782ED790A19
:10597000C2ED640A82ED4F1A704782ED7A0AC2EDD9
:10598000650A82ED501A704782ED7B0AC2ED660A05
:1059900082ED511A704782ED7C0AC2ED670A82EDF2
:1059A000521A704782ED7D0AC2ED680A82ED531AE1
:1059B000704700003C0000247049022081F88802F2
:1059C00081F8890281F88A0281F88B0281F8DE026F
:1059D00081F8DF0281F8DC0281F8DD029FED680AC0
:1059E0000A4682ED1F0A81F8DA0281F8DB0281F8AB
:1059F000D80281F8D90282ED1E0A81F8D60281F818
:105A0000D70281F8D40281F8D50282ED1D0A81F80F
:105A1000D20281F8D30281F8D00281F8D10282ED5E
:105A20001C0A81F8CE0281F8CF0281F8CC0281F8FD
:105A3000CD0282ED1B0A81F8CA0281F8CB0281F8FF
:105A4000C80281F8C90282ED1A0A81F8C60281F8FB
:105A5000C70281F8C40281F8C50282ED190A81F8F3
:105A6000B20281F8B30281F8B00281F8B10282ED8E
:105A7000140A81F8AE0281F8AF0281F8AC0281F815
:105A8000AD0282ED130A81F8AA0281F8AB0281F817
:105A9000A80281F8A90282ED120A81F8A60281F813
:105AA000A70281F8A40281F8A50282ED110A81F80B
:105AB000A20281F8A30281F8A00281F8A10282ED7E
:105AC000100A81F89E0281F89F0281F89C0281F8F9
:105AD0009D0282ED0F0A81F89A0281F89B0281F8FB
