:020000040800F2
:10000000281F0024E50200082F350008A53200084B
:100010002D3500086B0400088189000800000000ED
:10002000000000000000000000000000BD8000088B
:100030005505000800000000797E0008CD8000080A
:10004000FF020008FF020008FF020008FF0200088C
:10005000FF020008FF020008FF020008FF0200087C
:10006000FF020008FF020008FF020008FF0200086C
:10007000FF020008FF020008FF020008FF0200085C
:10008000FF020008FF020008FF0200085D050008EB
:1000900069050008FF02000875050008FF02000856
:1000A000FF020008FF020008FF020008FF0200082C
:1000B000FF020008FF020008FF020008FF0200081C
:1000C000FF020008FF020008FF020008FF0200080C
:1000D000FF020008FF020008FF020008FF020008FC
:1000E000FF020008FF02000800000000FF020008F5
:1000F000FF020008FF020008FF020008FF020008DC
:10010000FF020008FF020008FF020008FF020008CB
:10011000FF020008FF02000829820008FF02000811
:10012000FF020008FF020008FF020008FF020008AB
:10013000FF020008FF020008FF02000899050008FE
:1001400000000000000000000000000000000000AF
:10015000FF020008FF020008FF020008FF0200087B
:10016000FF020008FF020008FF020008FF0200086B
:10017000FF020008FF020008FF0200080000000064
:10018000FF020008FF020008FF020008FF0200084B
:10019000FF020008FF020008FF020008FF0200083B
:1001A000FF020008FF020008FF0200080000000034
:1001B000FF020008FF020008FF020008FF0200081B
:1001C000FF020008FF02000800000000000000001D
:1001D0000000000000000000FF0200080000000016
:1001E000000000000000000000000000000000000F
:1001F0000000000000000000FF020008FF020008ED
:10020000FF020008FF02000800000000FF020008D3
:10021000FF020008FF020008FF020008FF020008BA
:10022000FF02000800000000FF02000800000000BC
:10023000FF020008FF02000800000000FF020008A3
:10024000FF020008FF020008FF020008FF0200088A
:10025000FF020008FF020008FF020008FF0200087A
:10026000FF020008FF020008FF020008FF0200086A
:10027000FF020008FF020008FF0200080000000063
:10028000FF020008FF020008FF020008FF0200084A
:1002900000000000FF020008FF020008000000004C
:1002A00000000000FF020008FF020008FF02000833
:1002B000FF020008FF020008FF0200088105000895
:1002C0008D050008FF020008FF020008DFF810D0CB
:1002D00000F08EF8004800474D980008AFF300800A
:1002E000281F00240648804706480047FEE7FEE72F
:1002F000FEE7FEE7FEE7FEE7FEE7FEE7FEE7FEE7D6
:1003000069810008CD0200082DE9F05F0546002054
:1003100092469B4688460646814640241BE0284676
:1003200041464746224600F053F853465A46C01A03
:10033000914110D311461846224600F03AF82D1A82
:1003400067EB01084F4622460120002100F031F8FA
:1003500017EB00094E41201EA4F10104DFDC4846E2
:1003600031462A464346BDE8F09F40EA01039B0719
:1003700003D009E008C9121F08C0042AFAD203E01A
:1003800011F8013B00F8013B521EF9D27047D2B27E
:1003900001E000F8012B491EFBD270470022F6E76E
:1003A00010B513460A4604461946FFF7F0FF2046EB
:1003B00010BD202A04DB203A00FA02F10020704729
:1003C0009140C2F1200320FA03F319439040704793
:1003D000202A04DB203A21FA02F00021704721FA9A
:1003E00002F3D040C2F12002914008431946704701
:1003F000064C074D06E0E06840F0010394E8070072
:1004000098471034AC42F6D3FFF764FFA4AC000861
:10041000C4AC000870B58C1810F8015B15F0070328
:1004200001D110F8013B2A1106D110F8012B03E08D
:1004300010F8016B01F8016B5B1EF9D12B0705D495
:100440000023521E0DD401F8013BFAE710F8013BDE
:10045000CB1A921C03E013F8015B01F8015B521EFA
:10046000F9D5A142D8D3002070BDFEE72DE9F041B7
:10047000154DDDE9066414B1012C03D005E04FF4FD
:10048000007401E040F2FF142C60104C00276F60F4
:100490004FF4002CAF604FEA112EC5F80CC0170ABC
:1004A00084F800E01D0A61704FEA162CA770E27014
:1004B00022462571637184F806C0E671BDE8F041FB
:1004C000014900F0DFB90000B4060024190000243F
:1004D000F0B50B78012402229BB14F7803261A4D08
:1004E0001A4B012FFFEE000A0DD0022FB7EE001AB3
:1004F0000ED010EE106A9E421BDB4C7080ED001A8D
:10050000F0BD0C701DE010EE104AAC4208D210E0B5
:1005100010EE102A9A42F0DA10EE102AAA4203D303
:100520004E70C0ED000AF0BD9FED090A80ED000A93
:10053000F0BD10EE100A9842FADA10EE100AA84246
:10054000F6D24A70F0BD000000409CC500409C45BA
:1005500000000000704772B6FEE70000014800F09E
:1005600019BB0000F4030024014800F013BB000095
:1005700094040024014800F00DBB00009404002402
:10058000014800F007BB000034050024014800F0DA
:1005900001BB000034050024044810B500F0FAFA4D
:1005A000BDE81040024800F0F5BA0000F403002452
:1005B00094040024F0B503684FF6FC716D4C426B57
:1005C000D3F884508D4345EA8205C3F8845003680C
:1005D00053F8845F068F25F47F0545EA06451D60C4
:1005E000836B654D9F180268D2F888308B4343EACD
:1005F0008703C2F88830026852F8883F868F23F458
:10060000FE0343EA06431360066856F8A03FC26B38
:100610008B4307EB420243EA82033360076857F8D3
:10062000A03FB0F8406023F4FE0343EA06433B607A
:10063000D0E9103603FB06220368D3F8B0608E437E
:1006400046EA8206C3F8B0600368B0F84860D3F8A1
:10065000B07027F4FE0747EA0646C3F8B060D0E959
:100660001267036806FB0722D3F8AC608E4346EAA4
:100670008206C3F8AC60D0E91467036806FB072262
:10068000D3F8F0608E4346EA8206C3F8F060036850
:10069000B0F85860D3F8F07027F47C1747EA0646A4
:1006A000C3F8F0600368876D53F8C06F02EB470230
:1006B0008E4346EA820119600168B0F85C20D1F8E7
:1006C000C03023F47C1343EA0242C1F8C020016821
:1006D00090F86020D1F8C03023F07C5343EA0262E6
:1006E000C1F8C020416B04EB8101C166826B01EB54
:1006F00082020267C36B02EBC3024267D0E9103487
:10070000634302EB83028267D0E91234634302EB56
:100710008302C267D0E91434634302EB8302C0F85A
:100720008020836D02EBC303C0F88430C46D826EF9
:10073000544303EB8403C0F88830046E544303EB46
:100740008402C0F89020AA420AD9D0F89C20032144
:1007500042F02002C0F89C2080F898100120F0BDE3
:10076000002200E004C1D0F890308B42FAD800207B
:10077000F0BD000000AC0040FCD30040F0B58E6836
:100780000C69D1E9005744EA0604DFB145F0804521
:100790002C43866ED1E906C54F695E4391F820303F
:1007A00045EA0C05D0F884E00020D1F80CC047EAF7
:1007B0000363114F1D430EEB860345EA0C05E3E886
:1007C000024511E044EA8544E3E71418155CA67875
:1007D00094F803C094F801E0360445EA0C6446EA54
:1007E0000E252C43001D10C3CC6807EB144424785D
:1007F0008442EAD8F0BD000010AC000810B590F8B3
:100800009830012B09D0022B07D0D0F89C1041F072
:100810000201C0F89C10012010BD03689C6D0C42C1
:1008200003D1DC6D44F0010404E09C6D31EA040462
:100830001FD00324DC658B0505D50368D3F8E040A1
:100840001443C3F8E0404B0505D50368D3F8E440F2
:100850001443C3F8E4400068084A01EA0203446D07
:10086000074A1C434465106840EA917010600020FC
:1008700010BDDC6D44F00204DCE70000FFFFCF3F59
:1008800014A8004070B5044690F89800022804D0DF
:10089000D4F89C0040F008000DE02068D0F8C0308B
:1008A00013F07C5F0BD0D0F8C4309B020CD5D4F889
:1008B0009C0040F40070C4F89C00012070BDD4F886
:1008C0009C0040F02000F6E7D0F8C400C0F30445D7
:1008D00020462B46FFF752FF21680120A840C1F8AF
:1008E000D000C4F89400002070BD704790F8983094
:1008F000012B07D0D0F89C1041F00401C0F89C10E7
:100900000120704761B10068012913D0D0F8B01000
:1009100021F0FE4141EA0261C0F8B01000207047AA
:100920000068D0F8F01021F07C5141EA0261C0F873
:10093000F010F3E7D0F8A01021F0FE4141EA026187
:10094000C0F8A010EAE770B590F89820012A09D005
:10095000022A07D0D0F89C1041F00201C0F89C1088
:10096000012070BD0B68CA6883B10B69072A43EA8E
:10097000427325D00C7A4A6942EA84724968006F52
:1009800000EBC100C0E90032002070BD072A0DD085
:100990000C7AD6060D8A4B6943EA847246EA05430F
:1009A000C06E49681A4340F82120EDE70B8A4FF0EA
:1009B0006055D1E9062442EA034245EA0423EFE701
:1009C0008A69DBE730B590F89850039C012D07D079
:1009D000D0F89C1041F00401C0F89C10012030BDFB
:1009E0000D01016845EA820040EA43002043C1F856
:1009F0008000002030BD704770470000F0B590F8CF
:100A000098400025022C04D0D0F89C1041F0080139
:100A10002BE040294FF0004605D0412929D0046D34
:100A20008C4219D942E00468D4F8A07017F4FE0F84
:100A300012D0D4F8A4707F0613D0D4F8A470FF01AC
:100A400005D5D4F8A070B6EBD77F00D10125D4F836
:100A5000A470466F446C24E0D0F89C1041F0200153
:100A600003E0D0F89C1041F48071C0F89C10012084
:100A7000F0BD0468D4F8B07017F4FE0FECD0D4F8D1
:100A8000B4707F06EDD0D4F8B470FF0105D5D4F86A
:100A9000B070B6EBD77F00D10125D4F8B470866F63
:100AA000C46CC7F305273D446C4302E0446DC66F38
:100AB0004C4306EB8404266816F080465660266890
:100AC00036D026F060461660D4F800C000262F4FBE
:100AD0000CF0005CC2F808C0D4F800C00CF0004C68
:100AE000C2F810C0B4F804C01FFA8CFCC2F81CC0D5
:100AF000D4F804C00CF4702CC2F80CC0D4F804C0B4
:100B00000CF4801CC2F814C0D4F804C00CF4001C0F
:100B1000C2F818C0D4F804C0CCF3066CC2F820C0E8
:100B2000D4F804C008344FEADC7CC2F824C008E0E2
:100B3000C6F38A46C7E700BF14F806C003F806C02C
:100B4000761CD2F80CC007EB1C4C9CF800C0B445D6
:100B5000F2D840290AD041290CD020294FF00102B7
:100B60000CD200688A40C0F898200DE00068C0F8F8
:100B7000A85009E00068C0F8B85005E0006801F02E
:100B80001F018A40C0F89C200020F0BD10AC000876
:100B9000704700002DE9FF5FDFF80CB304460BF14E
:100BA0000401DBF8000025680F68AA468007D5F825
:100BB0005090696DD5F850806E6D2A6DD5F854C08F
:100BC0002B6D00EA8770009009F470496F6D286DF5
:100BD00001EA09010191DAF85410DAF85490DAF8D0
:100BE000505008F00F0806EA0806029602F0F002DC
:100BF00003F071536FEA09061F4000F060700CEAC1
:100C0000020CCDF80CC0F20501EA00090CD4E8434F
:100C1000C00509D400214FF48073CAF85030CBF8D6
:100C200000102046FFF7B4FF700512D4E8434005DA
:100C30000FD4206800234FF48068D0F8DC20D0F86F
:100C4000E410C0F85080CBF800301140204600F08E
:100C500073FBDFF858A2009850B12268830F00EAB6
:100C60000A001065CBF8003020460099FFF73DFEE2
:100C7000019850B12268830F00EA0A001065CBF892
:100C800000302046019900F059FB029850B12268CB
:100C9000830F00EA0A001065CBF800302046029965
:100CA00000F012FB039850B12268830F00EA0A009B
:100CB0001065CBF800302046039900F01DFB30058D
:100CC0000CD4E843000509D4236800204FF40062E7
:100CD0001A65CBF80000204600F031FBB00512D4B5
:100CE000E84380050FD4206800234FF40078D0F843
:100CF000D820D0F8E010C0F85080CBF80030114078
:100D0000204600F01AFB30030CD4E843000309D45A
:100D1000236800204FF400221A65CBF8000020461B
:100D200000F0D0FAF0030CD4E843C00309D42368E0
:100D300000204FF480321A65CBF80000204600F006
:100D4000FAFA70030CD4E843400309D42268002067
:100D50004FF480231365CBF80000204600F0EAFA38
:100D6000B0030FD4E84380030CD4236800204FF471
:100D700000321A65CBF80000D4F89C0040F08000E7
:100D8000C4F89C00B9F1000F0BD022684FEA9973A8
:100D900009EA0A001065CBF8003049462046FFF703
:100DA0002BFE5FB12268BB0F07EA0A001065CBF883
:100DB0000030D4F89C003843C4F89C003C492068BB
:100DC000884268D1606881468068800763D0D9F81E
:100DD0002060D9F82410D9F82080D9F82400D9F857
:100DE00020C0D9F82470D9F82030D9F82450D9F887
:100DF000202003F4FC4306F00F0AD9F824601D40BC
:100E0000D9F824B008F030080CF4C07C02F4F022C9
:100E100011EA0A0100EA080807EA0C0706EA0206D6
:100E2000D9F820A004D0C9F82010204600F07FFA9D
:100E3000B8F1000005D0616808624146204600F024
:100E400078FA6FEA0B0040060ED46FEA0A004006FB
:100E50000AD460684021C36BC26B01622046190C42
:100E600002F03F0200F064FA2FB160680762394671
:100E7000204600F05BFA35B160680562D4F89C004A
:100E80002843C4F89C0036B160680662D4F89C0020
:100E90003043C4F89C00D4F89C00002802D02046BF
:100EA000FFF7A9FDBDE8FF9F10A80040FFFFCF3F5F
:100EB00000A000402DE9F04194B08D494C22044639
:100EC0006846FFF752FA64B18A4D2068A84202D101
:100ED00000F58070606094F898004FF0000820B131
:100EE00008E0012014B0BDE8F081204684F8998024
:100EF00000F002F92068816921F01001816100F0A1
:100F000033FB0327064604E000F02EFB801B0A2873
:100F100011D8206880690007F6D42068816941F003
:100F20000101816100F020FB06460DE000F01CFB92
:100F3000801B0A2808D9D4F89C0040F00100C4F8AE
:100F40009C0084F89870CCE720688069C007EDD0D9
:100F50002068816941F002018161207C01282068BC
:100F6000816937D041F040018161607C01282068AF
:100F7000816932D021F480418161A07C0128206800
:100F800081692DD041F4805181612068A268816916
:100F900021F44071114381612068816921F0A4012D
:100FA00081612068016921F010010161E068012878
:100FB00019D010B302281BD02068816941F080014C
:100FC00081612068016941F010010161E068032836
:100FD0000ED012E021F04001C6E741F48041CBE79A
:100FE00021F48051D0E72068816941F0040103E0D9
:100FF0002068816941F020018161207E6FF0FF024D
:10100000D4E90773A68A1102400602EB0727A0F174
:101010000070384327685B1E184301EB06463043D7
:10102000F861A068B0F5407F11D104F12800A68CCA
:101030006FF00F0C89C801EB0641401E02EB032242
:10104000104322680CEB071318430843D060206E4E
:1010500030B12068626ED0F8C0101143C0F8C010E3
:10106000D4E917126846D14209D02168A36E51F81D
:10107000C82F50F8233022F007021A430A60216C6F
:1010800049B12168626C51F8BC3F50F8226023F0EE
:10109000070232430A60A16C51B12168E36C51F838
:1010A000BC2F50F8233022F0700242EA03120A608B
:1010B000216D51B12168626D51F8BC3F50F822009A
:1010C00023F4E06242EA002008602068A84204D1CC
:1010D0006068816821F003018160C4F89480012177
:1010E000C4F89C8084F898102046FFF763FAF9E66C
:1010F00020AC000800A000402DE9F043B5B08046C8
:1011000014212EA8FFF74AF9B8216846FFF746F9DF
:10111000654C0026D8F800004FF08051634A0C3C23
:10112000604F4FF00208604D90424FF0090930D1F6
:1011300000201B914A13CDE90020684600F08CFC8A
:1011400008B1FFF708FA3868401C3860012807D159
:10115000286840F480702860286800F4807033901C
:10116000206840F008002060206803222E922EA9FB
:1011700000F00800CDE92F863196CDE932904C4839
:1011800000F0DEF800220121132000F0B3FA132052
:101190003CE0484A904246D100201B914FF4004267
:1011A000CDE90020684600F057FC08B1FFF7D3F9FD
:1011B0003868401C3860012807D1286840F48070E6
:1011C0002860286800F480703390206840F00200A6
:1011D000206020684FF440522E922EA900F00200A9
:1011E000CDE92F863196CDE93290334800F0A8F84A
:1011F00000221420114600F07DFA142000F06CFA51
:1012000000221620114600F075FA162000F064FA4C
:1012100000223F20114600F06DFA3F2000F05CFAFA
:1012200035B0BDE8F083254A9042F9D100201B91EA
:101230004FF40042CDE90020684600F00DFC08B1F3
:10124000FFF789F93868401C3860012807D1286801
:1012500040F480702860286800F480703390206823
:1012600040F04000206020684FF4C0612E912EA90C
:1012700000F040003390CDE92F861148CDE9316868
:1012800000F05EF800229F20114600F033FA9F2004
:1012900000F022FA0022A020114600F02BFAA02034
:1012A000BCE7000000000024EC44025800A000400D
:1012B000000C025800A400400004025800D4004072
:1012C000001802587047000010B5044607488442D1
:1012D00001D107F0B9FE0648844201D107F006FFAC
:1012E0000448844201D107F053FF10BDF4030024E9
:1012F0009404002434050024704790F898100129C4
:1013000007D0D0F89C1041F00401C0F89C100120D7
:101310007047022180F89810002201688B6923F041
:1013200001038B61C0F89C201046704770477047DE
:1013300070477047704770477047704770477047F5
:101340002DE9F84F03247A4D00234FF001094FF0A7
:10135000B04B4FF00F0AE4E009FA03F6324078D0C0
:101360000F7907F00307012F01D0022F1AD18768E8
:101370004FEA430ED1F80CC004FA0EF827EA08072A
:101380000CFA0EFC4CEA070CC0F808C0476891F84C
:1013900004C0B743CCF3001C0CFA03FC4CEA070C66
:1013A000C0F804C00E79F643B6070BD0C6684FEA02
:1013B00043088F6804FA08FC26EA0C0607FA08F7C7
:1013C0003743C7600E7906F00306022E12D1DE08FD
:1013D0000F694FEA437C00EB8606B646366A4FEA51
:1013E000DC6C0AFA0CF807FA0CF726EA0806374311
:1013F000CEF820700F7906684FEA430807F003071C
:1014000004FA08FC07FA08F726EA0C0637430760D7
:101410004E6816F4403F1CD0464E376847F002072E
:10142000376036689F0706F00206009623F0030631
:1014300006F1B046B6463F0FD6F80864DFF8F880EC
:101440000AFA07FC404526EA0C0603D14FF0000CCF
:101450003AE065E0DFF8E4C0604502D14FF0010CEE
:1014600032E0DFF8DCC0604502D14FF0020C2BE027
:10147000DFF8D0C0604502D14FF0030C24E0DFF864
:10148000C8C0604502D14FF0040C1DE0DFF8BCC0BD
:10149000604502D14FF0050C16E0DFF8B4C060459E
:1014A00002D14FF0060C0FE0DFF8A8C0604502D172
:1014B0004FF0070C08E0DFF8A0C0604502D14FF004
:1014C000090C01E04FF00A0C0CFA07FC4CEA060C80
:1014D000CEF808C44F68DBF80060FF0226EA020677
:1014E00000D516435F46CBF80060D1F804C0DBF8A6
:1014F00004605FEA8C2C26EA020600D516437E6063
:101500006E684F6826EA0206BF0300D516436E6078
:101510002E684F6826EA0206FF0300D516432E60A8
:101520005B1C0A6832FA03F67FF416AFBDE8F88F49
:1015300080000058F4440258000002580004025889
:1015400000080258000C02580010025800140258FB
:1015500000180258001C0258002402580AB1816188
:1015600070470904FBE700000148806870470000ED
:1015700004000024024881680278114481607047A9
:1015800004000024032010B500F0D4F801F076F830
:101590000F4A104914681368C4F3032203F00F03C1
:1015A0008A5CC95C02F01F0201F01F01D0400A4AA8
:1015B00020FA01F11160094908600F2000F010F8CD
:1015C00008B1012010BD00F079F8002010BD000026
:1015D0001844025894AC00081400002410000024A1
:1015E00070B50D4D04462878A0B14FF47A71B1FB67
:1015F000F0F00A490968B1FBF0F001F06EFB48B960
:10160000102C07D200222146501E00F073F8002053
:101610006C6070BD012070BD040000241000002427
:10162000F0B5154C4378211D0A1D23600378F3B1F2
:1016300043680B60057BC67A817A437B2D07847BE8
:1016400045EA0665C77B90F809C0067A90F800E085
:1016500045EAC14040EA834040EA444040EA07404E
:1016600040EA0C2040EA460040EA0E0001E000207B
:1016700008601060F0BD000098ED00E0BFF35F8FE0
:10168000044800210368034A23F480330360703266
:101690001160704724ED00E0074A40F00100064960
:1016A00070321060086840F480300860BFF34F8FDC
:1016B000BFF36F8F7047000024ED00E0054808B5C8
:1016C000016841F002010160006800F00200009032
:1016D00008BD0000F4440258002809DB410900F06D
:1016E0001F028900012001F1E0219040C1F80001B2
:1016F000704700000E4BF0B41B680D46C3F3022385
:10170000C3F10706042E00D90426191D072901D2AA
:10171000002300E0DB1E012404FA06F19C40491E70
:101720002940641E994014402143F0BC07F029B9B8
:101730000CED00E0064900F0070210B54FF6FF047B
:101740000868044B204040EA02201843086010BD9E
:101750000CED00E00000FA05134970B50A68D243A9
:10176000520705D5096801F00701814213D118E03D
:101770000A6822F0070202430A60FFF7F5FE0A4DED
:101780004FF47A760446083D07E000BFFFF7ECFE11
:10179000001BB04201D9012070BD2868C0438004FD
:1017A000F4D4002070BD00000C48025810B500F0C1
:1017B0001FFF05490968054AC1F30211515C01F098
:1017C0001F01C84010BD00002044025894AC00081E
:1017D000494930B5484C0B1D0A68143409681D6826
:1017E000246802F00303C5F30012C1F30531C4F30A
:1017F000CC04002914FB02F200EE102AF8EE400A95
:1018000075D03F4A9FED3D1AB7EE000A6BB1DFED90
:101810003D1A012B01D0022B64D002EE101A116880
:10182000F8EE422A81EEA22A21E0334C283C2368BC
:101830009B0612D5344B246801EE901A1168C4F34C
:10184000C104F8EE612AE34001EE903AC1F30801C9
:10185000F8EE611A81EEA22A0BE001EE901ADFED9C
:101860002B2A00BFF8EE611A116882EEA12AC1F39B
:10187000080101EE901A1168F8EE611A40EE811A23
:1018800071EE800A62EE200AC1F3462101EE101AC1
:10189000B8EE411A31EE001AC0EE811ABCEEE11A20
:1018A00080ED001A1168C1F3064101EE101AB8EE7E
:1018B000411A31EE001AC0EE811ABCEEE11A80ED39
:1018C000011A1168C1F3066101EE101AB8EE411A4F
:1018D00031EE000A80EE801ABCEEC10A80ED020AE9
:1018E00030BD04E001EE901ADFED092ABAE70021CD
:1018F000016041608160F3E728440258000000392C
:10190000384402580024744A0090D0030024744CD8
:1019100020BCBE4B494930B5484C0B1D0A681C34ED
:1019200009681D68246802F00303C5F30022C1F3AF
:101930000551C4F3CC04002914FB02F200EE102A76
:10194000F8EE400A75D03F4A9FED3D1AB7EE000A07
:101950006BB1DFED3D1A012B01D0022B64D002EEFA
:10196000101A1168F8EE422A81EEA22A21E0334CC7
:10197000283C23689B0612D5344B246801EE901A4C
:101980001168C4F3C104F8EE612AE34001EE903A15
:10199000C1F30801F8EE611A81EEA22A0BE001EE14
:1019A000901ADFED2B2A00BFF8EE611A116882EE63
:1019B000A12AC1F3080101EE901A1168F8EE611A2C
:1019C00040EE811A71EE800A62EE200AC1F34621D0
:1019D00001EE101AB8EE411A31EE001AC0EE811A6B
:1019E000BCEEE11A80ED001A1168C1F3064101EE68
:1019F000101AB8EE411A31EE001AC0EE811ABCEE90
:101A0000E11A80ED011A1168C1F3066101EE101AA6
:101A1000B8EE411A31EE000A80EE801ABCEEC10A1F
:101A200080ED020A30BD04E001EE901ADFED092AD4
:101A3000BAE70021016041608160F3E72844025861
:101A400000000039404402580024744A0090D0033A
:101A50000024744C20BCBE4B2DE9FE4F0546DFF838
:101A600000A450F8081B0024FD4FC943019005F164
:101A7000280026460AF1240A009008011DD4686E49
:101A800050B1B0F5801F0CD0B0F5001F0ED0B0F5EE
:101A9000401F1ED001240FE0386840F40030386049
:101AA00017E00198022106F0E9F903E0009802210D
:101AB00006F074FA04000CD026462888C043C005FE
:101AC00023D4A86D05281ED2DFE800F00C11161BE8
:101AD0001B006A6EDAF8001021F440111143CAF8B5
:101AE0000010EAE7386840F40030386009E00198F7
:101AF000002106F0C3F903E00098002106F04EFA39
:101B00000446C4B100E0012426462888DFF850834B
:101B1000C04308F12C0840052FD4D5F8A400B0F537
:101B2000C00F28D010DCB8B1B0F5001F19D0B0F547
:101B3000800F0FD11AE0AA6DDAF8001021F007012A
:101B40001143CAF80010E0E7B0F5000F13D0B0F56C
:101B5000200F10D001240FE0386840F400303860C6
:101B600009E00198002106F089F903E000980021BE
:101B700006F014FA044694B126462888C0430005AE
:101B800030D4D5F8A800B0F1407F29D011DCC0B125
:101B9000B0F1807F1AD0B0F1007F10D11BE0D5F8F2
:101BA000A420D8F8001021F460011143C8F80010F7
:101BB000E3E7B0F1806F13D0B0F1A06F10D0012433
:101BC0000FE0386840F40030386009E001980021E7
:101BD00006F054F903E00098002106F0DFF904460E
:101BE00094B126462868DFF878B2C0430BF1200B89
:101BF00080011FD4E86CD8B110280FD0202812D053
:101C0000302815D0012414E0D5F8A820D8F8001009
:101C100021F0E0611143C8F80010E3E7386840F4B0
:101C20000030386004E00198022106F027F90446EC
:101C300074B126462888C043C0042BD4E86DB0F5A3
:101C4000005F20D00DDCA0B1B0F5805F0FD115E0B2
:101C5000EA6CDBF8001021F030011143CBF80010E2
:101C6000E8E7B0F5405F13D0B0F5804F10D0012405
:101C70000FE0386840F40030386009E00198002136
:101C800006F0FCF803E00098002106F087F904460E
:101C90008CB126462888C043800429D4286EB0F52C
:101CA000403F23D010DC08B3B0F5803F14D0B0F52E
:101CB000003F0FD115E0EA6DDAF8001021F4E041A1
:101CC0001143CAF80010E5E7B0F5802F0ED0B0F54B
:101CD000A02F0BD001240AE00198012106F0CEF8D4
:101CE00003E00098012106F059F9044694B1264614
:101CF0002888C04340042AD4D5F8AC00B0F1405F36
:101D000023D010DC08B3B0F1805F14D0B0F1005FD5
:101D10000FD115E02A6EDAF8001021F4E02111430A
:101D2000CAF80010E4E7B0F1804F0ED0B0F1A04F38
:101D30000BD001240AE00198012106F09FF803E08E
:101D40000098012106F02AF9044674B12646288835
:101D5000C04300041FD4E86ED8B1B0F1805F0ED04C
:101D6000B0F1005F10D0012414E0D5F8AC20D8F811
:101D7000001021F0E0411143C8F80010E7E738688F
:101D800040F40030386004E00198012106F076F854
:101D9000044674B126462868C043C0011ED4A86C0E
:101DA000D0B101280ED0022811D0032814D001246C
:101DB00013E0EA6EDAF8001021F040511143CAF83E
:101DC0000010E8E7386840F40030386004E001981B
:101DD000022106F053F804466CB126462868C04339
:101DE000400255D41F48016841F480710160FFF73B
:101DF000BBFB81460EE0AA6CDBF8001021F003016A
:101E00001143CBF80010E9E7FFF7AEFBA0EB0900A8
:101E100064283BD813480068C005F5D5BCBBDFF883
:101E20004090B5F8B01009F14409D9F8000001F468
:101E3000407100F44070884211D0D9F80010D9F8F0
:101E4000002021F4407142F48032C9F80020D9F812
:101E5000002022F48032C9F80020C9F8001003E005
:101E60002C44025800480258D5F8B000B0F5807FE5
:101E700019D1FFF779FB029011E000BFFFF774FB67
:101E80000299411A41F28830814208D9032426463A
:101E90002878DFF81494C043C00721D03CE0D9F87B
:101EA00000008007EAD5D5F8B010C1F3012003285F
:101EB000FE480DD0016821F47C510160B5F8B020D6
:101EC000D9F80010C2F30B021143C9F80010DFE784
:101ED000F74A036802EA111223F47C511143ECE73C
:101EE000A86F182816D005DCA0B1082808D0102843
:101EF00004D10AE020280DD028280BD001240AE0C4
:101F00000198012105F0BAFF03E00098012106F0D5
:101F100045F8044664B126462878C04380071ED49D
:101F2000686F062819D2DFE800F0160C1116161695
:101F3000AA6FD9F8001021F038011143C9F8001038
:101F4000EAE70198012105F099FF03E000980121DB
:101F500006F024F804467CB100E0012426462878E7
:101F6000C04340071FD4D5F89000062819D2DFE8F7
:101F700000F0160C111616166A6FD9F8001021F031
:101F800007011143C9F80010E9E70198012105F0A4
:101F900075FF03E00098012106F000F80446A4B1A3
:101FA00000E0012426462878C04380062BD4D5F8CB
:101FB0008C00B0F1405F24D011DC10B3B0F1805F31
:101FC00015D0B0F1005F10D116E0D5F89020D8F808
:101FD000001021F007011143C8F80010E3E7B0F149
:101FE000804F0ED0B0F1A04F0BD001240AE0019831
:101FF000002105F043FF03E00098022105F0CEFF29
:10200000044694B126462878C04340062BD4D5F820
:102010009800B0F5406F24D011DC10B3B0F5806F9C
:1020200015D0B0F5006F10D116E0D5F88C20D9F896
:10203000001021F0E0411143C9F80010E3E7B0F5CA
:10204000805F0ED0B0F5A05F0BD001240AE00198AC
:10205000002105F013FF03E00098022105F09EFF28
:10206000044694B126462878C04300062BD4D5F800
:102070009C00B0F5C04F24D011DC10B3B0F5005F68
:1020800015D0B0F5804F10D116E0D5F89820D8F8CB
:10209000001021F4E0511143C8F80010E3E7B0F557
:1020A000004F0ED0B0F5204F0BD001240AE001986C
:1020B000002105F0E3FE03E00098022105F06EFF29
:1020C000044654B126462878C04300071ED4D5F8EC
:1020D0008000B0F5805F0AD00FE0D5F89C20D8F8DA
:1020E000001021F460411143C8F80010EBE700989C
:1020F000022105F053FF00B10126D5F88020D9F860
:10210000001021F440511143C9F800102878C04351
:10211000C00613D4D5F89400B0F5807F05D100989F
:10212000022105F03BFF00B10126D5F89420D8F834
:10213000001021F440711143C8F800102868C04312
:10214000000316D4D5F8A00038B1B0F5803F09D00F
:10215000B0F5003F0BD001240AE00198002105F002
:102160008DFE03E00098022105F018FF04468CB1B3
:1021700026462868C043400322D4D5F88400B0F531
:10218000801F11D0B0F5001F13D0B0F5401F15D03F
:10219000012414E0D5F8A020D8F8001021F4403133
:1021A0001143C8F80010E4E7386840F400303860A4
:1021B00004E00098012105F0F1FE04465CB12646DA
:1021C0002868C043C0031CD4286D70B1B0F5803FAF
:1021D00010D0012414E0D5F88420D9F8001021F49F
:1021E00040111143C9F80010EAE7386840F40030A4
:1021F000386004E00198022105F040FE0446DCB19D
:1022000026462868C043800005D40098022105F0C6
:10221000C5FE00B101262868C04380031BD4E86FC7
:10222000B8B1B0F5807F10D0B0F5007F11D0B0F517
:10223000407F0ED001240DE02A6DDBF8001021F460
:1022400080311143CBF80010DBE7386840F40030F0
:1022500038607CB326462868C043C00207D42A6F82
:10226000DAF8001021F000411143CAF80010286884
:10227000C043800207D4AA6EDAF8001021F0807102
:102280001143CAF800102868C043400009D4074829
:10229000016821F4004101600168D5F8B4201143C0
:1022A00001602868C04306E05444025810440258B4
:1022B000CFFFFF001DE007D46A6DDBF8001021F0AE
:1022C00040511143CBF800102868C043000208D4E5
:1022D000D5F88820D9F8001021F440011143C9F83D
:1022E000001028790024C04300F00100204309D0E9
:1022F0000EE0EA6FD9F8001021F440711143C9F8DB
:102300000010A8E70198002105F0B8FD00B10646CD
:102310002879C04300F00200204305D10198012133
:1023200005F0ACFD00B106462879C04300F004007A
:10233000204305D10198022105F0A0FD00B1064619
:102340002879C04300F00800204305D100980021FF
:1023500005F024FE00B106462879C04300F01000C5
:10236000204305D10098012105F018FE00B1064672
:102370002879C04300F02000044304D100980221D2
:1023800005F00CFE00B916B10120BDE8FE8F00205B
:10239000FBE700002DE9F05F04000F467ED0DFF878
:1023A0003882D8F8000000F00F00B8420CD2D8F8FC
:1023B000001021F00F013943C8F80010D8F80000D0
:1023C00000F00F00B84269D12078844D40070AD54B
:1023D0002069296801F07001884204D9296821F038
:1023E00070010143296020787C4E361D00070AD514
:1023F0006069316801F07001884204D9316821F0C8
:102400007001014331602078C0060AD5A0693168A7
:1024100001F4E061884204D9316821F4E0610143AC
:1024200031602078DFF8B4B180060BF1080B0CD5D1
:10243000E1695846DBF8002002F07002914204D9AD
:10244000026822F070020A430260207880070AD5F1
:10245000E068296801F00F01884204D9296821F059
:102460000F01014329602078C0073ED05B49A26874
:102470002868183920F470601043286060680228CA
:1024800018D0032819D00968012819D04907002954
:102490004ADADFF848A1AAF1080A00E044E0DAF8D5
:1024A000002022F007020243CAF80020FFF75CF880
:1024B000814612E009688903E9E709688901E6E7CE
:1024C000C905E4E7FFF750F8A0EB090141F28830B5
:1024D000814202D90320BDE8F09F6168DAF800006C
:1024E00000F03800B0EBC10FECD1207880070AD59E
:1024F000E068296801F00F01884204D2296821F0C0
:102500000F0101432960D8F80010404601F00F0187
:10251000B9420BD9016821F00F013943016000680D
:1025200000F00F00B84201D00120D4E72078400726
:102530000AD52069296801F07001884204D229680F
:1025400021F0700101432960207800070AD56069F5
:10255000316801F07001884204D2316821F07001C5
:10256000014331602078C0060AD5A069316801F4C2
:10257000E061884204D2316821F4E06101433160B6
:10258000207880060CD5E1695846DBF8002002F07F
:102590007002914204D2026822F070020A43026083
:1025A00000F06CF80E492A682B68C2F3032203F08E
:1025B0000F038A5CC95C02F01F0201F01F01D040CA
:1025C000084A20FA01F111600749086007480068CD
:1025D000BDE8F05FFFF704B800200052184402582D
:1025E00094AC00081400002410000024080000240B
:1025F00030B500F043F80B4A0B490C4B15681468D2
:10260000C5F3032204F00F048A5C095D02F01F0287
:1026100001F01F01D040064A20FA01F11960106054
:10262000084630BD1844025894AC00081400002439
:102630001000002400B5FFF7DBFF05490968054AD3
:10264000C1F30211515C01F01F01C84000BD000040
:102650001C44025894AC000800B5FFF7C9FF0549B7
:102660000968054AC1F30221515C01F01F01C8400D
:1026700000BD00001C44025894AC0008454970B5E8
:1026800045480968434B103B11F0380208D001114E
:10269000082A03D0102A0BD0182A0BD0084670BD88
:1026A00019688906FBD51968C1F3C101C84070BD1E
:1026B0003A4870BD3749374D18310C1D24350A682A
:1026C000096826682D6802F0030406F00102C1F3D0
:1026D0000511C5F3CC0515FB02F200EE102AB8EE89
:1026E000400AE9B32F4ADFED2E0AB7EE001A6CB1AB
:1026F000DFED2D1A012C01D0022C43D002EE101A6E
:102700001068F8EE422A81EEA22A1EE01C68A40698
:1027100011D51B6801EE901A1168C3F3C103F8EEDE
:10272000612AD84001EE900AC1F30800F8EE611A60
:1027300081EEA22A0BE001EE901ADFED1C2A00BF09
:10274000F8EE611A106882EEA12AC0F3080001EECB
:10275000900AF8EE611A40EE201A31EE810A00E08C
:1027600015E022EE000A1068C0F34620401C00EE7F
:10277000900AF8EE600A80EE201ABCEEC10A10EE54
:10278000100A70BD01EE901ADFED092AD8E700208B
:1027900070BD0000104402580090D00340787D01C5
:1027A00000000039304402580024744A0024744C5C
:1027B00020BCBE4B2DE9F05F04007DD0FF4F207898
:1027C000FE4D1837DFF8F483103DC00748D0D8F825
:1027D0000000396800F03800102815D0182803D1FF
:1027E00001F0030002280FD06068B0F5803F12D0DE
:1027F00010B1B0F5A02F18D0286820F480302860E0
:10280000286820F4802009E02868800328D56068C3
:102810000028D2D024E0286840F480302860606826
:1028200088B1FEF7A1FE064609E0286840F4802042
:102830002860F0E7FEF798FE801B64287ED82868A1
:102840008003F7D50CE0FEF78FFE064605E000BFDB
:10285000FEF78AFE801B6428F0D828688003F7D42E
:102860002078800756D5D8F80000DFF850933968F3
:1028700010F03800A9F10C090ED0182801D18807F2
:102880000AD0E068A8B3296821F019010143296042
:10289000FEF76AFE064628E02868400702D5E06891
:1028A00000288AD0E168286820F0190008432860D1
:1028B000FEF75AFE064606E0D2E000BFFEF754FEE1
:1028C000801B0228BAD828684007F7D5217CD9F8A0
:1028D000002022F0FE4242EA0161C9F8001019E02E
:1028E000FEF742FE801B0228A8D828684007F7D5CB
:1028F000ECE7FFE7286820F001002860FEF734FECF
:10290000064604E0FEF730FE801B022896D82868B1
:102910004007F7D42078C00646D5D8F80000DFF885
:102920009C92396800F03800A9F10409082812D0F7
:10293000182805D101F00300012800E0CEE00AD0FC
:10294000E0690028286820D040F080002860FEF769
:102950000BFE064615E02868C00502D5E069802810
:102960007ED194F82010D9F8002022F07C5242EA5F
:102970000161C9F8001017E0FEF7F6FD801B022880
:10298000A0D82868C005F7D5EBE720F080002860C4
:10299000FEF7EAFD064604E0FEF7E6FD801B02288E
:1029A00090D82868C005F7D42078000729D5834837
:1029B0006169643000298146016811D041F001014C
:1029C0000160FEF7D1FD064605E000BFFEF7CCFD35
:1029D000801B022888D8D9F800008007F6D510E0BF
:1029E00021F001010160FEF7BFFD064605E000BFD2
:1029F000FEF7BAFD801B022870D8D9F800008007C6
:102A0000F6D42078800623D5A0690028286810D045
:102A100040F480502860FEF7A7FD064605E000BFA1
:102A2000FEF7A2FD801B022858D828688004F7D53D
:102A30000EE020F480502860FEF796FD064604E084
:102A4000FEF792FD801B022848D828688004F7D43E
:102A50002078400751D5DFF86891D9F8001000E0E0
:102A600015E141F48071C9F80010FEF77DFD0646BE
:102A700005E000BFFEF778FD801B64282ED8D9F84A
:102A80000000C005F6D54D4EA068603601280AD07A
:102A900008B1052813D0306820F00100306030689C
:102AA00020F0040002E0306840F001003060A068CF
:102AB00041F2883A98B1FEF757FD81460AE0306846
:102AC00040F004003060EEE7FEF74EFDA0EB090198
:102AD000514503D830688007F6D50EE072E0FEF766
:102AE00043FD814606E000BFFEF73EFDA0EB090175
:102AF000514567D830688007F6D4606A00287CD0DA
:102B0000DFF8B8A0D8F800100AF1200A4FF6F87BD9
:102B10000AF10408C1F3C2010329AAF104096DD026
:102B20000228286820F08070286003D0FEF71CFD82
:102B3000044681E0FEF718FD064604E0FEF714FDAA
:102B4000801B022875D828688001F7D4E26A40F219
:102B5000F331386854F8283F884340EA021018439C
:102B60003860217B4FF4FE0C22894FF0FE47208A0B
:102B70004902267D521E401EA1F5007189B2C2F3A2
:102B800008021143761E0CEA00400143484607EA5A
:102B900006621143CAF80010D9F8001021F00101B3
:102BA000C9F80010D8F80030266A23EA0B0343EA7C
:102BB000C601C8F80010D9F8001004E0104402580B
:102BC0000048025835E0A26921F00C011143C9F810
:102BD00000100168E26921F00201114301600168FF
:102BE00041F480310160016841F400310160016805
:102BF00041F480210160016801E06CE020E041F0D7
:102C000001010160286840F080702860FEF7ACFC8C
:102C1000044604E0FEF7A8FC001B022809D8286837
:102C20008001F7D557E000BFFEF79EFC001B02288D
:102C300002D90320BDE8F09F28688001F4D44AE05F
:102C400039680128DAF8000021D0A26A01F00303F4
:102C500093421CD1E26AC1F305118A4217D1216B5C
:102C6000C0F30802491E8A4211D1616BC0F34622AB
:102C7000491E91420BD1A16BC0F30642491E9142FD
:102C800005D1E16BC0F30660491E814201D00120ED
:102C9000D0E7A16C4646D8F80000C0F3CC008142D2
:102CA00019D0D9F800004D4620F00100C9F8000005
:102CB000FEF75AFC4FEA0007FEF756FCB842FBD07D
:102CC000A26C306820EA0B0040EAC200306028683D
:102CD00040F0010028600020ACE7401EB0F1807F8A
:102CE00010B501D3012010BD4FF0E02460610F2129
:102CF000601705F046FE0020A0610721216110BD8C
:102D00007047704770470000F0B590F83C20012AEA
:102D100041D0224E012480F83C40022280F83D2020
:102D200002681F4D5368B242D2F808C001D0AA42CF
:102D300003D14F6823F470033B430F6823F0700303
:102D40001F4357600268B24219D0B2F1804F16D0CB
:102D5000144B9A4213D0144B9A4210D0134B9A4200
:102D60000DD0AA420BD0124B9A4208D0114B9A4276
:102D700005D0114B9A4202D0104B9A4204D1896877
:102D80002CF0800319439160002180F83D4080F8C9
:102D90003C100846F0BD0220F0BD000000000140DC
:102DA000000401400004004000080040000C004006
:102DB000001800400040014000E0004000E40040F6
:102DC00010B5040003D094F83D0010B107E00120D5
:102DD00010BD002084F83C00204600F023F80220BB
:102DE00084F83D002068211D05F024FA012084F8B4
:102DF000480084F83E0084F83F0084F8400084F8DE
:102E0000410084F8420084F8430084F8440084F8C8
:102E1000450084F8460084F8470084F83D0000200F
:102E200010BD000008B500680B49884212D10B485C
:102E3000016841F01001016000680022114600F0B5
:102E4000100000903620FEF755FCBDE80840362003
:102E5000FEF742BC08BD000000100040E8440258E4
:102E600090F83D10012901D0012070471A4A022133
:102E700080F83D100168CB6843F00103CB60006827
:102E800090421AD0B0F1804F17D01449884214D024
:102E90001349884211D0134988420ED01249884202
:102EA0000BD01249884208D01149884205D01149F7
:102EB000884202D01049884207D181680F4A1140E8
:102EC000062906D0B1F5803F03D0016841F0010129
:102ED0000160002070470000000001400004004035
:102EE00000080040000C00400004014000180040B1
:102EF0000040014000E0004000E400400700010005
:102F0000704770B50446006800250169C943890708
:102F100015D4C168C943890711D4EA1E0261012191
:102F20002177206880698007204602D0FFF7E8FFFC
:102F300004E000F0A7F8204600F0A5F82577206807
:102F40000169C943490717D4C168C943490713D464
:102F500002216FF00402026121772068806910F479
:102F6000407F204602D0FFF7CBFF04E000F08AF854
:102F7000204600F088F8257720680169C9430907D1
:102F800016D4C168C943090712D404216FF008029E
:102F9000026121772068C0698007204602D0FFF7D0
:102FA000AFFF04E000F06EF8204600F06CF82577E3
:102FB00020680169C943C90617D4C168C943C90655
:102FC00013D408216FF01002026121772068C069D4
:102FD00010F4407F204602D0FFF792FF04E000F09B
:102FE00051F8204600F04FF8257720680169C94361
:102FF000C90708D1C168C943C90704D1891E016145
:10300000204600F041F820680169C943090609D447
:10301000C168C943090605D46FF0800101612046EB
:10302000FFF76FFE20680169C943C90509D4C1686B
:10303000C943090605D46FF4807101612046FFF78A
:103040005FFE20680169C943490609D4C168C943C4
:10305000490605D46FF040010161204600F03EF8BA
:1030600020680169C94389060BD4C168C943890630
:1030700007D46FF0200101612046BDE87040FFF7E2
:1030800041BE70BD7047704710B500680E49884258
:1030900018D10E480168491C01600D490D4805F022
:1030A000DCFE06F04DF905F08DFC06F0F5FD06F0AE
:1030B000FDFF00F093FC01220748BDE81040D1035A
:1030C000FEF74CBA10BD000000100040CC030024F5
:1030D000DC080024F4030024000C0258704730B5CB
:1030E00090F88410012918D0012280F8842024212E
:1030F000C0F888100022202401680B680D6823F0B6
:10310000005325F001050D60426601680B60C0F8B0
:10311000884080F88420104630BD022030BD70B554
:10312000044690F8840001281DD0012284F88420F0
:103130002420C4F8880020680568026822F0010293
:1031400002602068826822F060620A438260204642
:1031500005F0DCF82268202100201560C4F88810F2
:1031600084F8840070BD022070BD70B5044690F8EC
:10317000840001281DD0012284F884202420C4F872
:10318000880020680568026822F001020260206859
:10319000826822F060420A438260204605F0B6F859
:1031A0002268202100201560C4F8881084F884006B
:1031B00070BD022070BD10B5040003D0D4F88800A3
:1031C00010B107E0012010BD002084F884002046E3
:1031D00000F026F82420C4F888002068016821F057
:1031E00001010160204605F097F90128EBD0A06AA3
:1031F00010B1204605F0ACF82068416821F49041F8
:1032000041602068816821F02A018160206801689E
:1032100041F0010101602046BDE8104005F0FCB816
:1032200010B5B4B0044614212EA8FDF7B7F8B821A4
:103230006846FDF7B3F81849206888422AD1002073
:103240001D9002210446CDE900106846FEF704FCFB
:1032500008B1FDF780F91148016841F400310160BF
:10326000006800F4003033900C480838016841F0E1
:103270000801016000682EAB022100F008003390C5
:103280006020072283E8130005482EA9CDE93142CA
:10329000FEF756F834B010BD00440040E844025830
:1032A000000C0258FEE70000184800212DE9F0410B
:1032B000154F1D258160012407600326C1600A2384
:1032C00001740422417484744661C0E90635C0E982
:1032D0000836C0E90A358463C0E90C31C0E90F1231
:1032E000C0E91121C0E91321C0E91521C0E9171275
:1032F000C0E91912FDF7DEFD002803D0BDE8F0415A
:10330000FDF729B9BDE8F08100A00040F4030024D6
:10331000184800212DE9F041154F1D258160012439
:1033200007600326C1600A23017404224174847477
:103330004661C0E90635C0E90836C0E90A3584634C
:10334000C0E90C31C0E90F12C0E91121C0E9132115
:10335000C0E91521C0E91712C0E91912FDF7AAFD4D
:10336000002803D0BDE8F041FDF7F5B8BDE8F081D5
:1033700000A4004094040024184800212DE9F041E5
:10338000154F1D258160012407600326C1600A23B3
:1033900001740422417484744661C0E90635C0E9B1
:1033A0000836C0E90A358463C0E90C31C0E90F1260
:1033B000C0E91121C0E91321C0E91521C0E91712A4
:1033C000C0E91912FDF776FD002803D0BDE8F041F1
:1033D000FDF7C1B8BDE8F08100D4004034050024F9
:1033E00010B586B014216846FCF7D8FF2148016863
:1033F00041F004010160016801F0040105910168D8
:1034000041F080010160016801F0800105910168CF
:1034100041F002010160016801F0020105910168BB
:1034200041F040010160016801F04001059101682F
:1034300041F001010160016801F00101059101689D
:1034400041F008010160006800220B4C802100F06F
:10345000080005902046FEF781F801210022802017
:10346000CDE90001CDE9021269462046FDF768FF6B
:1034700006B010BDE0440258001802583EB510488E
:1034800000244FF47A710D4BF022009401940294C1
:10349000C0E902418461C0E90032FFF791FC08B144
:1034A000FDF759F80648694600940294FFF72CFC92
:1034B000002801D0FDF74FF83EBD0000001000408D
:1034C000D40500241748002110B5154C0C22164BCA
:1034D0000460C0E90131C160C0E904128161C161C9
:1034E000016241628162FFF766FE08B1FDF733F8C1
:1034F0000C480021FFF739FE08B1FDF72CF8094808
:103500000021FFF70CFE08B1FDF725F80548FFF78D
:10351000E6FD002803D0BDE81040FDF71CB810BD43
:103520000044004020060024A0860100FEE7FEE7DC
:10353000B7EEC00B5B4A0128F7EEC10BB7EEC21B1A
:103540000BD0022842D0032815D1082913D2DFE876
:1035500001F012777E858C939AA108290BD2DFE8BF
:1035600001F00A040B121920272E82ED2A0AC2ED5F
:10357000150A82ED001A704782ED2B0AC2ED160A79
:1035800082ED011A704782ED2C0AC2ED170A82ED16
:10359000021A704782ED2D0AC2ED180A82ED031A55
:1035A000704782ED2E0AC2ED190A82ED041A7047A7
:1035B00082ED2F0AC2ED1A0A82ED051A704782EDDC
:1035C000300AC2ED1B0A82ED061A70470829FCD2A8
:1035D000DFE801F004050C131A21282FF5E782ED2E
:1035E000310AC2ED1C0A82ED071A704782ED320AD9
:1035F000C2ED1D0A82ED081A704782ED330AC2ED52
:103600001E0A82ED091A704782ED340AC2ED1F0AC4
:1036100082ED0A1A704782ED350AC2ED200A82ED6A
:103620000B1A704782ED360AC2ED210A82ED0C1AA0
:10363000704782ED370AC2ED220A82ED0D1A7047FB
:1036400082ED380AC2ED230A82ED0E1A704782ED30
:10365000390AC2ED240A82ED0F1A704782ED3A0A48
:10366000C2ED250A82ED101A704782ED3B0AC2EDC9
:10367000260A82ED111A704782ED3C0AC2ED270A34
:1036800082ED121A704782ED3D0AC2ED280A82EDE2
:10369000131A704782ED3E0AC2ED290A82ED141A10
:1036A0007047000024000024B7EEC00B5B4A0128DD
:1036B000F7EEC10BB7EEC21B0BD0022842D0032895
:1036C00015D1082913D2DFE801F012777E858C939B
:1036D0009AA108290BD2DFE801F00A040B12192085
:1036E000272E82ED690AC2ED540A82ED3F1A704717
:1036F00082ED6A0AC2ED550A82ED401A704782EDEA
:103700006B0AC2ED560A82ED411A704782ED6C0ACF
:10371000C2ED570A82ED421A704782ED6D0AC2ED82
:10372000580A82ED431A704782ED6E0AC2ED590ABB
:1037300082ED441A704782ED6F0AC2ED5A0A82ED9B
:10374000451A70470829FCD2DFE801F004050C1384
:103750001A21282FF5E782ED700AC2ED5B0A82ED8F
:10376000461A704782ED710AC2ED5C0A82ED471A73
:10377000704782ED720AC2ED5D0A82ED481A704709
:1037800082ED730AC2ED5E0A82ED491A704782ED3E
:10379000740AC2ED5F0A82ED4A1A704782ED750A1B
:1037A000C2ED600A82ED4B1A704782ED760AC2EDD7
:1037B000610A82ED4C1A704782ED770AC2ED620A07
:1037C00082ED4D1A704782ED780AC2ED630A82EDF0
:1037D0004E1A704782ED790AC2ED640A82ED4F1AE3
:1037E000704782ED7A0AC2ED650A82ED501A704781
:1037F00082ED7B0AC2ED660A82ED511A704782EDB6
:103800007C0AC2ED670A82ED521A704782ED7D0A8A
:10381000C2ED680A82ED531A7047000024000024AC
:103820006C49022081F8D20281F8D30281F8D002DB
:1038300081F8D1029FED680A0A4682ED1F0A81F8DD
:10384000CE0281F8CF0281F8CC0281F8CD0282ED60
:103850001E0A81F8CA0281F8CB0281F8C80281F8F9
:10386000C90282ED1D0A81F8C60281F8C70281F8FB
:10387000C40281F8C50282ED1C0A81F8C20281F8F7
:10388000C30281F8C00281F8C10282ED1B0A81F8EF
:10389000BE0281F8BF0281F8BC0281F8BD0282ED50
:1038A0001A0A81F8BA0281F8BB0281F8B80281F8DD
:1038B000B90282ED190A81F8B60281F8B70281F8DF
:1038C000B40281F8B50282ED180A81F8B20281F8DB
:1038D000B30281F8B00281F8B10282ED170A81F8D3
:1038E000AE0281F8AF0281F8AC0281F8AD0282ED40
:1038F000160A81F8AA0281F8AB0281F8A80281F8C1
:10390000A90282ED150A81F8A60281F8A70281F8C2
:10391000A40281F8A50282ED140A81F8A20281F8BE
:10392000A30281F8A00281F8A10282ED130A81F8B6
:103930009E0281F89F0281F89C0281F89D0282ED2F
:10394000120A81F89A0281F89B0281F8980281F8A4
:10395000990282ED110A81F8960281F8970281F8A6
:10396000940281F8950282ED100A81F8920281F8A2
:10397000930281F8900281F8910282ED0F0A81F89A
:103980008E0281F88F0281F88C0281F88D0282ED1F
:103990000E0A81F88A0281F88B0281F8880281F888
:1039A000890282ED0D0A81F8860281F8870281F88A
:1039B000840281F8850282ED0C0A81F8820281F886
:1039C000830281F8800281F88102084680ED0B0AAB
:1039D0007047000000150024000000002DE9F05F92
:1039E000FF4CDFF800B404F535702DED0C8B9FED26
:1039F000FEAA4FF08D49DFEDFD8ADFF8F4A39FEDBD
:103A0000FD9A90ED060A94ED211ADBED931AD4EDA0
:103A1000200A9BED952A11EE801A00F5147542EEEE
:103A2000000A61EE0ABA30EEAB0A10EE101A4945F0
:103A300002DDC5ED038A08E010EE101A514502D9E7
:103A400085ED039A01E085ED030AEB48DFEDEBAA73
:103A50009FEDEB8A01464FF0FF36D0ED011AD1ED14
:103A6000020A90ED00BA90ED070A00274FF0020815
:103A7000DFEDE49AFDEEE00A10EE900A012802D094
:103A8000022876D189E0D64871EECB1AB5EEC00A8D
:103A9000F1EE10FA90F9D20201DD002806DDB5EE54
:103AA000C00AF1EE10FA03D8012801D184ED9E8AF4
:103AB000B5EEC00ACA495846F1EE10FA94ED9E1AC6
:103AC0009BED962A91F9D312F0EE410A52EE210AAB
:103AD00060EE8A2A01DD002906DDB5EEC00AF1EEAE
:103AE00010FA03D8012901D184ED9F8A94ED9F2A11
:103AF00090EDC03AF0EE420A43EE210A70EEA20ABF
:103B000010EE901A494502DDC5ED008A08E010EE7E
:103B1000901A514502D985ED009A01E0C5ED000AE1
:103B2000B5EEC00AF1EE10FA02EEA91A84ED9E1A63
:103B300005DD012184F8D21284F8D31224E0B5EE19
:103B4000C00AF1EE10FA02D284F8D26209E0B5EEB2
:103B5000C00AF1EE10FA02D184F8D27201E084F8C2
:103B6000D282B5EEC00AF1EE10FA03D284F8D36225
:103B70000AE0FEE0B5EEC00AF1EE10FA02D184F8D8
:103B8000D37201E084F8D3829BEDAB0A20EE210AC8
:103B900000EE292A84ED9F2AEBE097485A46DBED98
:103BA0007E0A90ED031AD0ED052AB0EE412A02EE0E
:103BB000AA2A31EEC2CAF0EECC1AF4EEE10AF1EE16
:103BC00010FA01DBB0EE48CAF4EEE10AF1EE10FAA9
:103BD000D4ED9B0AD2ED001A51EE8C0A60EE8ACA2F
:103BE00019D2D4ED9A0AD2ED2A1A41EE8C0A70EE5F
:103BF000AC0A10EE901A494502DDF0EE680A05E0C5
:103C000010EE901A514501D9F0EE490AD2EDD51ABD
:103C100011EEA0BA01E0B0EE48BA7149B5EEC00AA3
:103C2000F1EE10FA91F9D01201DD002906DDB5EEB2
:103C3000C00AF1EE10FA03D8012901D184ED9C8A63
:103C4000B5EEC00A6649F1EE10FAD4ED9C0AD2ED49
:103C50003F1A91F9D11251EE8B0A20EE8ADA01DD7A
:103C6000002906DDB5EEC00AF1EE10FA03D80129ED
:103C700001D184ED9D8A94ED9D0ADBED690A00EE89
:103C80008B0A30EE0D0A10EE101A494502DDC5ED23
:103C9000018A08E010EE101A514502D985ED019A0B
:103CA00001E085ED010A5448A0F52B7190ED040A5E
:103CB000A0F5167031EE400AFCF70AFC4E4894ED70
:103CC0001F0A0146D0ED050A30EE200A85ED020AF2
:103CD000DBED150A94ED9A0A60EE8C0A00EEA90A53
:103CE00084ED9A0A94ED9B0A0CEEA90A84ED9B0AD6
:103CF00094ED9C0A0DEE290A84ED9C0A91ED070AC9
:103D0000B5EEC00AF1EE10FA05DD012184F8D012FB
:103D100084F8D11223E0B5EEC00AF1EE10FA02D217
:103D200084F8D06209E0B5EEC00AF1EE10FA02D1D3
:103D300084F8D07201E084F8D082B5EEC00AF1EECA
:103D400010FA02D284F8D16209E0B5EEC00AF1EEB1
:103D500010FA02D184F8D17201E084F8D1829BED8F
:103D6000540A60EE0B0A94ED9D0A00EEA90A84ED58
:103D70009D0A214890ED0A0ABDEEC00A10EE100A15
:103D8000012802D002287AD1A7E01B48D0ED090A09
:103D900090ED081A90ED0E0A70EEC11AB5EEC00A49
:103DA000F1EE10FA03DD94F9CE02002808DDB5EE3D
:103DB000C00AF1EE10FA05D894F8CE02012801D11C
:103DC00084ED988AB5EEC00A5846F1EE10FA94EDEB
:103DD000981A9BED972AF0EE410A52EE210A13E061
:103DE00000150024240000240000C8420000804682
:103DF000000080C6000080C6D417002400F8FF45EC
:103E0000000000006F12833A60EE8A2A03DD94F905
:103E1000CF12002908DDB5EEC00AF1EE10FA05D880
:103E200094F8CF12012901D184ED998AD4ED990A31
:103E300090EDC13AB0EE602A03EE212A32EE222A3A
:103E400012EE101A494502DDC5ED048A08E012EEB3
:103E5000101A514502D985ED049A01E085ED042A36
:103E6000B5EEC00AF1EE10FA02EEA91A84ED981A26
:103E700006DD012184F8CE1284F8CF1224E020E17F
:103E8000B5EEC00AF1EE10FA02D284F8CE6209E073
:103E9000B5EEC00AF1EE10FA02D184F8CE7201E05C
:103EA00084F8CE82B5EEC00AF1EE10FA02D284F8A0
:103EB000CF6209E0B5EEC00AF1EE10FA02D184F843
:103EC000CF7201E084F8CF829BEDAC0A20EE210A8C
:103ED00040EE290AC4ED990AF3E0FE4859469BEDED
:103EE0007F1AD0ED0B0AD0ED0D1A90ED092AB0EE35
:103EF000600A01EEAA0A32EE40BAB0EECB0AB4EE86
:103F0000C01AF1EE10FA01DBB0EE48BAB4EEC01AF6
:103F1000F1EE10FA94ED950A91ED011A11EE0B0AEB
:103F200060EE0ACA1BD294ED940A91ED2B1A01EEB1
:103F30000B0A30EE2C0A10EE102A4A4502DDB0EED4
:103F4000680A05E010EE102A524501D9B0EE490A80
:103F500090ED08CA91EDD61A11EE00CA01E0B0EE5C
:103F600048CA90ED0E0AB5EEC00AF1EE10FA03DD74
:103F700094F9CC22002A08DDB5EEC00AF1EE10FA61
:103F800005D894F8CC22012A01D184ED968AB5EEA9
:103F9000C00AF1EE10FA94ED961AD1ED401A11EE26
:103FA0008C1A21EE0ADA03DD94F9CD22002A08DD0D
:103FB000B5EEC00AF1EE10FA05D894F8CD22012A28
:103FC00001D184ED978A94ED970A9BED6A1A01EE70
:103FD0000C0A30EE0D0A10EE101A494502DDC5ED4F
:103FE000058A08E010EE101A514502D985ED059AB0
:103FF00001E085ED050AB748A0F2AE2190ED0C0A6C
:10400000A0F5177030EEC00AFCF762FAB14894EDE3
:104010001E0A0146D0ED0D0A30EE200A85ED060A93
:10402000DBED160A94ED940A60EE8B0A00EEA90A05
:1040300084ED940A94ED950A0CEEA90A84ED950A94
:1040400094ED960A0DEE290A84ED960A91ED0E0A7A
:10405000B5EEC00AF1EE10FA05DD012184F8CC12AC
:1040600084F8CD1223E0B5EEC00AF1EE10FA02D2C8
:1040700084F8CC6209E0B5EEC00AF1EE10FA02D184
:1040800084F8CC7201E084F8CC82B5EEC00AF1EE7F
:1040900010FA02D284F8CD6209E0B5EEC00AF1EE62
:1040A00010FA02D184F8CD7201E084F8CD829BED44
:1040B000550A60EE0C0A94ED970A00EEA90A84ED09
:1040C000970A844890ED110ABDEEC00A10EE100A5E
:1040D000012802D0022875D192E07E48D0ED100A66
:1040E00090ED0F1A90ED150A30EEC12AB5EEC00A18
:1040F000F1EE10FA03DD94F9CA02002808DDB5EEEE
:10410000C00AF1EE10FA05D894F8CA02012801D1CC
:1041100084ED928AB5EEC00A5946F1EE10FAD4ED5C
:10412000921A9BED981AF0EE610A51EE020A60EEC7
:104130008A2A03DD94F9CB02002808DDB5EEC00A17
:10414000F1EE10FA05D894F8CB02012801D184EDE4
:10415000938A94ED931A91EDC23AF0EE410A43EE40
:10416000020A70EEA20A10EE900A484502DDC5ED83
:10417000078A08E010EE900A504502D985ED079AAB
:1041800001E0C5ED070AB5EEC00AF1EE10FA42EE05
:10419000A91AC4ED921A05DD012084F8CA0284F838
:1041A000CB0224E0B5EEC00AF1EE10FA02D284F898
:1041B000CA620AE0B5EEC00AF1EE10FA03D184F843
:1041C000CA7202E013E184F8CA82B5EEC00AF1EEC9
:1041D00010FA02D284F8CB6209E0B5EEC00AF1EE23
:1041E00010FA02D184F8CB7201E084F8CB829BED07
:1041F000AD0A20EE020A00EE291A84ED931AF6E0C9
:10420000344859469BED801AD0ED120AD0ED141AAD
:1042100090ED102AB0EE600A01EEAA0A32EE40CA12
:10422000B0EECC0AB4EEC01AF1EE10FA01DBB0EE3B
:1042300048CAB4EEC01AF1EE10FA94ED8F0A91ED6F
:10424000021A11EE0C0A60EE0ACA1BD294ED8E0A15
:1042500091ED2C1A01EE0C0A30EE2C0A10EE102A09
:104260004A4502DDB0EE680A05E010EE102A52451C
:1042700001D9B0EE490A90ED0FBA91EDD71A11EEBF
:1042800000BA01E0B0EE48BA90ED150AB5EEC00AEA
:10429000F1EE10FA03DD94F9C822002A08DDB5EE2C
:1042A000C00AF1EE10FA05D894F8C822012A01D10B
:1042B00084ED908AB5EEC00AF1EE10FA94ED901AF2
:1042C000D1ED411A11EE8B1A21EE0ADA06DD94F9CE
:1042D000C92201E0D4170024002A08DDB5EEC00A87
:1042E000F1EE10FA05D894F8C922012A01D184ED23
:1042F000918A94ED910A9BED6B1A01EE0B0A30EE58
:104300000D0A10EE101A494502DDC5ED088A08E0D5
:1043100010EE101A514502D985ED089A01E085ED9D
:10432000080AFE48A0F52C7190ED130AA0F518704C
:1043300030EEC00AFCF7CCF8F84894ED1D0A0146AF
:10434000D0ED140A30EE200A85ED090ADBED170ADC
:1043500094ED8E0A60EE8C0A00EEA90A84ED8E0AB6
:1043600094ED8F0A0CEEA90A84ED8F0A94ED900A61
:104370000DEE290A84ED900A91ED150AB5EEC00AFA
:10438000F1EE10FA05DD012184F8C81284F8C91293
:1043900023E0B5EEC00AF1EE10FA02D284F8C8624A
:1043A00009E0B5EEC00AF1EE10FA02D184F8C87245
:1043B00001E084F8C882B5EEC00AF1EE10FA02D22C
:1043C00084F8C96209E0B5EEC00AF1EE10FA02D134
:1043D00084F8C97201E084F8C9829BED560A60EE48
:1043E0000B0A94ED910A00EEA90A84ED910ACB48DC
:1043F00090ED180ABDEEC00A10EE100A012802D096
:10440000022875D192E0C548D0ED170A90ED161A32
:1044100090ED1C0A70EEC10AB5EEC00AF1EE10FA7A
:1044200003DD94F9C602002808DDB5EEC00AF1EEFE
:1044300010FA05D894F8C602012801D184ED8C8ABF
:10444000B5EEC00A5846F1EE10FA94ED8C2ADBED79
:10445000991AB0EE421A11EEA01A61EE0A2A03DD93
:1044600094F9C712002908DDB5EEC00AF1EE10FA82
:1044700005D894F8C712012901D184ED8D8A94EDF5
:104480008D1A90EDC33AF0EE411A43EE201A71EE08
:10449000A21A11EE901A494502DDC5ED0A8A08E01C
:1044A00011EE901A514502D985ED0A9A01E0C5ED49
:1044B0000A1AB5EEC00AF1EE10FA02EEA92A84ED4E
:1044C0008C2A05DD012184F8C61284F8C71224E085
:1044D000B5EEC00AF1EE10FA02D284F8C6620AE024
:1044E000B5EEC00AF1EE10FA03D184F8C67202E00C
:1044F0000FE184F8C682B5EEC00AF1EE10FA02D2DE
:1045000084F8C76209E0B5EEC00AF1EE10FA02D1F4
:1045100084F8C77201E084F8C7829BEDAE0A20EEF2
:10452000200A00EE291A84ED8D1AF2E07B485946E4
:104530009BED811AD0ED190AD0ED1B1A90ED172AC8
:10454000B0EE600A01EEAA0A32EE40BAB0EECB0A33
:10455000B4EEC01AF1EE10FA01DBB0EE48BAB4EED8
:10456000C01AF1EE10FA94ED890A91ED031A11EEDA
:104570000B0A60EE0ACA1BD294ED880A91ED2D1A3F
:1045800001EE0B0A30EE2C0A10EE102A4A4502DD2D
:10459000B0EE680A05E010EE102A524501D9B0EEDF
:1045A000490A90ED16CA91EDD81A11EE00CA01E041
:1045B000B0EE48CA90ED1C0AB5EEC00AF1EE10FA52
:1045C00003DD94F9C422002A08DDB5EEC00AF1EE3D
:1045D00010FA05D894F8C422012A01D184ED8A8A00
:1045E000B5EEC00AF1EE10FA94ED8A1AD1ED421A36
:1045F00011EE8C1A21EE0ADA03DD94F9C522002AA5
:1046000008DDB5EEC00AF1EE10FA05D894F8C5221F
:10461000012A01D184ED8B8A94ED8B0A9BED6C1AF3
:1046200001EE0C0A30EE0D0A10EE101A494502DDBB
:10463000C5ED0B8A08E010EE101A514502D985ED40
:104640000B9A01E085ED0B0A3448A0F2B22190EDFF
:104650001A0AA0F5197030EEC00AFBF739FF2F488F
:1046600094ED1C0AD0ED1B0A30EE200A85ED0C0AF1
:10467000DBED180A94ED880A60EE8B0A00EEA90AB9
:1046800084ED880A94ED890A0CEEA90A84ED890A62
:1046900094ED8A0A0DEE290A84ED8A0A90ED1C0A2F
:1046A000B5EEC00AF1EE10FA05DD012084F8C4026F
:1046B00084F8C50223E0B5EEC00AF1EE10FA02D28A
:1046C00084F8C46209E0B5EEC00AF1EE10FA02D136
:1046D00084F8C47201E084F8C482B5EEC00AF1EE39
:1046E00010FA02D284F8C56209E0B5EEC00AF1EE14
:1046F00010FA02D184F8C57201E084F8C5829BEDFE
:10470000570A60EE0C0A94ED8B0A00EEA90A84EDBC
:104710008B0A024890ED1F0A02E00000D417002423
:10472000BDEEC00A10EE100A012802D0022875D191
:1047300092E0FB48D0ED1E0A90ED1D1A90ED230A81
:1047400030EEC11AB5EEC00AF1EE10FA03DD94F9AD
:10475000C202002808DDB5EEC00AF1EE10FA05D855
:1047600094F8C202012801D184ED868AB5EEC00A10
:104770005946F1EE10FA94ED862ADBED9A1AF0EE26
:10478000420A51EE810A60EE8A2A03DD94F9C302DF
:10479000002808DDB5EEC00AF1EE10FA05D894F84D
:1047A000C302012801D184ED878AD4ED871A91EDE7
:1047B000C43AF0EE610A43EE010A70EEA20A10EE6E
:1047C000900A484502DDC5ED0D8A08E010EE900A1A
:1047D000504502D985ED0D9A01E0C5ED0D0AB5EE03
:1047E000C00AF1EE10FA02EEA92A84ED862A05DD50
:1047F000012084F8C20284F8C30224E0B5EEC00AA6
:10480000F1EE10FA02D284F8C2620AE0B5EEC00AF4
:10481000F1EE10FA03D184F8C27202E00FE184F8DD
:10482000C282B5EEC00AF1EE10FA02D284F8C36279
:1048300009E0B5EEC00AF1EE10FA02D184F8C372B5
:1048400001E084F8C3829BEDAF0A20EE010A40EE3E
:10485000291AC4ED871AF2E0B14859469BED821A35
:10486000D0ED200AD0ED221A90ED1E2AB0EE600A9B
:1048700001EEAA0A32EE40BAB0EECB0AB4EEC01A8C
:10488000F1EE10FA01DBB0EE48BAB4EEC01AF1EE68
:1048900010FA94ED830A91ED041A11EE0B0A60EE02
:1048A0000ACA1BD294ED820A91ED2E1A01EE0B0A70
:1048B00030EE2C0A10EE102A4A4502DDB0EE680AEE
:1048C00005E010EE102A524501D9B0EE490A90EDEC
:1048D0001DCA91EDD91A11EE00CA01E0B0EE48CA26
:1048E00090ED230AB5EEC00AF1EE10FA03DD94F95B
:1048F000C022002A08DDB5EEC00AF1EE10FA05D894
:1049000094F8C022012A01D184ED848AB5EEC00A50
:10491000F1EE10FA94ED841AD1ED431A11EE8C1ACF
:1049200021EE0ADA03DD94F9C122002A08DDB5EE92
:10493000C00AF1EE10FA05D894F8C122012A01D17B
:1049400084ED858A94ED850A9BED6D1A01EE0C0AC3
:1049500030EE0D0A10EE101A494502DDC5ED0E8A43
:1049600008E010EE101A514502D985ED0E9A01E0CB
:1049700085ED0E0A6A48A0F52D7190ED210AA0F58B
:104980001A7030EEC00AFBF7A3FD654894ED1B0AD0
:10499000D0ED220A30EE200A85ED0F0ADBED190A70
:1049A00094ED820A60EE8B0A00EEA90A84ED820A79
:1049B00094ED830A0CEEA90A84ED830A94ED840A2F
:1049C0000DEE290A84ED840A90ED230AB5EEC00AA3
:1049D000F1EE10FA05DD012084F8C00284F8C1026E
:1049E00023E0B5EEC00AF1EE10FA02D284F8C062FC
:1049F00009E0B5EEC00AF1EE10FA02D184F8C072F7
:104A000001E084F8C082B5EEC00AF1EE10FA02D2DD
:104A100084F8C16209E0B5EEC00AF1EE10FA02D1E5
:104A200084F8C17201E084F8C1829BED580A60EEFF
:104A30000C0A94ED850A00EEA90A84ED850A38482F
:104A400090ED260ABDEEC00A10EE100A012802D031
:104A5000022867D194E0324890ED250A90ED241A9F
:104A6000D0ED2A0A70EE412AF5EEC00AF1EE10FAF6
:104A700003DD94F9BE02002808DDF5EEC00AF1EE70
:104A800010FA05D894F8BE02012801D184ED808A7D
:104A9000F5EEC00A5846F1EE10FA94ED802A9BED2F
:104AA0009B1AB0EE420A11EE220A60EE0A1A03DDEA
:104AB00094F9BF12002908DDF5EEC00AF1EE10FAF4
:104AC00005D894F8BF12012901D184ED818A94EDB3
:104AD000810A90EDC53AB0EE401A03EE221A31EE8B
:104AE000211A11EE101A494502DDC5ED108A08E0C1
:104AF00011EE101A514502D985ED109A01E085EDAD
:104B0000101AF5EEC00AF1EE10FA01EEA92A84EDB2
:104B1000802A08DD012184F8BE1284F8BF1226E045
:104B2000D417002420E1F5EEC00AF1EE10FA02D20B
:104B300084F8BE6209E0F5EEC00AF1EE10FA02D187
:104B400084F8BE7201E084F8BE82F5EEC00AF1EE90
:104B500010FA02D284F8BF6209E0F5EEC00AF1EE65
:104B600010FA02D184F8BF7201E084F8BF82DBED55
:104B7000B00A60EEA20A00EEA90A84ED810AF3E011
:104B8000FE4859469BED831AD0ED270AD0ED291A2D
:104B900090ED252AB0EE600A01EEAA0A32EE40BA84
:104BA000B0EECB0AB4EEC01AF1EE10FA01DBB0EEB3
:104BB00048BAB4EEC01AF1EE10FA94ED7D0A91ED08
:104BC000051A11EE0B0A60EE0ACA1BD294ED7C0A9C
:104BD00091ED2F1A01EE0B0A30EE2C0A10EE102A7E
:104BE0004A4502DDB0EE680A05E010EE102A524593
:104BF00001D9B0EE490A90ED24CA91EDDA1A11EE0E
:104C000000CA01E0B0EE48CA90ED2A0AB5EEC00A2B
:104C1000F1EE10FA03DD94F9BC22002A08DDB5EEAE
:104C2000C00AF1EE10FA05D894F8BC22012A01D18D
:104C300084ED7E8AB5EEC00AF1EE10FA94ED7E1A8C
:104C4000D1ED441A11EE8C1A21EE0ADA03DD94F943
:104C5000BD22002A08DDB5EEC00AF1EE10FA05D833
:104C600094F8BD22012A01D184ED7F8A94ED7F0A58
:104C70009BED6E1A01EE0C0A30EE0D0A10EE101AC2
:104C8000494502DDC5ED118A08E010EE101A5145C4
:104C900002D985ED119A01E085ED110AB748A0F21D
:104CA000B62190ED280AA0F51B7030EEC00AFBF784
:104CB0000FFCB24894ED1A0A0146D0ED290A30EEF5
:104CC000200A85ED120ADBED1A0A94ED7C0A60EEEB
:104CD0008B0A00EEA90A84ED7C0A94ED7D0A0CEEA5
:104CE000A90A84ED7D0A94ED7E0A0DEE290A84ED71
:104CF0007E0A91ED2A0AB5EEC00AF1EE10FA05DD42
:104D0000012184F8BC1284F8BD1223E0B5EEC00A7C
:104D1000F1EE10FA02D284F8BC6209E0B5EEC00AE6
:104D2000F1EE10FA02D184F8BC7201E084F8BC8282
:104D3000B5EEC00AF1EE10FA02D284F8BD6209E0C5
:104D4000B5EEC00AF1EE10FA02D184F8BD7201E0AE
:104D500084F8BD829BED590A60EE0C0A94ED7F0A3F
:104D600000EEA90A84ED7F0A844890ED2D0ABDEE7D
:104D7000C00A10EE100A012802D0022875D192E074
:104D80007E48D0ED2C0A90ED2B1A90ED310A70EE92
:104D9000C11AB5EEC00AF1EE10FA03DD94F9BA02B9
:104DA000002808DDB5EEC00AF1EE10FA05D894F837
:104DB000BA02012801D184ED7A8AB5EEC00A5846BC
:104DC000F1EE10FAD4ED7A2A9BED9C1AF0EE620A0D
:104DD00051EE210A20EE8A1A03DD94F9BB12002954
:104DE00008DDB5EEC00AF1EE10FA05D894F8BB1252
:104DF000012901D184ED7B8A94ED7B2A90EDC63A9E
:104E0000F0EE420A43EE210A70EE810A10EE901A8B
:104E1000494502DDC5ED138A08E010EE901A5145B0
:104E200002D985ED139A01E0C5ED130AB5EEC00A6B
:104E3000F1EE10FA41EE292AC4ED7A2A05DD0121AE
:104E400084F8BA1284F8BB1224E0B5EEC00AF1EE81
:104E500010FA02D284F8BA620AE0B5EEC00AF1EEA6
:104E600010FA03D184F8BA7202E012E184F8BA822F
:104E7000B5EEC00AF1EE10FA02D284F8BB6209E086
:104E8000B5EEC00AF1EE10FA02D184F8BB7201E06F
:104E900084F8BB829BEDB10A20EE210A00EE292A9C
:104EA00084ED7B2AF5E0354958469BED841AD1ED17
:104EB0002E0AD1ED301A91ED2C2AB0EE600A01EEE7
:104EC000AA0A32EE40BAB0EECB0AB4EEC01AF1EE46
:104ED00010FA01DBB0EE48BAB4EEC01AF1EE10FAE7
:104EE00094ED770A90ED061A11EE0B0A60EE0ACAED
:104EF0001BD294ED760A90ED301A01EE0B0A30EEDB
:104F00002C0A10EE102A4A4502DDB0EE680A05E0D0
:104F100010EE102A524501D9B0EE490A91ED2BCA84
:104F200090EDDB1A11EE00CA01E0B0EE48CA91ED37
:104F3000310AB5EEC00AF1EE10FA03DD94F9B82299
:104F4000002A08DDB5EEC00AF1EE10FA05D894F893
:104F5000B822012A01D184ED788AB5EEC00AF1EEBB
:104F600010FA94ED781AD0ED451A11EE8C1A21EE54
:104F70000ADA06DD94F9B922002A01E0D4170024E8
:104F800008DDB5EEC00AF1EE10FA05D894F8B922A2
:104F9000012A01D184ED798A94ED790A9BED6F1A8B
:104FA00001EE0C0A30EE0D0A10EE100A484502DD43
:104FB000C5ED148A08E010EE100A504502D985EDBF
:104FC000149A01E085ED140AFE48A0F52E7190EDCB
:104FD0002F0AA0F51C7030EEC00AFBF779FAF948E9
:104FE00094ED190AD0ED300A30EE200A85ED150A4D
:104FF000DBED1B0A94ED760A60EE8B0A00EEA90A3F
:1050000084ED760A94ED770A0CEEA90A84ED770A0E
:1050100094ED780A0DEE290A84ED780A90ED310AB4
:10502000B5EEC00AF1EE10FA05DD012084F8B802F1
:1050300084F8B90223E0B5EEC00AF1EE10FA02D20C
:1050400084F8B86209E0B5EEC00AF1EE10FA02D1B8
:1050500084F8B87201E084F8B882B5EEC00AF1EEC7
:1050600010FA02D284F8B96209E0B5EEC00AF1EE96
:1050700010FA02D184F8B97201E084F8B9829BED8C
:105080005A0A60EE0C0A94ED790A00EEA90A84ED42
:10509000790ACC4890ED340ABDEEC00A10EE100A31
:1050A000012802D0022875D192E0C648D0ED330A1B
:1050B00090ED321A90ED380A30EEC12AB5EEC00AF2
:1050C000F1EE10FA03DD94F9B602002808DDB5EE22
:1050D000C00AF1EE10FA05D894F8B602012801D101
:1050E00084ED748AB5EEC00A5846F1EE10FAD4ED9C
:1050F000741A9BED9D1AF0EE610A51EE020A60EE01
:105100008A2A03DD94F9B712002908DDB5EEC00A3A
:10511000F1EE10FA05D894F8B712012901D184ED07
:10512000758AD4ED750A90EDC73AB0EE601A03EEB9
:10513000021A31EE221A11EE101A494502DDC5EDB0
:10514000168A08E011EE101A514502D985ED169A1B
:1051500001E085ED161AB5EEC00AF1EE10FA42EE46
:10516000A91AC4ED741A05DD012184F8B61284F879
:10517000B71224E0B5EEC00AF1EE10FA02D284F8BC
:10518000B6620AE0B5EEC00AF1EE10FA03D184F877
:10519000B67202E010E184F8B682B5EEC00AF1EE14
:1051A00010FA02D284F8B76209E0B5EEC00AF1EE57
:1051B00010FA02D184F8B77201E084F8B7829BED4F
:1051C000B20A20EE020A40EE290AC4ED750AF3E0A5
:1051D0007C4859469BED851AD0ED350AD0ED371A3B
:1051E00090ED332AB0EE600A01EEAA0A32EE40BA20
:1051F000B0EECB0AB4EEC01AF1EE10FA01DBB0EE5D
:1052000048BAB4EEC01AF1EE10FA94ED710A91EDBD
:10521000071A11EE0B0A60EE0ACA1BD294ED700A4F
:1052200091ED311A01EE0B0A30EE2C0A10EE102A25
:105230004A4502DDB0EE680A05E010EE102A52453C
:1052400001D9B0EE490A90ED32CA91EDDC1A11EEA7
:1052500000CA01E0B0EE48CA90ED380AB5EEC00AC7
:10526000F1EE10FA03DD94F9B422002A08DDB5EE60
:10527000C00AF1EE10FA05D894F8B422012A01D13F
:1052800084ED728AB5EEC00AF1EE10FA94ED721A4E
:10529000D1ED461A11EE8C1A21EE0ADA03DD94F9EB
:1052A000B522002A08DDB5EEC00AF1EE10FA05D8E5
:1052B00094F8B522012A01D184ED738A94ED730A22
:1052C0009BED701A01EE0C0A30EE0D0A10EE101A6A
:1052D000494502DDC5ED178A08E010EE101A514568
:1052E00002D985ED179A01E085ED170A3548A0F23D
:1052F000BA2190ED360AA0F51D7030EEC00AFBF71A
:10530000E7F8304894ED180A0146D0ED370A30EE40
:10531000200A85ED180ADBED1C0A94ED700A60EE98
:105320008B0A00EEA90A84ED700A94ED710A0CEE66
:10533000A90A84ED710A94ED720A0DEE290A84ED32
:10534000720A91ED380AB5EEC00AF1EE10FA05DDE9
:10535000012184F8B41284F8B51223E0B5EEC00A36
:10536000F1EE10FA02D284F8B46209E0B5EEC00A98
:10537000F1EE10FA02D184F8B47201E084F8B4823C
:10538000B5EEC00AF1EE10FA02D284F8B56209E077
:10539000B5EEC00AF1EE10FA02D184F8B57201E060
:1053A00084F8B5829BED5B0A60EE0C0A94ED730AFB
:1053B00000EEA90A84ED730A024890ED3B0ABDEEA7
:1053C000C00A01E0D417002410EE100A012802D010
:1053D000022875D192E0FC4890ED3A0A90ED391A16
:1053E000D0ED3F0A30EE412AF5EEC00AF1EE10FA98
:1053F00003DD94F9B202002808DDF5EEC00AF1EEF3
:1054000010FA05D894F8B202012801D184ED6E8A11
:10541000F5EEC00A5846F1EE10FA94ED6E0ADBED97
:105420009E1AB0EE401A11EE821A61EE0A1A03DDDE
:1054300094F9B312002908DDF5EEC00AF1EE10FA76
:1054400005D894F8B312012901D184ED6F8AD4ED07
:105450006F2A90EDC83AB0EE621A03EE021A31EEEE
:10546000211A11EE101A494502DDC5ED198A08E02E
:1054700011EE101A514502D985ED199A01E085ED1A
:10548000191AF5EEC00AF1EE10FA01EEA90A84ED40
:105490006E0A05DD012184F8B21284F8B31224E00B
:1054A000F5EEC00AF1EE10FA02D284F8B2620AE018
:1054B000F5EEC00AF1EE10FA03D184F8B27202E000
:1054C00010E184F8B282F5EEC00AF1EE10FA02D2D1
:1054D00084F8B36209E0F5EEC00AF1EE10FA02D1E9
:1054E00084F8B37201E084F8B3829BEDB30A20EE36
:1054F000020A40EE292AC4ED6F2AF3E0B248594669
:105500009BED861AD0ED3C0AD0ED3E1A90ED3A2A7A
:10551000B0EE600A01EEAA0A32EE40BAB0EECB0A53
:10552000B4EEC01AF1EE10FA01DBB0EE48BAB4EEF8
:10553000C01AF1EE10FA94ED6B0A91ED081A11EE13
:105540000B0A60EE0ACA1BD294ED6A0A91ED321A78
:1055500001EE0B0A30EE2C0A10EE102A4A4502DD4D
:10556000B0EE680A05E010EE102A524501D9B0EEFF
:10557000490A90ED39CA91EDDD1A11EE00CA01E039
:10558000B0EE48CA90ED3F0AB5EEC00AF1EE10FA4F
:1055900003DD94F9B022002A08DDB5EEC00AF1EE71
:1055A00010FA05D894F8B022012A01D184ED6C8A52
:1055B000B5EEC00AF1EE10FA94ED6C1AD1ED471A6F
:1055C00011EE8C1A21EE0ADA03DD94F9B122002AD9
:1055D00008DDB5EEC00AF1EE10FA05D894F8B12254
:1055E000012A01D184ED6D8A94ED6D0A9BED711A4B
:1055F00001EE0C0A30EE0D0A10EE101A494502DDDC
:10560000C5ED1A8A08E010EE101A514502D985ED51
:105610001A9A01E085ED1A0A6B48A0F52F7190EDFA
:105620003D0AA0F51E7030EEC00AFAF751FF664839
:1056300094ED170A0146D0ED3E0A30EE200A85EDC2
:105640001B0ADBED1D0A94ED6A0A60EE8B0A00EE80
:10565000A90A84ED6A0A94ED6B0A0CEEA90A84ED9E
:105660006B0A94ED6C0A0DEE290A84ED6C0A91ED3B
:105670003F0AB5EEC00AF1EE10FA05DD012184F80B
:10568000B01284F8B11223E0B5EEC00AF1EE10FAC0
:1056900002D284F8B06209E0B5EEC00AF1EE10FA69
:1056A00002D184F8B07201E084F8B082B5EEC00A8D
:1056B000F1EE10FA02D284F8B16209E0B5EEC00A48
:1056C000F1EE10FA02D184F8B17201E084F8B182EF
:1056D0009BED5C0A60EE0C0A94ED6D0A00EEA90ADF
:1056E00084ED6D0A384890ED420ABDEEC00A10EE16
:1056F000100A012802D0022865D194E0324890EDCA
:10570000410A90ED401AD0ED460A30EE410AF5EE1E
:10571000C00AF1EE10FA03DD94F9AE02002808DDAC
:10572000F5EEC00AF1EE10FA05D894F8AE020128A1
:1057300001D184ED688AF5EEC00A5846F1EE10FA00
:10574000D4ED681A9BED9F2AB0EE611A12EE001A92
:1057500061EE0A2A03DD94F9AF12002908DDF5EEA7
:10576000C00AF1EE10FA05D894F8AF12012901D160
:1057700084ED698A94ED692A90EDC93AB0EE421A37
:1057800003EE001A31EE221A11EE101A494502DD1D
:10579000C5ED1C8A08E011EE101A514502D985EDBD
:1057A0001C9A01E085ED1C1AF5EEC00AF1EE10FA24
:1057B00042EEA91AC4ED681A08DD012184F8AE1280
:1057C00084F8AF1226E021E1D4170024F5EEC00AD8
:1057D000F1EE10FA02D284F8AE6209E0F5EEC00AEA
:1057E000F1EE10FA02D184F8AE7201E084F8AE82D4
:1057F000F5EEC00AF1EE10FA02D284F8AF6209E0C9
:10580000F5EEC00AF1EE10FA02D184F8AF7201E0B1
:1058100084F8AF82DBEDB40A20EE800A00EE292A7C
:1058200084ED692AF2E0FE4859469BED871AD0EDD7
:10583000430AD0ED451A90ED412AB0EE600A01EE20
:10584000AA0A32EE40BAB0EECB0AB4EEC01AF1EEBC
:1058500010FA01DBB0EE48BAB4EEC01AF1EE10FA5D
:1058600094ED650A91ED091A11EE0B0A60EE0ACA71
:105870001BD294ED640A91ED331A01EE0B0A30EE5F
:105880002C0A10EE102A4A4502DDB0EE680A05E047
:1058900010EE102A524501D9B0EE490A90ED40CAE7
:1058A00091EDDE1A11EE00CA01E0B0EE48CA90EDAB
:1058B000460AB5EEC00AF1EE10FA03DD94F9AC2207
:1058C000002A08DDB5EEC00AF1EE10FA05D894F80A
:1058D000AC22012A01D184ED668AB5EEC00AF1EE50
:1058E00010FA94ED661AD1ED481A11EE8C1A21EED9
:1058F0000ADA03DD94F9AD22002A08DDB5EEC00A0C
:10590000F1EE10FA05D894F8AD22012A01D184ED08
:10591000678A94ED670A9BED721A01EE0C0A30EE6D
:105920000D0A10EE101A494502DDC5ED1D8A08E08A
:1059300010EE101A514502D985ED1D9A01E085ED52
:105940001D0AB748A0F2BE2190ED440AA0F51F70D1
:1059500030EEC00AFAF7BCFDB14894ED160AD0ED5E
:10596000450A30EE200A85ED1E0ADBED1E0A94ED95
:10597000640A60EE8B0A00EEA90A84ED640A94EDD5
:10598000650A0CEEA90A84ED650A94ED660A0DEE2F
:10599000290A84ED660A90ED460AB5EEC00AF1EEDA
:1059A00010FA05DD012084F8AC0284F8AD0223E092
:1059B000B5EEC00AF1EE10FA02D284F8AC6209E04A
:1059C000B5EEC00AF1EE10FA02D184F8AC7201E033
:1059D00084F8AC82B5EEC00AF1EE10FA02D284F877
:1059E000AD6209E0B5EEC00AF1EE10FA02D184F81A
:1059F000AD7201E084F8AD829BED5D0A60EE0C0AA9
:105A000094ED670A00EEA90A84ED670A844890EDD8
:105A1000490ABDEEC00A10EE100A012802D0022881
:105A200075D192E07E48D0ED480A90ED471A90ED8E
:105A30004D0A30EEC11AB5EEC00AF1EE10FA03DDE0
:105A400094F9AA02002808DDB5EEC00AF1EE10FABA
:105A500005D894F8AA02012801D184ED628AB5EE36
:105A6000C00A5846F1EE10FAD4ED622ADBEDA01A16
:105A7000F0EE620A51EE810A20EE8A2A03DD94F9E3
:105A8000AB12002908DDB5EEC00AF1EE10FA05D818
:105A900094F8AB12012901D184ED638AD4ED631A25
:105AA00090EDCA3AF0EE610A43EE010A70EE820A06
:105AB00010EE901A494502DDC5ED1F8A08E010EE90
:105AC000901A514502D985ED1F9A01E0C5ED1F0AD4
:105AD000B5EEC00AF1EE10FA42EE292AC4ED622AB0
